:100000000C94A8050C9438080C9443080C94C5056E
:100010000C947C0A0C94C5050C94C5050C94C5057C
:100020000C94C5050C94C5050C94C5050C94C50528
:100030000C94C5050C94C5050C94C5050C94C50518
:100040000C94C5050C94C5050C944E080C94C5057C
:100050000C94C505620162076206620362056204D0
:1000600062020A0E2D73C440AA8FDDF36B97B98D1F
:100070007757E352933F2507995F8B37307B3A8957
:10008000C6AE4E58E44B4805D6F25C44EFF869F62C
:1000900092561D96AB2F8835F53683FC8E60E0DADC
:1000A000A85BDF7E4D3B38912BFA21C2230D2ECE6B
:1000B0003CB60332ED86E60F556A34B87045499B6D
:1000C00076BC185A414628FD2CB0EAB2DE65BB105A
:1000D00059F19DB729D4EB42856F39D526907FA77A
:1000E000E8D998C18C1162AD81660C5D19011EC8FA
:1000F00087E12AD224D143E74F68C0AF5E9E84E2F5
:1001000050CB1AC3B47404AC64A013D331009CFE6A
:100110004AB378153EEE947C1C72A1209F95CF3D8A
:1001200082B5BD54A6476E75C71BD70916F01202DB
:10013000B1064CCDA9A26CA561CA7D1F221714C5BA
:10014000D86D8AF751A3FBF463BF79C927EC7A9A7B
:10015000BE80FFE5BACC0BDBDCF967E9A408D071FF
:100160003353000000000000000000000001010205
:1001700003030405060708090A0C0D0F10121315D6
:1001800017191B1D1F212325272A2C2E3133363802
:100190003B3E404346494C4F5154575A5D6063675C
:1001A0006A6D707376797C808386898C8F9295983E
:1001B0009C9FA2A5A8ABAEB0B3B6B9BCBFC1C4C723
:1001C000C9CCCED1D3D5D8DADCDEE0E2E4E6E8EA89
:1001D000ECEDEFF0F2F3F5F6F7F8F9FAFBFCFCFDC5
:1001E000FEFEFFFFFFFFFFFFFFFFFFFFFFFEFEFD25
:1001F000FCFCFBFAF9F8F7F6F5F3F2F0EFEDECEAB8
:10020000E8E6E4E2E0DEDCDAD8D5D3D1CECCC9C76B
:10021000C4C1BFBCB9B6B3B0AEABA8A5A29F9C98F1
:1002200095928F8C898683807C797673706D6A67EE
:1002300063605D5A5754514F4C494643403E3B38EA
:100240003633312E2C2A272523211F1D1B19171564
:100250001312100F0D0C0A09080706050403030208
:100260000101494A4B4B4A4949494948474544439A
:100270004343444443413E3D3B39383737363636B5
:10028000373737373737363533323131343D4D65CF
:1002900084A9CFEEFFFEEAC69A6D44251105000140
:1002A000060D141C242D34393D404142434444453D
:1002B00046474747474747474748484849494A4BC1
:1002C0004B4C4D4E4F505152535456585B5D6062EB
:1002D0006466686B6D707376797B7D7E7F7F7F7FD0
:1002E0007F7E7D7C797774716D6966625F5C59573A
:1002F00054514F4D4C4B4A4948464544434343446F
:1003000044444545454545454546474849494A4A87
:100310004B4B4B4B4B4B4A4A494949494848484744
:10032000474747474747464646454545454546466C
:100330004645444443434343424242414141414193
:1003400041414140403F3F404041414141414141A5
:100350004040404040404040414141424344454785
:10036000484900020406080A0C0E10121416181A46
:100370001C1E20222426282A2C2E30323436383ACD
:100380003C3E40424446484A4C4E50525456585ABD
:100390005C5E60626466686A6C6E70727476787AAD
:1003A0007C7E80828486888A8C8E90929496989A9D
:1003B0009C9EA0A2A4A6A8AAACAEB0B2B4B6B8BA8D
:1003C000BCBEC0C2C4C6C8CACCCED0D2D4D6D8DA7D
:1003D000DCDEE0E2E4E6E8EAECEEF0F2F4F6F8FA6D
:1003E000FCFEFFFDFBF9F7F5F3F1EFEFEBE9E7E5D5
:1003F000E3E1DFDDDBD9D7D5D3D1CFCFCBC9C7C5BB
:10040000C3C1BFBDBBB9B7B5B3B1AFAFABA9A7A5AA
:10041000A3A19F9D9B99979593918F8F8B8987859A
:1004200083817F7D7B79777573716F6F6B6967658A
:1004300063615F5D5B59575553514F4F4B4947457A
:1004400043413F3D3B39373533312F2F2B2927256A
:1004500023211F1D1B19171513110F0F0B0907055A
:100460000301FFFEFDFCFBFAF9F8F7F6F5F4F3F2F1
:10047000F1F0EFEEEDECEBEAE9E8E7E6E5E4E3E2E4
:10048000E1E0DFDEDDDCDBDAD9D8D7D6D5D4D3D2D4
:10049000D1D0CFCECDCCCBCAC9C8C7C6C5C4C3C2C4
:1004A000C1C0BFBEBDBCBBBAB9B8B7B6B5B4B3B2B4
:1004B000B1B0AFAEADACABAAA9A8A7A6A5A4A3A2A4
:1004C000A1A09F9E9D9C9B9A999897969594939294
:1004D00091908F8E8D8C8B8A898887868584838284
:1004E00081807F7E7D7C7B7A797877767574737274
:1004F00071706F6E6D6C6B6A696867666564636264
:1005000061605F5E5D5C5B5A595857565554535253
:1005100051504F4E4D4C4B4A494847464544434243
:1005200041403F3E3D3C3B3A393837363534333233
:1005300031302F2E2D2C2B2A292827262524232223
:1005400021201F1E1D1C1B1A191817161514131213
:1005500011100F0E0D0C0B0A090807060504030203
:100560000100000102030405060708090A0B0C0D2F
:100570000E0F101112131415161718191A1B1C1D23
:100580001E1F202122232425262728292A2B2C2D13
:100590002E2F303132333435363738393A3B3C3D03
:1005A0003E3F404142434445464748494A4B4C4DF3
:1005B0004E4F505152535455565758595A5B5C5DE3
:1005C0005E5F606162636465666768696A6B6C6DD3
:1005D0006E6F707172737475767778797A7B7C7DC3
:1005E0007E7F808182838485868788898A8B8C8DB3
:1005F0008E8F909192939495969798999A9B9C9DA3
:100600009E9FA0A1A2A3A4A5A6A7A8A9AAABACAD92
:10061000AEAFB0B1B2B3B4B5B6B7B8B9BABBBCBD82
:10062000BEBFC0C1C2C3C4C5C6C7C8C9CACBCCCD72
:10063000CECFD0D1D2D3D4D5D6D7D8D9DADBDCDD62
:10064000DEDFE0E1E2E3E4E5E6E7E8E9EAEBECED52
:10065000EEEFF0F1F2F3F4F5F6F7F8F9FAFBFCFD42
:10066000FEFF00000000000000000000000000008D
:10067000000000000000000000000000000000007A
:10068000000000000000000000000000000000006A
:10069000000000000000000000000000000000005A
:1006A000000000000000000000000000000000004A
:1006B000000000000000000000000000000000003A
:1006C000000000000000000000000000000000002A
:1006D000000000000000000000000000000000001A
:1006E0000000FFFFFFFFFFFFFFFFFFFFFFFFFFFF18
:1006F000FFFFFFFFFFFFFFFFFFFFFFFFFFFFFFFF0A
:10070000FFFFFFFFFFFFFFFFFFFFFFFFFFFFFFFFF9
:10071000FFFFFFFFFFFFFFFFFFFFFFFFFFFFFFFFE9
:10072000FFFFFFFFFFFFFFFFFFFFFFFFFFFFFFFFD9
:10073000FFFFFFFFFFFFFFFFFFFFFFFFFFFFFFFFC9
:10074000FFFFFFFFFFFFFFFFFFFFFFFFFFFFFFFFB9
:10075000FFFFFFFFFFFFFFFFFFFFFFFFFFFFFFFFA9
:10076000FFFF808386898C8F9295989C9FA2A5A875
:10077000ABAEB0B3B6B9BCBFC1C4C7C9CCCED1D380
:10078000D5D8DADCDEE0E2E4E6E8EAECEDEFF0F220
:10079000F3F5F6F7F8F9FAFBFCFCFDFEFEFFFFFFB0
:1007A000FFFFFFFFFFFFFFFFFEFEFDFCFCFBFAF972
:1007B000F8F7F6F5F3F2F0EFEDECEAE8E6E4E2E064
:1007C000DEDCDAD8D5D3D1CECCC9C7C4C1BFBCB961
:1007D000B6B3B0AEABA8A5A29F9C9895928F8C891A
:1007E0008683807C797673706D6A6763605D5A5723
:1007F00054514F4C494643403E3B383633312E2C02
:100800002A272523211F1D1B1917151312100F0D41
:100810000C0A090807060504030302010100000091
:1008200000000000000000000101020303040506AF
:100830000708090A0C0D0F1012131517191B1D1F9D
:10084000212325272A2C2E313336383B3E40434680
:10085000494C4F5154575A5D6063676A6D707376A7
:10086000797C2020202052616E646F6D004F4646D7
:10087000004F4E20009609007306CE09DE0990064F
:10088000C4069D099D094109007A07CE09DE098D3C
:10089000079B079D099D09FC0900DF057C098C0960
:1008A00008063B06B20BC509EB0901DF057C098C84
:1008B0000908063B06B20BC509DA0902DF057C0907
:1008C0008C0908063B06B20BC509C90903DF057C84
:1008D000098C0908063B06B20BC509B80904DF05F7
:1008E0007C098C0908063B06B20BC509A70905DF80
:1008F000057C098C0908063B06B20BC50985090071
:10090000C8057C098C09C705C7051A0AC5097409F9
:1009100000F8067C098C09C10AD00ABF0BC509631F
:10092000090017077C098C09AE07EB07E00BC50926
:10093000520900DF057C098C0908063B062E0AC512
:10094000092020204F6666204C6576656C202020AB
:100950002000202020202053776565702020202053
:100960002020002020202050574D202848532920A7
:10097000202020002020204869676820537065658A
:10098000642020200020202020204E6F69736520E5
:100990002020202020002020202046726571205336
:1009A000746570202020002020202020204543470F
:1009B0002020202020202000202052657620536116
:1009C00077546F6F746820200020202020536177B7
:1009D000546F6F7468202020200020202020547243
:1009E00069616E676C652020202000202020202077
:1009F0005371756172652020202020002020202066
:100A0000202053696E6520202020202000001F0038
:100A10000000001F00001F101010101F00001F1802
:100A20001818181F00001F1C1C1C1C1F00001F1E74
:100A30001E1E1E1F00001F1F1F1F1F1F0003070F6A
:100A40001F0F070300181C1E1F1E1C18006E616E6E
:100A500000696E660000407A10F35A00A0724E18CA
:100A6000090010A5D4E80000E87648170000E40B60
:100A700054020000CA9A3B000000E1F50500008026
:100A8000969800000040420F000000A08601000080
:100A900000102700000000E80300000000640000D0
:100AA0000000000A00000000000100000000002C0F
:100AB00076D888DC674F0823DFC1DFAE59E1B1B7D4
:100AC00096E5E3E453C63AE651997696E8E6C284A1
:100AD00026EB898C9B62ED407C6FFCEFBC9C9F40B9
:100AE000F2BAA56FA5F490055A2AF75C936B6CF9DE
:100AF000676DC11BFCE0E40D47FEF520E6B500D0B4
:100B0000ED902E0300943577050080841E080000C8
:100B1000204E0A000000C80C333333330F986E1296
:100B2000831141EF8D2114893BE65516CFFEE6DB9C
:100B300018D1844B381BF77C1D901DA4BBE42420E6
:100B40003284725E228100C9F124ECA1E53D2700C8
:100B500011241FBECFE5D4E0DEBFCDBF10E0A0E67C
:100B6000B0E0ECE2FAE202C005900D92AC38B107B9
:100B7000D9F710E0ACE8B0E001C01D92AC3BB10782
:100B8000E1F70E94AC0D0C9414150C94000008952C
:100B900061E080E00E947D0C41E060E082E698E048
:100BA0000E948B0C8091AA00882319F081E798E0BD
:100BB00002C08DE698E041E06DE00C948B0C61E0A2
:100BC00080E00E947D0C8091A6009091A700A091EA
:100BD000A800B091A900BF93AF939F938F938FE626
:100BE00090E09F938F930E948D148091AA000F90A4
:100BF0000F900F900F900F900F90882319F081E7BE
:100C000098E002C08DE698E041E06DE00C948B0C1A
:100C10006091A6007091A7008091A8009091A90012
:100C20002091AC003091AD004091AE005091AF00EA
:100C30000E942C116093A6007093A7008093A800D7
:100C40009093A9006091A6007091A7008091A800E0
:100C50009091A90020E030E0A9010E94911187FF46
:100C600008C01092A6001092A7001092A80010923F
:100C7000A9000C94DF056091A6007091A7008091F7
:100C8000A8009091A9002091AC003091AD00409156
:100C9000AE005091AF000E942D116093A60070939A
:100CA000A7008093A8009093A9006091A60070917E
:100CB000A7008091A8009091A90020E034E244E7C9
:100CC00059E40E949E12181664F480E094E2A4E7AE
:100CD000B9E48093A6009093A700A093A800B093D6
:100CE000A9000C94DF0561E080E00E947D0C8091FA
:100CF000AC009091AD00A091AE00B091AF00BF9359
:100D0000AF939F938F938FE690E09F938F930E9472
:100D10008D140F900F900F900F900F900F900895DB
:100D20006091AC007091AD008091AE009091AF00E9
:100D300020E030E040E251E40E9495116093AC0065
:100D40007093AD008093AE009093AF006091AC00C3
:100D50007091AD008091AE009091AF002FE632E12E
:100D600043E85AE30E94911187FF0CC08FE692E19D
:100D7000A3E8BAE38093AC009093AD00A093AE00DB
:100D8000B093AF000C9473066091AC007091AD000D
:100D90008091AE009091AF0020E030E040E251E45D
:100DA0000E94A2126093AC007093AD008093AE00DD
:100DB0009093AF006091AC007091AD008091AE0057
:100DC0009091AF0020E030E44CE156E40E949E1286
:100DD000181664F480E090E4ACE1B6E48093AC00D3
:100DE0009093AD00A093AE00B093AF000C94730647
:100DF00061E080E00E947D0C8091AB001F928F9398
:100E000088E790E09F938F930E948D148091AA00B1
:100E10000F900F900F900F90882319F081E798E0C2
:100E200002C08DE698E041E06DE00C948B0C0F93CE
:100E30001F93CF93DF938091B0009091B100843FD6
:100E40009105F1F038F4CD97B1F4C6EFD8E214E78C
:100E500002E41AC0803D23E0920741F085389E41AC
:100E600051F4C0E0D4E214EF05E40EC0C7EDD3E2C4
:100E700014E704E409C0C0E0D4E214E707E404C0C6
:100E8000C7EDD3E214E703E460E08DE00E947D0C3F
:100E90008091B2001F928F9380E890E09F938F9390
:100EA0000E948D1461E080E00E947D0C0F931F93DF
:100EB000DF93CF9384E890E09F938F930E948D14EB
:100EC0008091AA002DB73EB7265F3F4F0FB6F8942A
:100ED0003EBF0FBE2DBF882319F081E798E002C006
:100EE0008DE698E041E06DE0DF91CF911F910F9189
:100EF0000C948B0C61E080E00E947D0C8091B3002B
:100F00001F928F9380E890E09F938F930E948D149F
:100F10000F900F900F900F9008958091B300882349
:100F200029F08091B30081508093B3008091B30089
:100F30008BBB0C947A078091B3008F3F29F080918E
:100F4000B3008F5F8093B3008091B3008BBB0C9490
:100F50007A070E940A0C80E090E008958091AA0030
:100F6000811129C08091B0009091B100803D23E0B3
:100F70009207B9F048F48D33910581F0843F9105D3
:100F800041F58DE390E012C085382EE1920761F0C3
:100F90008432944FF1F485E89EE108C084E294EF36
:100FA00005C084EF90E002C080ED93E09093B10023
:100FB0008093B0000EC08091B200882329F0809108
:100FC000B20081508093B2008091B20090E09BBD4E
:100FD0008ABD0C9417078091AA00811129C08091C5
:100FE000B0009091B100803D23E09207B9F048F441
:100FF0008D33910581F0843F910541F580ED93E0BB
:1010000012C085382EE1920761F08432944FF1F4DA
:101010008DE390E008C084EF90E005C085E89EE194
:1010200002C084E294EF9093B1008093B0000EC0B0
:101030008091B2008F3F29F08091B2008F5F809342
:10104000B2008091B20090E09BBD8ABD0C9417075E
:1010500014BC089585B5866085BD89B7806489BF55
:10106000089583B7897F83BF89B78F7B89BF089530
:101070001F920F920FB60F9211246A9A0F900FBE13
:101080000F901F9018951F920F920FB60F92112478
:101090006A9A0F900FBE0F901F9018951F920F9293
:1010A0000FB60F9211246A9A0F900FBE0F901F90E7
:1010B000189580918D0090918E00AC014F5F5F4F2D
:1010C00050938E0040938D00849B0CC0839B0CC07A
:1010D000809B0CC0819B0CC0829B0CC0B2990CC041
:1010E00066E00BC061E009C062E007C063E005C0D4
:1010F00064E003C065E001C060E020919300261722
:1011000059F0611119C020918F0030919000241B7B
:10111000350B37FF22C010C0209193002223E9F045
:101120002091910030919200241B350B37FF15C0A0
:101130001092940009960DC09C012B5E3F4F309396
:10114000900020938F0060939300109294008B592D
:101150009F4F909392008093910008950C94FF14F8
:101160000F931F93CF93DF931F92CDB7DEB78C0100
:1011700069830E94FF146981861741F0C8010F90AE
:10118000DF91CF911F910F910C9407150F90DF9174
:10119000CF911F910F910895CF93DF9360918C00B1
:1011A00080E090E00E94B0086091AB0086E090E0A3
:1011B0000E94B008C0EBD0E06881798187E090E0C0
:1011C0000E94B00888819981692F88E090E00E9490
:1011D000B0086091B20089E090E00E94B008609190
:1011E000B3008AE090E0DF91CF910C94B0081092A8
:1011F0008C0080E090E0AAE7B4E48093A60090938E
:10120000A700A093A800B093A90080E090E0A8EC0C
:10121000B2E48093AC009093AD00A093AE00B09385
:10122000AF0081E08093AB0084E294EF9093B10033
:101230008093B00080E88093B2008093B3000E9456
:10124000CC0864E58FEF91E00C940715CF938FEFF6
:1012500091E00E94FF14843511F00E94F70880E0AD
:1012600090E00E94FF1480938C0086E090E00E9442
:10127000FF148093AB0087E090E00E94FF14C82F1A
:1012800088E090E00E94FF142C2F30E0382B309340
:10129000B1002093B00089E090E00E94FF14809399
:1012A000B2008AE090E00E94FF148093B300CF91D7
:1012B000089560918C0081E1689FB0011124695606
:1012C000774F41E150E085E990E00E943C148AE9C3
:1012D00090E09093B5008093B4000E94580C40E0D9
:1012E00060E080919500909196000E948B0CE091B7
:1012F0009800F091990009948091AA0081110BC087
:1013000080918C00811102C089E001C081508093DE
:101310008C000C94590908958091AA0081110CC089
:1013200080918C008F5F8A3019F080938C0002C00E
:1013300010928C000C94590908958FEF80936000EF
:101340000C9459096091600081E1689FB0011124FB
:101350006B58774F41E150E085E990E00E943C14E2
:101360008AE990E09093B5008093B4000E94580CF5
:1013700040E060E080919500909196000E948B0C77
:10138000E0919800F091990009948091AA00811150
:1013900004C0109260000C94A20908958091AA00E4
:1013A00081110BC080916000811102C081E001C0F9
:1013B0008150809360000C94A20908958091AA0046
:1013C00081110CC0809160008F5F823019F0809392
:1013D000600002C0109260000C94A20908958091F0
:1013E00093008111FCCF8BB7806E8BBF0C943108BA
:1013F0008BB78F718BBF0C942A080E94CC0881E0B8
:101400008093AA00E0919800F091990009950C94BE
:10141000EF090E94F8091092AA008091B3008BBBDB
:10142000E0919800F09199000995809193008111C5
:10143000FCCF08950E94FD096A9840E051E062E601
:1014400070E080E091E00E943C14E0E0F1E0008078
:10145000E3950BBA6A9BFBCF0C94090AFF920F939A
:101460001F93CF93DF930E94CC0881E08093AA0062
:10147000E0919800F091990009950E94EF09609120
:10148000A6007091A7008091A8009091A9002EE875
:1014900033E049ED5DE30E9495110E94FD11EB01DF
:1014A000F82E6A9840E051E062E671E080E091E059
:1014B0000E943C1440E090E081E0E0E0F1E022276F
:1014C00033270BE010E02C0F3D1FEF1D19F00080BB
:1014D0000BBAF9CFC80FD91FF41EF11609F4E39522
:1014E000F0166A9B81F71092AA00DF91CF911F91AD
:1014F0000F91FF900C94090A1F920F920FB60F9252
:1015000011242F933F934F935F936F937F938F9308
:101510009F93AF93BF93EF93FF930E945908FF915E
:10152000EF91BF91AF919F918F917F916F915F915B
:101530004F913F912F910F900FBE0F901F901895D4
:10154000843039F0883041F0823049F483E090E013
:1015500008C081E090E005C01BBC1ABC04C087E055
:1015600090E09BBD8ABD80E48FBD89E08EBD08956B
:101570008091AA00882321F08091AB000C94A00AEE
:1015800008958091AB00813011F488E003C0809110
:10159000AB0086958093AB000E94F8060C94B80AC5
:1015A0008091AB00883011F481E003C08091AB00E2
:1015B000880F8093AB000E94F8060C94B80A843F11
:1015C000910591F020F4CD9769F485E00EC0803D3F
:1015D00023E0920729F085389E4121F482E005C07E
:1015E00083E003C081E001C084E091E89FBD886092
:1015F0008EBD08951EBC089581E690E09093B900D9
:101600008093B8000E94C80C0E94580C0E94420DA2
:101610000E9426091092AA008091B3008BBB8FEF25
:101620008ABB81B3807E81BB82B38F6182BBBA9853
:1016300084E088BB8D9A14BC0E94F8090E94590965
:101640007894089580919400811143C08091930013
:1016500091E0909394008330E1F028F4813049F0D8
:10166000823079F00895853021F1D8F0863049F143
:101670000895E091B400F091B5000190F081E02D63
:1016800027C0E091B400F091B5000680F781E02D0D
:101690001FC0E091B400F091B5000280F381E02D0D
:1016A00017C0E091B400F091B5000480F581E02D01
:1016B0000FC0E091B400F091B5000084F185E02DF9
:1016C00007C0E091B400F091B5000284F385E02DED
:1016D000099408951F93CF93DF938091AA008823E4
:1016E00009F43CC06091A6007091A7008091A80009
:1016F0009091A90020E03EEF48ED5DE30E94951136
:101700000E94FD11EB01182F6A98E0919700F0E01C
:10171000EE0FFF1FEA5AFF4F6591749140E051E0D0
:1017200080E091E00E943C14E0E0F1E022273327C2
:101730002C0F3D1FE11F00800BBA6A9BF9CF8091EF
:10174000B3008BBB0E94F80980919300882319F0A5
:101750000E94220BF9CF0E94EF09BFCFDF91CF91FA
:101760001F9108958091AA00811106C00E94FD0971
:101770000E946A0B0C94090A1092AA0008958091A5
:10178000AA00882329F01092AA001EBC95980895FB
:101790000E94CC0881E08093AA00E0919800F0912B
:1017A000990009950E94B80A8091AA00882319F02F
:1017B0000E94220BF9CFE0919800F09199000994D2
:1017C0008091AA00882329F01092AA001EBC959847
:1017D00008950E94CC0881E08093AA00E0919800CF
:1017E000F091990009958091B20090E09BBD8ABD6F
:1017F0008091B0009091B1000E94DF0A8091AA0010
:10180000882319F00E94220BF9CFE0919800F09103
:1018100099000994982F907F95BBA89AAA9AEFE90E
:10182000FFE03197F1F700C00000AA98A898EFE90F
:10183000FFE03197F1F700C00000F0E18F9FC00199
:10184000112485BBA89AAA9A8FE99FE00197F1F726
:1018500000C00000AA98A898EFE9FFE03197F1F7DF
:1018600000C000000895982F907F95BBAA9AEFE9D9
:10187000FFE03197F1F700C00000AA98EFE9FFE020
:101880003197F1F700C00000F0E18F9FC0011124F3
:1018900085BBAA9A8FE99FE00197F1F700C000008D
:1018A000AA98EFE9FFE03197F1F700C00000089532
:1018B00081E00C94330C82E00C94330CEF92FF9295
:1018C0001F93CF93DF931F92CDB7DEB7009771F0D0
:1018D000182F7C018E2D811B861740F4F701819112
:1018E0007F0169830E940A0C6981F4CF0F90DF9118
:1018F000CF911F91FF90EF900895623031F06330E7
:1019000031F0613029F4805C03C08C5E01C08C5AD8
:1019100080680C94330C1F93CF93DF93EC01862FD8
:10192000642F0E947D0C10E0FE01E10FF11D8491F7
:10193000882321F00E940A0C1F5FF6CFDF91CF9120
:101940001F910895EF92FF920F931F93CF93DF9310
:101950008C0188E0689FB0011124862F8064E82EF6
:10196000C0E0D0E0F801EC0FFD1FF4908C2F8E0D3D
:101970000E94330C8F2D0E940A0C2196C830D1058D
:1019800089F7DF91CF911F910F91FF90EF9008950C
:101990001F93CF93DF938FE59AEE0197F1F700C085
:1019A000000015BA15BA84B3806F84BB84B3876016
:1019B00084BB80E385BBAA9A8FE99FE00197F1F78A
:1019C00000C00000AA988FE99FE00197F1F700C0DE
:1019D000000080E385BBAA9A8FE99FE00197F1F7A9
:1019E00000C00000AA988FE99FE00197F1F700C0BE
:1019F000000080E285BBAA9A8FE99FE00197F1F78A
:101A000000C00000AA988FE99FE00197F1F700C09D
:101A1000000088E20E94330C8CE00E94330CCDE081
:101A2000DAE060E011E0160FCE010E94A20C2896C9
:101A3000183011F0612FF6CFDF91CF911F910895EB
:101A4000CF93DF93D82FC0E0CD1729F08EE10E940D
:101A5000330CCF5FF9CFDF91CF910895CF93DF9310
:101A6000D82FC0E0CD1729F088E10E94330CCF5F5A
:101A7000F9CFDF91CF9108958EE00C94330C8FE075
:101A80000C94330C8CE00C94330C88E00C94330CE5
:101A90008CE00C94330CCF93DF93D82FC0E0CD179C
:101AA00029F080E10E94330CCF5FF9CFDF91CF9115
:101AB0000895CF93DF93D82FC0E0CD1729F084E1AC
:101AC0000E94330CCF5FF9CFDF91CF910895CF9271
:101AD000DF92EF92FF920F931F93CF93DF931F92AA
:101AE000CDB7DEB756E0459F90011124E82FE29F65
:101AF000C001E39F900D112470E00E9419138B0127
:101B0000CB0166E070E00E940513E82EC12CD12CB9
:101B1000F12CF416B9F096012B5F3F4F0217130713
:101B200028F40C151D0520F08E2D03C085E001C0A2
:101B300080E049830E940A0CF394F6E0CF0ED11C9A
:101B40004981E7CF0F90DF91CF911F910F91FF90C7
:101B5000EF90DF90CF9008950E94FC0A0E94220B24
:101B6000FDCFA3E1B0E0E7EBFDE00C942D137C0189
:101B70001B016A01FC0117821682838181FF66C303
:101B8000BE016F5F7F4F4B01F7019381F10193FD20
:101B9000859193FF81911F01882309F453C38532F6
:101BA00039F493FD859193FF81911F01853239F4BA
:101BB000B70190E00E945B1456016501E5CF10E08B
:101BC000512C20E02032A0F48B3269F030F48032C6
:101BD00059F0833269F420612CC08D3239F08033A2
:101BE00039F4216026C02260246023C0286021C00F
:101BF00027FD27C030ED380F3A3078F426FF06C0B5
:101C0000FAE01F9F300D1124132F13C06AE0569E77
:101C1000300D1124532E20620CC08E3221F426FD8B
:101C200011C3206406C08C3611F4206802C08836C7
:101C300041F4F10193FD859193FF81911F01811181
:101C4000C1CF9BEB980F933018F42061805E06C0E3
:101C50009BE9980F933008F0AAC12F7E26FF16E06B
:101C60002F73722E853621F4F22FF0647F2E08C078
:101C7000863621F4622F6068762E02C01111115051
:101C800077FE07C01C3348F444244394410E27E0F8
:101C90000BC0183030F4212F06C027E04CE3442E4F
:101CA00003C027E017E0412C560174E0A70EB11CD9
:101CB000F6016081718182819381042DA4010E94CB
:101CC00064136C01098100FF02C003FF06C071FCB0
:101CD00007C072FC08C0612C08C03DE2632E05C03D
:101CE0002BE2622E02C090E2692E802F8C7099F157
:101CF000662011F084E001C083E0851510F0512CBE
:101D00000BC0581A73FC08C0B70180E290E00E9433
:101D10005B145A94C9F7F3CF662029F0B701862DDA
:101D200090E00E945B1403FD03C001E51AE002C0CD
:101D30000DE41AE0F72DF0717F2EF80184918823CD
:101D400009F476C271108052B70190E00E945B14D2
:101D50000F5F1F4FF2CF77FE0FC04C0C04FF04C083
:101D60008A81813309F44A94141474F5F8E0F41567
:101D700078F588E0482E2CC076FC2AC0812F90E0B0
:101D80008C159D059CF06CEFC6166FEFD60674F0AF
:101D9000772D7068772E0AC0E2E0F0E0EC0FFD1FAF
:101DA000E10FF11D8081803319F411501111F4CF2E
:101DB00077FE0EC044244394410E812F90E0C81654
:101DC000D9062CF41C1904C04424439401C010E02B
:101DD00077FE07C01C141D043CF496012F5F3F4F93
:101DE00005C025E030E002C021E030E0662011F0BF
:101DF0002F5F3F4F112331F0412F50E04F5F5F4F76
:101E0000240F351F452D50E02417350714F4521ABE
:101E100001C0512C872D897049F4552039F0B70144
:101E200080E290E00E945B145A94F7CF662029F07C
:101E3000B701862D90E00E945B1473FC09C0552009
:101E400039F0B70180E390E00E945B145A94F7CF19
:101E500077FE5FC09C2D8D2DD7FE02C090E080E004
:101E6000692E782E40E050E0C601841991099D87C3
:101E70008C87960126193709280D391D812F90E08E
:101E8000EE27FF27E81BF90BFF87EE87FFEF6F16A2
:101E90007F0669F4B7018EE290E02B8B3A8B488B7A
:101EA000598B0E945B14598948893A892B89C61439
:101EB000D70454F06C857D85661577052CF4F901FF
:101EC000E40FF51F818101C080E371E0671A71089A
:101ED0004F5F5F4FEE85FF856E167F066CF0B70192
:101EE00090E02B8B3A8B488B598B0E945B142B898B
:101EF0003A8948895989CACF6C147D0439F49A818A
:101F0000963318F4953311F404FF81E3B70190E0A0
:101F10004BC08A81813309F00F7EB70190E00E94A7
:101F20005B14111105C074FE18C085E490E017C061
:101F3000B7018EE290E00E945B1482E06624639415
:101F4000680EF401E80FF11D8081B70190E00E9456
:101F50005B14115041F3862DF1CF85E690E0B70177
:101F60000E945B14D7FC05C0C114D10439F404FFEE
:101F700005C0D194C194D1088DE201C08BE2B701B4
:101F800090E00E945B1480E36AE0C616D1042CF056
:101F90008F5FFAE0CF1AD108F7CFB70190E00E9427
:101FA0005B14B701C601C0960E945B1441C1833621
:101FB00031F0833779F0833509F058C021C05601DC
:101FC00072E0A70EB11CF6018081898301E010E068
:101FD000640114C05601F2E0AF0EB11CF601C080DE
:101FE000D18026FF03C0612F70E002C06FEF7FEF4A
:101FF000C6012B8B0E9450148C012B892F7715C0A2
:102000005601F2E0AF0EB11CF601C080D18026FF70
:1020100003C0612F70E002C06FEF7FEFC6012B8B12
:102020000E9445148C012B892068722E23FD1AC052
:10203000852D90E008171907A8F4B70180E290E019
:102040000E945B145A94F4CFF60177FC859177FED9
:1020500081916F01B70190E00E945B1451105A9476
:10206000015011090115110579F7E2C0843611F00C
:10207000893651F5560127FF09C0F4E0AF0EB11CB7
:10208000F60160817181828193810AC0F2E0AF0E16
:10209000B11CF60160817181882777FD8095982FAA
:1020A000022F0F7697FF08C09095809570956195E7
:1020B0007F4F8F4F9F4F00682AE030E0A4010E94BD
:1020C000A114C82EC8183EC0022F853721F40F7EF8
:1020D0002AE030E01DC0097F8F3691F018F4883572
:1020E00059F0B0C0803719F0883711F0ABC00061EB
:1020F00004FF09C0046007C024FF08C0066006C0D2
:1021000028E030E005C020E130E002C020E132E00C
:10211000560107FF09C0F4E0AF0EB11CF601608163
:1021200071818281938108C0F2E0AF0EB11CF6018B
:102130006081718180E090E0A4010E94A114C82E0A
:10214000C8180F7706FF0BC0202F2E7FC11650F442
:1021500004FF0AC002FD08C0202F2E7E05C0DC2C23
:10216000202F03C0DC2C01C0D12E24FF0DC0FE01A6
:10217000EC0DF11D8081803311F4297E09C022FF0E
:1021800006C0D394D39404C0822F867809F0D394E8
:1021900023FD13C020FF06C01C2DD51418F4150D07
:1021A0001D19D52CD51468F4B70180E290E02B8B73
:1021B0000E945B14D3942B89F5CFD51410F45D18CD
:1021C00001C0512C24FF12C0B70180E390E02B8B9B
:1021D0000E945B142B8922FF17C021FF03C088E5F2
:1021E00090E002C088E790E0B7010CC0822F8678AB
:1021F00059F021FD02C080E201C08BE227FD8DE293
:10220000B70190E00E945B14C11638F4B70180E377
:1022100090E00E945B141150F7CFCA94F401EC0DCA
:10222000F11D8081B70190E00E945B14C110F5CFD1
:10223000552009F4C2CCB70180E290E00E945B1403
:102240005A94F6CFF7018681978102C08FEF9FEFF6
:102250006396E2E10C9449135058BB27AA270ED08D
:1022600033C124D130F029D120F031F49F3F11F453
:102270001EF419C10EF4E095E7FB0FC1E92F35D12B
:1022800080F3BA17620773078407950718F071F493
:102290009EF54DC10EF4E0950B2EBA2FA02D0B012B
:1022A000B90190010C01CA01A0011124FF27591B9B
:1022B00099F0593F50F4503E68F11A16F040A22FA1
:1022C000232F342F4427585FF3CF46953795279512
:1022D000A795F0405395C9F77EF41F16BA0B620B11
:1022E000730B840BBAF09150A1F0FF0FBB1F661F58
:1022F000771F881FC2F70EC0BA0F621F731F841F9B
:1023000048F4879577956795B795F7959E3F08F0C0
:10231000B3CF9395880F08F09927EE0F979587957F
:10232000089597D008F481E008950CD0CDC0C5D0B1
:1023300040F0BCD030F021F45F3F19F0AEC0511135
:10234000F7C0B1C0D2D098F39923C9F35523B1F3A4
:10235000951B550BBB27AA2762177307840738F014
:102360009F5F5F4F220F331F441FAA1FA9F333D073
:102370000E2E3AF0E0E830D091505040E695001C27
:10238000CAF729D0FE2F27D0660F771F881FBB1FE3
:10239000261737074807AB07B0E809F0BB0B802DBD
:1023A000BF01FF2793585F4F2AF09E3F510568F009
:1023B00074C0BEC05F3FECF3983EDCF38695779522
:1023C0006795B795F7959F5FC9F7880F911D96950B
:1023D000879597F90895E1E0660F771F881FBB1F67
:1023E000621773078407BA0720F0621B730B840B14
:1023F000BA0BEE1F88F7E09508957FD088F09F57BD
:1024000090F0B92F9927B751A0F0D1F0660F771F40
:10241000881F991F1AF0BA95C9F712C0B13081F020
:1024200086D0B1E0089583C0672F782F8827B85FE2
:1024300039F0B93FCCF3869577956795B395D9F781
:102440003EF490958095709561957F4F8F4F9F4F8B
:102450000895990F0008550FAA0BE0E8FEEF161635
:102460001706E807F907C0F012161306E407F50788
:1024700098F0621B730B840B950B39F40A2661F0FC
:10248000232B242B252B21F408950A2609F4A1409F
:10249000A6958FEF811D811D089597F99F6780E8AC
:1024A00070E060E008959FEF80EC089500240A94A6
:1024B0001616170618060906089500240A9412161F
:1024C0001306140605060895092E0394000C11F452
:1024D000882352F0BB0F40F4BF2B11F460FF04C0FF
:1024E0006F5F7F4F8F4F9F4F089557FD9058440F58
:1024F000551F59F05F3F71F04795880F97FB991F63
:1025000061F09F3F79F0879508951216130614061F
:10251000551FF2CF4695F1DF08C0161617061806AC
:10252000991FF1CF86957105610508940895E89487
:10253000BB2766277727CB0197F908958ADF08F430
:102540008FEF08950BD0C0CFB1DF28F0B6DF18F0C1
:10255000952309F0A2CFA7CF1124EACFC6DFA0F3BD
:10256000959FD1F3950F50E0551F629FF001729F28
:10257000BB27F00DB11D639FAA27F00DB11DAA1F47
:10258000649F6627B00DA11D661F829F2227B00D94
:10259000A11D621F739FB00DA11D621F839FA00D1F
:1025A000611D221F749F3327A00D611D231F849F6F
:1025B000600D211D822F762F6A2F11249F575040C6
:1025C0008AF0E1F088234AF0EE0FFF1FBB1F661F61
:1025D000771F881F91505040A9F79E3F510570F01A
:1025E0005CCFA6CF5F3FECF3983EDCF38695779502
:1025F0006795B795F795E7959F5FC1F7FE2B880F15
:10260000911D9695879597F90895AA1BBB1B51E1DB
:1026100007C0AA1FBB1FA617B70710F0A61BB70B52
:10262000881F991F5A95A9F780959095BC01CD01F7
:10263000089597FB072E16F4009407D077FD09D074
:102640000E94051307FC05D03EF4909581959F4F9D
:102650000895709561957F4F08952F923F924F9204
:102660005F926F927F928F929F92AF92BF92CF9222
:10267000DF92EF92FF920F931F93CF93DF93CDB72B
:10268000DEB7CA1BDB0B0FB6F894DEBF0FBECDBFA3
:1026900009942A88398848885F846E847D848C8474
:1026A0009B84AA84B984C884DF80EE80FD800C817D
:1026B0001B81AA81B981CE0FD11D0FB6F894DEBF60
:1026C0000FBECDBFED010895283008F027E0332775
:1026D000DA01990F311D87FD916000966105710542
:1026E00039F432602E5F3D9330E32A95E1F7089587
:1026F0009F3F30F080387105610509F03C5F3C5F19
:102700003D93913008F08068911DDF93CF931F9324
:102710000F93FF92EF92192F987F9695E92F969538
:102720009695E90FFF27E155F54F99273327EE24BA
:10273000FF24A701E70105900894079428F4360FB9
:10274000E71EF81E491F511D660F771F881F991F2E
:102750000694A1F70590079428F4E70EF81E491F88
:10276000561FC11D770F881F991F661F0694A1F77A
:102770000590079428F4F80E491F561FC71FD11D56
:10278000880F991F661F771F0694A1F7059007947D
:1027900020F4490F561FC71FD81F990F661F771FB8
:1027A000881F0694A9F784911095177041F0D6956B
:1027B000C79557954795F794E7941A95C1F7E5E5BE
:1027C000FAE0689415901591359165919591059071
:1027D0007FE27395E118F10A430B560BC90BD00940
:1027E000C0F7E10CF11E431F561FC91FD01D7EF418
:1027F000703311F48A95E6CFE894015030F0080F59
:102800000AF40027021708F4202F2395022F7A33A9
:1028100028F079E37D932A95E9F710C07D932A95F6
:1028200089F6069497956795379517951794E1184B
:10283000F10A430B560BC90BD00998F023957E91F2
:1028400073957A3308F070E37C932013B8F77E9188
:1028500070617D9330F0839571E37D9370E32A95E9
:10286000E1F71124EF90FF900F911F91CF91DF912D
:10287000992787FD90950895FB01DC0102C0059022
:102880000D9241505040D8F70895FC0105906150D9
:1028900070400110D8F7809590958E0F9F1F089576
:1028A000FC016150704001900110D8F7809590951F
:1028B0008E0F9F1F08950F931F93CF93DF93182FB1
:1028C000092FEB018B8181FD03C08FEF9FEF20C0AB
:1028D00082FF10C04E815F812C813D8142175307DA
:1028E0007CF4E881F9819F012F5F3F4F3983288372
:1028F000108306C0E885F985812F0995892B29F772
:102900002E813F812F5F3F4F3F832E83812F902F5A
:10291000DF91CF911F910F910895A0E0B0E0E3E91E
:10292000F4E10C943D13FE01359661917191AF0174
:102930008091B8009091B9000E94B10DE2E00C9432
:102940005913FA01AA27283051F1203181F1E89476
:102950006F936E7F6E5F7F4F8F4F9F4FAF4FB1E092
:102960003ED0B4E03CD0670F781F891F9A1FA11D8D
:10297000680F791F8A1F911DA11D6A0F711D811D8E
:10298000911DA11D20D009F468943F912AE0269F53
:1029900011243019305D3193DEF6CF010895462FB2
:1029A0004770405D4193B3E00FD0C9F7F6CF462F93
:1029B0004F70405D4A3318F0495D31FD40524193FC
:1029C00002D0A9F7EACFB4E0A695979587957795B9
:1029D0006795BA95C9F700976105710508959B0140
:1029E000AC010A2E06945795479537952795BA95C9
:1029F000C9F7620F731F841F951FA01D0895E199E9
:102A0000FECF9FBB8EBBE09A99278DB30895262FEA
:102A1000E199FECF9FBB8EBB2DBB0FB6F894E29A17
:0C2A2000E19A0FBE01960895F894FFCFD4
:102A2C00FF0000000200000000A9070000000025C4
:102A3C0031302E3366487A00202535754D487A00A2
:0C2A4C002533750025382E3266487A00CC
:00000001FF
