:100000000C94C2000C9425030C9430030C94DF0074
:100010000C94F4050C94DF000C94DF000C94DF00CA
:100020000C94DF000C94DF000C94DF000C94DF00D4
:100030000C94DF000C94DF000C94DF000C94DF00C4
:100040000C94DF000C94DF000C943B030C94DF0055
:100050000C94DF002020202052616E646F6D002020
:1000600020202020202020202020202020202000B0
:100070004F4646004F4E20002020204F6666204C01
:100080006576656C202020200020202020205377DA
:10009000656570202020202020002020202050573F
:1000A0004D20284853292020202000202020486966
:1000B0006768205370656564202020002020202080
:1000C000204E6F69736520202020202000202020F2
:1000D0002046726571205374657020202000202016
:1000E00020202020454347202020202020200020C1
:1000F0002052657620536177546F6F74682020001A
:1001000020202020536177546F6F746820202020B6
:100110000020202020547269616E676C65202020C9
:10012000200020202020205371756172652020203E
:1001300020200020202020202053696E65202020D0
:1001400020202000001F000000001F00001F1010D2
:1001500010101F00001F181818181F00001F1C1C6B
:100160001C1C1F00001F1E1E1E1E1F00001F1F1F25
:100170001F1F1F0003070F1F0F070300181C1E1F60
:100180001E1C180011241FBECFE5D4E0DEBFCDBF7A
:1001900011E0A0E6B0E0ECEFFBE102C005900D92AB
:1001A000A037B107D9F712E0A0E7B1E001C01D9276
:1001B000AB39B107E1F70E9414090C94FC0D0C94C3
:1001C0000000089561E080E00E94E50741E060E002
:1001D00084E590E00E94F30780917F01882319F065
:1001E00084E790E002C080E790E041E06DE00C948D
:1001F000F30761E080E00E94E50780917B01909128
:100200007C01A0917D01B0917E01BF93AF939F933C
:100210008F938DE491E09F938F930E94FD0A8091CC
:100220007F010F900F900F900F900F900F908823E9
:1002300019F084E790E002C080E790E041E06DE0D3
:100240000C94F30740917B0150917C0160917D01FA
:1002500070917E018091810190918201A091830132
:10026000B0918401481759076A077B07E8F080912D
:100270007B0190917C01A0917D01B0917E01409124
:100280008101509182016091830170918401841BEE
:10029000950BA60BB70B80937B0190937C01A093E9
:1002A0007D01B0937E0108C010927B0110927C0109
:1002B00010927D0110927E010C94F900CF92DF9292
:1002C000EF92FF920F931F9300917B0110917C019D
:1002D00020917D0130917E014091810150918201F8
:1002E000609183017091840180EA96E8A1E0B0E01A
:1002F0006C017D01C01AD10AE20AF30AC416D506C0
:10030000E606F706A0F040917B0150917C016091D8
:100310007D0170917E018091810190918201A09177
:100320008301B0918401840F951FA61FB71F80938E
:100330007B0190937C01A0937D01B0937E011F917E
:100340000F91FF90EF90DF90CF900C94F90061E057
:1003500080E00E94E5078091810190918201A09147
:100360008301B09184019F938F9384E591E09F93E3
:100370008F930E94FD0A0F900F900F900F90089599
:100380008091810190918201A0918301B0918401BB
:100390000197A105B10569F480E197E2A0E0B0E022
:1003A0008093810190938201A0938301B093840193
:1003B00016C06091810170918201809183019091BA
:1003C00084012AE030E040E050E00E946E0A209371
:1003D00081013093820140938301509384010C94F6
:1003E000A7018091810190918201A0918301B09138
:1003F000840180319742A105B10569F481E090E064
:10040000A0E0B0E08093810190938201A0938301EA
:10041000B093840114C020918101309182014091F8
:10042000830150918401AAE0B0E00E943B0A6093EE
:1004300081017093820180938301909384010C94D5
:10044000A70161E080E00E94E507809180011F9292
:100450008F938EE591E09F938F930E94FD0A809188
:100460007F010F900F900F900F90882319F084E771
:1004700090E002C080E790E041E06DE00C94F3076B
:1004800061E080E00E94E50720918701809185016D
:10049000909186011F922F939F938F9386E691E010
:1004A0009F938F930E94FD0A80917F010F900F9080
:1004B0000F900F900F900F90882319F084E790E031
:1004C00002C080E790E041E06DE00C94F30761E04A
:1004D00080E00E94E507809188011F928F938CE64F
:1004E00091E09F938F930E94FD0A0F900F900F90C1
:1004F0000F90089580918801882329F080918801C8
:10050000815080938801809188018BBB0C94670295
:10051000809188018F3F29F0809188018F5F8093BF
:100520008801809188018BBB0C9467020E9472073E
:1005300080E090E0089580917F01811129C0809131
:10054000850190918601803D23E09207B9F048F43F
:100550008D33910581F0843F910541F58DE390E065
:1005600012C085382EE1920761F08432944FF1F485
:1005700085E89EE108C084E294EF05C084EF90E036
:1005800002C080ED93E090938601809385010EC0B8
:1005900080918701882329F0809187018150809381
:1005A00087018091870190E09BBD8ABD0C94400239
:1005B00080917F01811129C08091850190918601F0
:1005C000803D23E09207B9F048F48D33910581F026
:1005D000843F910541F580ED93E012C085382EE10E
:1005E000920761F08432944FF1F48DE390E008C0FB
:1005F00084EF90E005C085E89EE102C084E294EFBC
:1006000090938601809385010EC0809187018F3F72
:1006100029F0809187018F5F809387018091870106
:1006200090E09BBD8ABD0C94400214BC089585B532
:10063000866085BD89B7806489BF089583B7897F47
:1006400083BF89B78F7B89BF08951F920F920FB622
:100650000F9211246A9A0F900FBE0F901F90189559
:100660001F920F920FB60F9211246A9A0F900FBE2D
:100670000F901F9018951F920F920FB60F92112492
:100680006A9A0F900FBE0F901F901895809171017C
:1006900090917201AC014F5F5F4F50937201409394
:1006A0007101849B0CC0839B0CC0809B0CC0819B00
:1006B0000CC0829B0CC0B2990CC066E00BC061E01C
:1006C00009C062E007C063E005C064E003C065E004
:1006D00001C060E020917701261759F0611119C01F
:1006E0002091730130917401241B350B37FF22C018
:1006F00010C0209177012223E9F0209175013091FB
:100700007601241B350B37FF15C01092780109962E
:100710000DC09C012B5E3F4F3093740120937301F9
:1007200060937701109278018B599F4F90937601D7
:100730008093750108950C94E30C0F931F93CF934E
:10074000DF931F92CDB7DEB78C0169830E94E30C63
:100750006981861741F0C8010F90DF91CF911F91F9
:100760000F910C94EB0C0F90DF91CF911F910F9193
:100770000895CF93DF936091700180E090E00E9434
:100780009D03CBE7D1E0688179818A819B8181E0FB
:1007900090E00E949D0388819981AA81BB81692F85
:1007A0007A2F8B2F992782E090E00E949D03888109
:1007B0009981AA81BB81BD018827992783E090E0B8
:1007C0000E949D03C1E8D1E0688179818A819B8183
:1007D00084E090E00E949D0388819981AA81BB8179
:1007E000692F7A2F8B2F992785E090E00E949D0337
:1007F0006091800186E090E00E949D03C5E8D1E011
:100800006881798187E090E00E949D0388819981C9
:10081000692F88E090E00E949D036091870189E044
:1008200090E00E949D03609188018AE090E0DF9152
:10083000CF910C949D031092700188EE93E0A0E09C
:10084000B0E080937B0190937C01A0937D01B093F5
:100850007E0184E690E0A0E0B0E080938101909377
:100860008201A0938301B093840181E08093800191
:1008700084E294EF909386018093850180E88093D1
:100880008701809388010E94B90364E58FEF91E0AE
:100890000C94EB0CCF93DF938FEF91E00E94E30C6D
:1008A000843511F00E941B0480E090E00E94E30C6C
:1008B0008093700181E090E00E94E30CC82F82E0F9
:1008C00090E00E94E30CD82F83E090E00E94E30CBC
:1008D000482F50E060E070E0BA01552744275D2BB7
:1008E0004C2B40937B0150937C0160937D0170936E
:1008F0007E0184E090E00E94E30CC82F85E090E048
:100900000E94E30C4C2F50E060E070E0582B4093C5
:10091000810150938201609383017093840186E08A
:1009200090E00E94E30C8093800187E090E00E94B9
:10093000E30CC82F88E090E00E94E30C2C2F30E0FD
:10094000382B309386012093850189E090E00E9446
:10095000E30C809387018AE090E00E94E30C80938F
:100960008801DF91CF910895E091700181E1E89FC6
:10097000F0011124ED55FF4FF0937A01E0937901D6
:100980008CE03596A9E8B2E001900D928A95E1F7E6
:100990000E94C007E0917901F0917A0140E060E0A7
:1009A000808191810E94F307E0917901F0917A01B1
:1009B0000380F481E02D099480917F0181110BC0A7
:1009C00080917001811102C089E001C08150809343
:1009D00070010C94B404089580917F0181110CC0C2
:1009E000809170018F5F8A3019F08093700102C08E
:1009F000109270010C94B40408958FEF80936000FE
:100A00000C94B404E091600081E1E89FF0011124AE
:100A1000EF57FF4FF0937A01E09379018CE0359620
:100A2000A9E8B2E001900D928A95E1F70E94C00713
:100A3000E0917901F0917A0140E060E0808191815C
:100A40000E94F307E0917901F0917A010380F4812B
:100A5000E02D099480917F01811104C01092600003
:100A60000C940205089580917F0181110BC0809143
:100A70006000811102C081E001C08150809360005C
:100A80000C940205089580917F0181110CC0809122
:100A900060008F5F823019F08093600002C0109276
:100AA00060000C9402050895809177018111FCCFBC
:100AB0008BB7806E8BBF0C941E038BB78F718BBF6F
:100AC0000C9417030E94B90381E080937F01E091A9
:100AD0007901F0917A010380F481E02D09950C945D
:100AE00054050E945D0510927F01809188018BBBA7
:100AF000E0917901F0917A010380F481E02D09956C
:100B0000809177018111FCCF08950F931F930E946C
:100B1000B90381E080937F01E0917901F0917A013E
:100B20000380F481E02D09950E94540560917B01BA
:100B300070917C0180917D0190917E010E94AD09B0
:100B400020E030E543EC5DE30E9419090E94810931
:100B50006A98E0917901F0917A01E281F0E0EE0F7C
:100B6000FF1FEF59FF4F0190F081E02D50E040E072
:100B700091E0222733270BE010E0260F371FE81FF4
:100B800019F0C8950BBAF9CF690F741F851F81172B
:100B900009F4E39580176A9B81F710927F011F91FA
:100BA0000F910C947105CF93DF93C9E8D1E00E94B7
:100BB000ED0A899382E0C938D807C9F7DF91CF9150
:100BC00008950E9462056A980E94D30580E09DB155
:100BD000911108C0E82FF0E0E757FE4F90819BBBD2
:100BE0008F5FF5CF0C9471051F920F920FB60F9285
:100BF00011242F933F934F935F936F937F938F9322
:100C00009F93AF93BF93EF93FF930E944603FF918F
:100C1000EF91BF91AF919F918F917F916F915F9174
:100C20004F913F912F910F900FBE0F901F901895ED
:100C3000843039F0883041F0823049F483E090E02C
:100C400008C081E090E005C01BBC1ABC04C087E06E
:100C500090E09BBD8ABD80E48FBD89E08EBD089584
:100C600080917F01882321F0809180010C941806E7
:100C7000089580918001813011F488E003C0809153
:100C800080018695809380010E9421020C94300699
:100C900080918001883011F481E003C0809180014F
:100CA000880F809380010E9421020C943006843FBB
:100CB000910591F020F4CD9769F485E00EC0803D58
:100CC00023E0920729F085389E4121F482E005C097
:100CD00083E003C081E001C084E091E89FBD8860AB
:100CE0008EBD08951EBC08958FE690E09093980203
:100CF000809397020E9430080E94C0070E94AA08B1
:100D00000E944A0410927F01809188018BBB8FEF73
:100D10008ABB81B3807E81BB82B38F6182BBBA986C
:100D200084E088BB8D9A14BC0E945D050E94B404C7
:100D30007894089580917801811131C08091770174
:100D400091E0909378018330B1F028F4813049F03C
:100D5000823061F008958530C1F090F08630D1F096
:100D60000895E0918902F0918A0218C0E0918F0203
:100D7000F091900213C0E0918B02F0918C020EC0B2
:100D8000E0918D02F0918E0209C0E0919102F09104
:100D9000920204C0E0919302F091940209940895A4
:100DA00080917F01882309F438C060917B017091A4
:100DB0007C0180917D0190917E010E94AD0920E02F
:100DC00030E543EC5DE30E9419090E9481096A98AD
:100DD000E0917901F0917A01E281F0E0EE0FFF1FDE
:100DE000ED59FF4F0190F081E02D22273327260F88
:100DF000371FE81FC8950BBA6A9BF9CF809188010D
:100E00008BBB0E945D0580917701882319F00E94B9
:100E10009A06F9CF0E945405C3CF089580917F01AF
:100E2000811106C00E9462050E94D0060C947105D3
:100E300010927F01089580917F01882329F01092FC
:100E40007F011EBC959808950E94B90381E08093AC
:100E50007F01E0917901F0917A010380F481E02D26
:100E600009950E94300680917F01882319F00E9425
:100E70009A06F9CFE0917901F0917A010380F4812B
:100E8000E02D099480917F01882329F010927F0141
:100E90001EBC959808950E94B90381E080937F015C
:100EA000E0917901F0917A010380F481E02D0995B8
:100EB0008091870190E09BBD8ABD809185019091D2
:100EC00086010E94570680917F01882319F00E94B5
:100ED0009A06F9CFE0917901F0917A010380F481CB
:100EE000E02D0994982F907F95BBA89AAA9AEFE9D4
:100EF000FFE03197F1F700C00000AA98A898EFE949
:100F0000FFE03197F1F700C00000F0E18F9FC001D2
:100F1000112485BBA89AAA9A8FE99FE00197F1F75F
:100F200000C00000AA98A898EFE9FFE03197F1F718
:100F300000C000000895982F907F95BBAA9AEFE912
:100F4000FFE03197F1F700C00000AA98EFE9FFE059
:100F50003197F1F700C00000F0E18F9FC00111242C
:100F600085BBAA9A8FE99FE00197F1F700C00000C6
:100F7000AA98EFE9FFE03197F1F700C0000008956B
:100F800081E00C949B0782E00C949B07EF92FF9208
:100F90001F93CF93DF931F92CDB7DEB7009771F009
:100FA000182F7C018E2D811B861740F4F70181914B
:100FB0007F0169830E9472076981F4CF0F90DF91EE
:100FC000CF911F91FF90EF900895623031F0633020
:100FD00031F0613029F4805C03C08C5E01C08C5A12
:100FE00080680C949B071F93CF93DF93EC01862FAF
:100FF000642F0E94E50710E0FE01E10FF11D8491CE
:10100000882321F00E9472071F5FF6CFDF91CF91F6
:101010001F910895EF92FF920F931F93CF93DF9349
:101020008C0188E0689FB0011124862F8064E82E2F
:10103000C0E0D0E0F801EC0FFD1FF4908C2F8E0D76
:101040000E949B078F2D0E9472072196C830D10500
:1010500089F7DF91CF911F910F91FF90EF90089545
:101060001F93CF93DF938FE59AEE0197F1F700C0BE
:10107000000015BA15BA84B3806F84BB84B387604F
:1010800084BB80E385BBAA9A8FE99FE00197F1F7C3
:1010900000C00000AA988FE99FE00197F1F700C017
:1010A000000080E385BBAA9A8FE99FE00197F1F7E2
:1010B00000C00000AA988FE99FE00197F1F700C0F7
:1010C000000080E285BBAA9A8FE99FE00197F1F7C3
:1010D00000C00000AA988FE99FE00197F1F700C0D7
:1010E000000088E20E949B078CE00E949B07C4E4FA
:1010F000D1E060E011E0160FCE010E940A082896A8
:10110000183011F0612FF6CFDF91CF911F91089524
:10111000CF93DF93D82FC0E0CD1729F08EE10E9446
:101120009B07CF5FF9CFDF91CF910895CF93DF93E6
:10113000D82FC0E0CD1729F088E10E949B07CF5F30
:10114000F9CFDF91CF9108958EE00C949B078FE04B
:101150000C949B078CE00C949B0788E00C949B07F5
:101160008CE00C949B07CF93DF93D82FC0E0CD1772
:1011700029F080E10E949B07CF5FF9CFDF91CF91EB
:101180000895CF93DF93D82FC0E0CD1729F084E1E5
:101190000E949B07CF5FF9CFDF91CF910895CF9247
:1011A000DF92EF92FF920F931F93CF93DF931F92E3
:1011B000CDB7DEB756E0459F90011124E82FE29F9E
:1011C000C001E39F900D112470E00E945A0A8B0128
:1011D000CB0166E070E00E94460AE82EC12CD12CBB
:1011E000F12CF416B9F096012B5F3F4F021713074D
:1011F00028F40C151D0520F08E2D03C085E001C0DC
:1012000080E049830E947207F394F6E0CF0ED11C70
:101210004981E7CF0F90DF91CF911F910F91FF9000
:10122000EF90DF90CF9008950E9474060E949A0676
:10123000FDCF0CD0E6C0DED040F0D5D030F021F4A8
:101240005F3F19F0C7C0511110C1CAC0EBD098F36D
:101250009923C9F35523B1F3951B550BBB27AA2737
:1012600062177307840738F09F5F5F4F220F331FA9
:10127000441FAA1FA9F333D00E2E3AF0E0E830D075
:1012800091505040E695001CCAF729D0FE2F27D078
:10129000660F771F881FBB1F261737074807AB0746
:1012A000B0E809F0BB0B802DBF01FF2793585F4FBB
:1012B0002AF09E3F510568F08DC0D7C05F3FECF328
:1012C000983EDCF3869577956795B795F7959F5F80
:1012D000C9F7880F911D9695879597F90895E1E0D4
:1012E000660F771F881FBB1F621773078407BA0733
:1012F00020F0621B730B840BBA0BEE1F88F7E0958E
:10130000089598D088F09F5790F0B92F9927B7513A
:10131000A0F0D1F0660F771F881F991F1AF0BA95B9
:10132000C9F712C0B13081F09FD0B1E008959CC0E0
:10133000672F782F8827B85F39F0B93FCCF38695AF
:1013400077956795B395D9F73EF49095809570950C
:1013500061957F4F8F4F9F4F0895E89409C097FB89
:101360003EF490958095709561957F4F8F4F9F4F7C
:101370009923A9F0F92F96E9BB279395F6958795C0
:1013800077956795B795F111F8CFFAF4BB0F11F483
:1013900060FF1BC06F5F7F4F8F4F9F4F16C088232A
:1013A00011F096E911C0772321F09EE8872F762F60
:1013B00005C0662371F096E8862F70E060E02AF0A1
:1013C0009A95660F771F881FDAF7880F969587958D
:1013D00097F9089597F99F6780E870E060E00895B5
:1013E0009FEF80EC089500240A941616170618063D
:1013F0000906089500240A94121613061406050619
:101400000895092E0394000C11F4882352F0BB0FA9
:1014100040F4BF2B11F460FF04C06F5F7F4F8F4F0C
:101420009F4F089557FD9058440F551F59F05F3F47
:1014300071F04795880F97FB991F61F09F3F79F0F6
:1014400087950895121613061406551FF2CF469578
:10145000F1DF08C0161617061806991FF1CF8695FA
:101460007105610508940895E894BB2766277727DE
:10147000CB0197F908950E94900AA59F900DB49F03
:10148000900DA49F800D911D11240895AA1BBB1BD4
:1014900051E107C0AA1FBB1FA617B70710F0A61B74
:1014A000B70B881F991F5A95A9F780959095BC0195
:1014B000CD01089597FB072E16F4009407D077FD11
:1014C00009D00E94460A07FC05D03EF4909581950C
:1014D0009F4F0895709561957F4F0895A1E21A2E50
:1014E000AA1BBB1BFD010DC0AA1FBB1FEE1FFF1FC8
:1014F000A217B307E407F50720F0A21BB30BE40B18
:10150000F50B661F771F881F991F1A9469F760955E
:101510007095809590959B01AC01BD01CF01089518
:10152000A29FB001B39FC001A39F700D811D112424
:10153000911DB29F700D811D1124911D08958F92F0
:101540009F92AF92BF92CF92DF92EF92FF92CF9392
:10155000DF93EC01688179818A819B816115710536
:101560008105910521F464E279ED8BE597E02DE1A9
:1015700033EF41E050E00E94A60D49015A019B0162
:10158000AC01A7EAB1E40E943B0A6B017C01ACEE1E
:10159000B4EFA50194010E94A10DC60ED71EE81E4E
:1015A000F91EF7FE06C081E0C81AD108E10880E8FC
:1015B000F80AC882D982EA82FB82C6019F77DF914E
:1015C000CF91FF90EF90DF90CF90BF90AF909F9022
:1015D0008F9008950E949F0A08958DE790E00E94E1
:1015E0009F0A0895A0E0B0E080937D0090937E0074
:1015F000A0937F00B09380000895A0E0B0E0E3E006
:10160000FBE00C94D50DFE01359661917191AF010F
:1016100080919702909198020E94110BE2E00C9445
:10162000F10DACE0B0E0E7E1FBE00C94C50D7C010E
:101630006B018A01FC0117821682838181FFBDC183
:10164000CE0101964C01F7019381F60193FD85913E
:1016500093FF81916F01882309F4ABC1853239F47E
:1016600093FD859193FF81916F01853229F4B70134
:1016700090E00E940E0DE7CF512C312C20E020325B
:10168000A0F48B3269F030F4803259F0833269F47F
:1016900020612CC08D3239F0803339F4216026C0AE
:1016A0002260246023C0286021C027FD27C030EDC0
:1016B000380F3A3078F426FF06C0FAE05F9E300D0E
:1016C0001124532E13C08AE0389E300D1124332E7E
:1016D00020620CC08E3221F426FD6BC1206406C04E
:1016E0008C3611F4206802C0883641F4F60193FD6F
:1016F000859193FF81916F018111C1CF982F9F7DBB
:101700009554933028F40C5F1F4FFFE3F9830DC00D
:10171000833631F0833771F0833509F05BC022C026
:10172000F801808189830E5F1F4F44244394512C1C
:10173000540115C03801F2E06F0E711CF801A08051
:10174000B18026FF03C0652D70E002C06FEF7FEF10
:10175000C5012C870E94030D2C0183012C852F7756
:10176000222E17C03801F2E06F0E711CF801A08024
:10177000B18026FF03C0652D70E002C06FEF7FEFE0
:10178000C5012C870E94F80C2C012C852068222E84
:10179000830123FC1BC0832D90E048165906B0F44A
:1017A000B70180E290E00E940E0D3A94F4CFF5016B
:1017B00027FC859127FE81915F01B70190E00E948F
:1017C0000E0D31103A94F1E04F1A510841145104B2
:1017D00071F7E5C0843611F0893639F5F80127FF35
:1017E00007C060817181828193810C5F1F4F08C0A7
:1017F00060817181882777FD8095982F0E5F1F4F3C
:101800002F76B22E97FF09C09095809570956195BF
:101810007F4F8F4F9F4F2068B22E2AE030E0A40107
:101820000E94400DA82EA81844C0853729F42F7EA9
:10183000B22E2AE030E025C0F22FF97FBF2E8F367E
:10184000C1F018F4883579F0B4C0803719F08837C2
:1018500021F0AFC02F2F2061B22EB4FE0DC08B2D12
:101860008460B82E09C024FF0AC09F2F9660B92E4D
:1018700006C028E030E005C020E130E002C020E1F1
:1018800032E0F801B7FE07C06081718182819381E7
:101890000C5F1F4F06C06081718180E090E00E5F99
:1018A0001F4FA4010E94400DA82EA818FB2DFF7702
:1018B000BF2EB6FE0BC02B2D2E7FA51450F4B4FE08
:1018C0000AC0B2FC08C02B2D2E7E05C07A2C2B2D11
:1018D00003C07A2C01C0752C24FF0DC0FE01EA0D57
:1018E000F11D8081803311F4297E09C022FF06C0DA
:1018F0007394739404C0822F867809F0739423FD47
:1019000013C020FF06C05A2C731418F4530C571838
:10191000732C731468F4B70180E290E02C870E9466
:101920000E0D73942C85F5CF731410F4371801C085
:10193000312C24FF12C0B70180E390E02C870E9475
:101940000E0D2C8522FF17C021FF03C088E590E013
:1019500002C088E790E0B7010CC0822F867859F06A
:1019600021FD02C080E201C08BE227FD8DE2B701BC
:1019700090E00E940E0DA51438F4B70180E390E0CA
:101980000E940E0D5A94F7CFAA94F401EA0DF11DAE
:101990008081B70190E00E940E0DA110F5CF332099
:1019A00009F451CEB70180E290E00E940E0D3A9406
:1019B000F6CFF7018681978102C08FEF9FEF2C96BB
:1019C000E2E10C94E10DE199FECF9FBB8EBBE09A62
:1019D00099278DB30895262FE199FECF9FBB8EBB2B
:1019E0002DBB0FB6F894E29AE19A0FBE01960895C6
:1019F000FC010590615070400110D8F780959095DA
:101A00008E0F9F1F0895FC016150704001900110DE
:101A1000D8F7809590958E0F9F1F08950F931F9371
:101A2000CF93DF93182F092FEB018B8181FD03C02A
:101A30008FEF9FEF20C082FF10C04E815F812C810D
:101A40003D81421753077CF4E881F9819F012F5FA4
:101A50003F4F39832883108306C0E885F985812F9D
:101A60000995892B29F72E813F812F5F3F4F3F83B7
:101A70002E83812F902FDF91CF911F910F91089589
:101A8000FA01AA27283051F1203181F1E8946F93AF
:101A90006E7F6E5F7F4F8F4F9F4FAF4FB1E03ED055
:101AA000B4E03CD0670F781F891F9A1FA11D680FF3
:101AB000791F8A1F911DA11D6A0F711D811D911D26
:101AC000A11D20D009F468943F912AE0269F11249B
:101AD0003019305D3193DEF6CF010895462F4770FF
:101AE000405D4193B3E00FD0C9F7F6CF462F4F705A
:101AF000405D4A3318F0495D31FD4052419302D0B8
:101B0000A9F7EACFB4E0A69597958795779567955D
:101B1000BA95C9F700976105710508959B01AC015D
:101B20000A2E06945795479537952795BA95C9F784
:101B3000620F731F841F951FA01D0895B7FF0C949B
:101B40003B0A0E943B0A821B930B0895052E97FBCC
:101B50001EF400940E94BD0D57FD07D00E946E0A2E
:101B600007FC03D04EF40C94BD0D50954095309574
:101B700021953F4F4F4F5F4F0895909580957095F9
:101B800061957F4F8F4F9F4F08952F923F924F92B5
:101B90005F926F927F928F929F92AF92BF92CF92FD
:101BA000DF92EF92FF920F931F93CF93DF93CDB706
:101BB000DEB7CA1BDB0B0FB6F894DEBF0FBECDBF7E
:101BC00009942A88398848885F846E847D848C844F
:101BD0009B84AA84B984C884DF80EE80FD800C8158
:101BE0001B81AA81B981CE0FD11D0FB6F894DEBF3B
:0C1BF0000FBECDBFED010895F894FFCFAB
:101BFC00FF003F0039003A003D003B003C003E0036
:101C0C00000002000000009602000000000100002D
:101C1C0000CD0000A70133054305C001F101FD040F
:101C2C00FD047800006702330543057A028802FD43
:101C3C0004FD04330100F900DC04EC0422015E0114
:101C4C000E072A05220101F900DC04EC0422015ED6
:101C5C00010E072A05110102F900DC04EC04220133
:101C6C005E010E072A05000103F900DC04EC0422D6
:101C7C00015E010E072A05EF0004F900DC04EC04F8
:101C8C0022015E010E072A05DE0005F900DC04ECDA
:101C9C000422015E010E072A05BC0000E200DC04F0
:101CAC00EC04E100E100E1052A05AB00002102DCB7
:101CBC0004EC04390648061B072A059A000040026A
:101CCC00DC04EC049B02D80242072A05890000F9C7
:101CDC0000DC04EC0422015E0185052A0525366C26
:101CEC0075487A0020202020253575487A0020255B
:101CFC0035754D487A00253575487A2025337500A1
:10390000808386898C8F9295989C9FA2A5A8ABAE48
:10391000B0B3B6B9BCBFC1C4C7C9CCCED1D3D5D85A
:10392000DADCDEE0E2E4E6E8EAECEDEFF0F2F3F513
:10393000F6F7F8F9FAFBFCFCFDFEFEFFFFFFFFFFC8
:10394000FFFFFFFFFFFFFEFEFDFCFCFBFAF9F8F7AF
:10395000F6F5F3F2F0EFEDECEAE8E6E4E2E0DEDCC7
:10396000DAD8D5D3D1CECCC9C7C4C1BFBCB9B6B3E0
:10397000B0AEABA8A5A29F9C9895928F8C898683A8
:10398000807C797673706D6A6763605D5A575451B5
:103990004F4C494643403E3B383633312E2C2A2784
:1039A0002523211F1D1B1917151312100F0D0C0AAB
:1039B00009080706050403030201010000000000D6
:1039C00000000000000001010203030405060708CF
:1039D000090A0C0D0F1012131517191B1D1F212397
:1039E00025272A2C2E313336383B3E404346494C5E
:1039F0004F5154575A5D6063676A6D707376797C76
:103A000000000000000000000000000000000000B6
:103A100000000000000000000000000000000000A6
:103A20000000000000000000000000000000000096
:103A30000000000000000000000000000000000086
:103A40000000000000000000000000000000000076
:103A50000000000000000000000000000000000066
:103A60000000000000000000000000000000000056
:103A70000000000000000000000000000000000046
:103A8000FFFFFFFFFFFFFFFFFFFFFFFFFFFFFFFF46
:103A9000FFFFFFFFFFFFFFFFFFFFFFFFFFFFFFFF36
:103AA000FFFFFFFFFFFFFFFFFFFFFFFFFFFFFFFF26
:103AB000FFFFFFFFFFFFFFFFFFFFFFFFFFFFFFFF16
:103AC000FFFFFFFFFFFFFFFFFFFFFFFFFFFFFFFF06
:103AD000FFFFFFFFFFFFFFFFFFFFFFFFFFFFFFFFF6
:103AE000FFFFFFFFFFFFFFFFFFFFFFFFFFFFFFFFE6
:103AF000FFFFFFFFFFFFFFFFFFFFFFFFFFFFFFFFD6
:103B0000000102030405060708090A0B0C0D0E0F3D
:103B1000101112131415161718191A1B1C1D1E1F2D
:103B2000202122232425262728292A2B2C2D2E2F1D
:103B3000303132333435363738393A3B3C3D3E3F0D
:103B4000404142434445464748494A4B4C4D4E4FFD
:103B5000505152535455565758595A5B5C5D5E5FED
:103B6000606162636465666768696A6B6C6D6E6FDD
:103B7000707172737475767778797A7B7C7D7E7FCD
:103B8000808182838485868788898A8B8C8D8E8FBD
:103B9000909192939495969798999A9B9C9D9E9FAD
:103BA000A0A1A2A3A4A5A6A7A8A9AAABACADAEAF9D
:103BB000B0B1B2B3B4B5B6B7B8B9BABBBCBDBEBF8D
:103BC000C0C1C2C3C4C5C6C7C8C9CACBCCCDCECF7D
:103BD000D0D1D2D3D4D5D6D7D8D9DADBDCDDDEDF6D
:103BE000E0E1E2E3E4E5E6E7E8E9EAEBECEDEEEF5D
:103BF000F0F1F2F3F4F5F6F7F8F9FAFBFCFDFEFF4D
:103C0000FFFEFDFCFBFAF9F8F7F6F5F4F3F2F1F03C
:103C1000EFEEEDECEBEAE9E8E7E6E5E4E3E2E1E02C
:103C2000DFDEDDDCDBDAD9D8D7D6D5D4D3D2D1D01C
:103C3000CFCECDCCCBCAC9C8C7C6C5C4C3C2C1C00C
:103C4000BFBEBDBCBBBAB9B8B7B6B5B4B3B2B1B0FC
:103C5000AFAEADACABAAA9A8A7A6A5A4A3A2A1A0EC
:103C60009F9E9D9C9B9A99989796959493929190DC
:103C70008F8E8D8C8B8A89888786858483828180CC
:103C80007F7E7D7C7B7A79787776757473727170BC
:103C90006F6E6D6C6B6A69686766656463626160AC
:103CA0005F5E5D5C5B5A595857565554535251509C
:103CB0004F4E4D4C4B4A494847464544434241408C
:103CC0003F3E3D3C3B3A393837363534333231307C
:103CD0002F2E2D2C2B2A292827262524232221206C
:103CE0001F1E1D1C1B1A191817161514131211105C
:103CF0000F0E0D0C0B0A090807060504030201004C
:103D000000020406080A0C0E10121416181A1C1EC3
:103D100020222426282A2C2E30323436383A3C3EB3
:103D200040424446484A4C4E50525456585A5C5EA3
:103D300060626466686A6C6E70727476787A7C7E93
:103D400080828486888A8C8E90929496989A9C9E83
:103D5000A0A2A4A6A8AAACAEB0B2B4B6B8BABCBE73
:103D6000C0C2C4C6C8CACCCED0D2D4D6D8DADCDE63
:103D7000E0E2E4E6E8EAECEEF0F2F4F6F8FAFCFE53
:103D8000FFFDFBF9F7F5F3F1EFEFEBE9E7E5E3E131
:103D9000DFDDDBD9D7D5D3D1CFCFCBC9C7C5C3C121
:103DA000BFBDBBB9B7B5B3B1AFAFABA9A7A5A3A111
:103DB0009F9D9B99979593918F8F8B898785838101
:103DC0007F7D7B79777573716F6F6B6967656361F1
:103DD0005F5D5B59575553514F4F4B4947454341E1
:103DE0003F3D3B39373533312F2F2B2927252321D1
:103DF0001F1D1B19171513110F0F0B0907050301C1
:103E0000494A4B4B4A49494949484745444343433A
:103E1000444443413E3D3B393837373636363737F1
:103E200037373737363533323131343D4D6584A934
:103E3000CFEEFFFEEAC69A6D442511050001060D7E
:103E4000141C242D34393D404142434444454647E7
:103E50004747474747474748484849494A4B4B4CDB
:103E60004D4E4F505152535456585B5D60626466DC
:103E7000686B6D707376797B7D7E7F7F7F7F7F7EC1
:103E80007D7C797774716D6966625F5C59575451B6
:103E90004F4D4C4B4A4948464544434343444444B0
:103EA0004545454545454546474849494A4A4B4B9E
:103EB0004B4B4B4B4A4A4949494948484847474771
:103EC0004747474746464645454545454646464594
:103ED00044444343434342424241414141414141C1
:103EE0004140403F3F4040414141414141414040CC
:103EF0004040404040404141414243444547484999
:103F000000000000000000000000000101020303A7
:103F10000405060708090A0C0D0F101213151719CE
:103F20001B1D1F212325272A2C2E313336383B3EDB
:103F3000404346494C4F5154575A5D6063676A6D20
:103F4000707376797C808386898C8F9295989C9FFC
:103F5000A2A5A8ABAEB0B3B6B9BCBFC1C4C7C9CCEB
:103F6000CED1D3D5D8DADCDEE0E2E4E6E8EAECED67
:103F7000EFF0F2F3F5F6F7F8F9FAFBFCFCFDFEFEC4
:103F8000FFFFFFFFFFFFFFFFFFFFFFFEFEFDFCFC4B
:103F9000FBFAF9F8F7F6F5F3F2F0EFEDECEAE8E604
:103FA000E4E2E0DEDCDAD8D5D3D1CECCC9C7C4C1D7
:103FB000BFBCB9B6B3B0AEABA8A5A29F9C98959272
:103FC0008F8C898683807C797673706D6A67636075
:103FD0005D5A5754514F4C494643403E3B38363367
:103FE000312E2C2A272523211F1D1B1917151312CB
:103FF000100F0D0C0A09080706050403030201014E
:00000001FF
