:100000000C942B060C941F080C942A080C94480698
:100010000C94B90F0C9448060C9448060C944806AE
:100020000C9448060C9448060C9448060C94480618
:100030000C9448060C9448060C9448060C94480608
:100040000C9448060C9448060C9435080C94480609
:100050000C9448062020202052616E646F6D00547D
:10006000524700444953004F4646004F4E200090EF
:100070000200004B063809480966069D06FE08FE88
:10008000087F020000D40638094809EB06F306FE93
:1000900008FE08E6010000FC06380948090F071BA6
:1000A00007FE08FE08D50100002707380948094760
:1000B00007500703090309C40100005F0738094816
:1000C000098907CB07FE08FE08B3010000340C388D
:1000D000094809500C870CAE11FE08F602130AE617
:1000E0000CD508E908F20C280D89112F09E5021337
:1000F00009E60CD508E908F20C280D89112F09D45E
:10010000021306E60CD508E908F20C280D89112F18
:1001100009C3021308E60CD508E908F20C280D897A
:10012000112F09B2021307E60CD508E908F20C28D2
:100130000D89112F09A1021305E60CD508E908F273
:100140000C280D89112F096E0200006F09D508E9EE
:10015000084A064A06060E2F095D0200007B09D5F3
:1001600008E908D6094C0ADA112F094C0200006B85
:100170000ED508E908FE0F091095122F093B020061
:1001800000AD0EB10EC00EF20C280DA1112F092AE0
:10019000020000CF0E180F2C0F400F640FBC122F5F
:1001A0000919020000C20AE508FA081A0BB10BD1BE
:1001B000132F092043616C69627261746520467275
:1001C0006571200020547269676765722044656C10
:1001D0006179202000202053796E63204F75747060
:1001E0007574202020002020204F6666204C657604
:1001F000656C20202020002020202020537765657A
:1002000070202053746570002020202020537765D3
:100210006570202020456E64002020202020537728
:10022000656570202020202020002050574D202878
:10023000485329202020202020200020202020207A
:100240002050574D20202020202020002020204812
:100250006967682053706565642020200020202095
:10026000202050756C736520202020202000202045
:100270002020204E6F697365202020202020002040
:10028000202046726571204D6F646520202020007B
:100290002020204672657120537465702020202034
:1002A00000202020202020454347202020202020FF
:1002B0002000202052657620536177546F6F746858
:1002C00020200020202020536177546F6F74682015
:1002D0002020200020202020547269616E676C6508
:1002E000202020200020202020205371756172657D
:1002F00020202020200020202020202053696E650F
:1003000020202020202000130A13091306130813AD
:100310000713050A0E2D73C440AA8FDDF36B97B93E
:100320008D7757E352933F2507995F8B37307B3AA0
:1003300089C6AE4E58E44B4805D6F25C44EFF869E6
:10034000F692561D96AB2F8835F53683FC8E60E00D
:10035000DAA85BDF7E4D3B38912BFA21C2230D2EAC
:10036000CE3CB60332ED86E60F556A34B870454987
:100370009B76BC185A414628FD2CB0EAB2DE65BB1C
:100380001059F19DB729D4EB42856F39D526907F5E
:10039000A7E8D998C18C1162AD81660C5D19011E68
:1003A000C887E12AD224D143E74F68C0AF5E9E845C
:1003B000E250CB1AC3B47404AC64A013D331009CD4
:1003C000FE4AB378153EEE947C1C72A1209F95CF17
:1003D0003D82B5BD54A6476E75C71BD70916F012EE
:1003E00002B1064CCDA9A26CA561CA7D1F221714CB
:1003F000C5D86D8AF751A3FBF463BF79C927EC7A9E
:100400009ABE80FFE5BACC0BDBDCF967E9A408D023
:1004100071335300000000000000000000000101E3
:100420000203030405060708090A0C0D0F10121336
:100430001517191B1D1F212325272A2C2E31333672
:10044000383B3E404346494C4F5154575A5D6063D8
:10045000676A6D707376797C808386898C8F9295BC
:10046000989C9FA2A5A8ABAEB0B3B6B9BCBFC1C49F
:10047000C7C9CCCED1D3D5D8DADCDEE0E2E4E6E8F9
:10048000EAECEDEFF0F2F3F5F6F7F8F9FAFBFCFC25
:10049000FDFEFEFFFFFFFFFFFFFFFFFFFFFFFEFE72
:1004A000FDFCFCFBFAF9F8F7F6F5F3F2F0EFEDECF2
:1004B000EAE8E6E4E2E0DEDCDAD8D5D3D1CECCC996
:1004C000C7C4C1BFBCB9B6B3B0AEABA8A5A29F9C10
:1004D0009895928F8C898683807C797673706D6A0B
:1004E0006763605D5A5754514F4C494643403E3B09
:1004F000383633312E2C2A272523211F1D1B19178F
:10050000151312100F0D0C0A090807060504030342
:10051000020101494A4B4B4A494949494847454428
:10052000434343444443413E3D3B393837373636F5
:1005300036373737373737363533323131343D4D4B
:100540006584A9CFEEFFFEEAC69A6D442511050029
:1005500001060D141C242D34393D404142434444CE
:100560004546474747474747474748484849494A14
:100570004B4B4C4D4E4F505152535456585B5D604F
:10058000626466686B6D707376797B7D7E7F7F7F3A
:100590007F7F7E7D7C797774716D6966625F5C595F
:1005A0005754514F4D4C4B4A4948464544434343A9
:1005B0004444444545454545454546474849494ADB
:1005C0004A4B4B4B4B4B4B4A4A494949494848488F
:1005D00047474747474747464646454545454546B9
:1005E00046464544444343434342424241414141DC
:1005F0004141414140403F3F4040414141414141F3
:1006000041404040404040404041414142434445D8
:1006100047484900020406080A0C0E101214161866
:100620001A1C1E20222426282A2C2E30323436383A
:100630003A3C3E40424446484A4C4E50525456582A
:100640005A5C5E60626466686A6C6E70727476781A
:100650007A7C7E80828486888A8C8E90929496980A
:100660009A9C9EA0A2A4A6A8AAACAEB0B2B4B6B8FA
:10067000BABCBEC0C2C4C6C8CACCCED0D2D4D6D8EA
:10068000DADCDEE0E2E4E6E8EAECEEF0F2F4F6F8DA
:10069000FAFCFEFFFDFBF9F7F5F3F1EFEFEBE9E70D
:1006A000E5E3E1DFDDDBD9D7D5D3D1CFCFCBC9C7E8
:1006B000C5C3C1BFBDBBB9B7B5B3B1AFAFABA9A7D8
:1006C000A5A3A19F9D9B99979593918F8F8B8987C8
:1006D0008583817F7D7B79777573716F6F6B6967B8
:1006E0006563615F5D5B59575553514F4F4B4947A8
:1006F0004543413F3D3B39373533312F2F2B292798
:100700002523211F1D1B19171513110F0F0B090787
:10071000050301FFFEFDFCFBFAF9F8F7F6F5F4F32B
:10072000F2F1F0EFEEEDECEBEAE9E8E7E6E5E4E321
:10073000E2E1E0DFDEDDDCDBDAD9D8D7D6D5D4D311
:10074000D2D1D0CFCECDCCCBCAC9C8C7C6C5C4C301
:10075000C2C1C0BFBEBDBCBBBAB9B8B7B6B5B4B3F1
:10076000B2B1B0AFAEADACABAAA9A8A7A6A5A4A3E1
:10077000A2A1A09F9E9D9C9B9A99989796959493D1
:100780009291908F8E8D8C8B8A89888786858483C1
:100790008281807F7E7D7C7B7A79787776757473B1
:1007A0007271706F6E6D6C6B6A69686766656463A1
:1007B0006261605F5E5D5C5B5A5958575655545391
:1007C0005251504F4E4D4C4B4A4948474645444381
:1007D0004241403F3E3D3C3B3A3938373635343371
:1007E0003231302F2E2D2C2B2A2928272625242361
:1007F0002221201F1E1D1C1B1A1918171615141351
:100800001211100F0E0D0C0B0A0908070605040340
:10081000020100000102030405060708090A0B0C87
:100820000D0E0F101112131415161718191A1B1C80
:100830001D1E1F202122232425262728292A2B2C70
:100840002D2E2F303132333435363738393A3B3C60
:100850003D3E3F404142434445464748494A4B4C50
:100860004D4E4F505152535455565758595A5B5C40
:100870005D5E5F606162636465666768696A6B6C30
:100880006D6E6F707172737475767778797A7B7C20
:100890007D7E7F808182838485868788898A8B8C10
:1008A0008D8E8F909192939495969798999A9B9C00
:1008B0009D9E9FA0A1A2A3A4A5A6A7A8A9AAABACF0
:1008C000ADAEAFB0B1B2B3B4B5B6B7B8B9BABBBCE0
:1008D000BDBEBFC0C1C2C3C4C5C6C7C8C9CACBCCD0
:1008E000CDCECFD0D1D2D3D4D5D6D7D8D9DADBDCC0
:1008F000DDDEDFE0E1E2E3E4E5E6E7E8E9EAEBECB0
:10090000EDEEEFF0F1F2F3F4F5F6F7F8F9FAFBFC9F
:10091000FDFEFF00000000000000000000000000DD
:1009200000000000000000000000000000000000C7
:1009300000000000000000000000000000000000B7
:1009400000000000000000000000000000000000A7
:100950000000000000000000000000000000000097
:100960000000000000000000000000000000000087
:100970000000000000000000000000000000000077
:100980000000000000000000000000000000000067
:10099000000000FFFFFFFFFFFFFFFFFFFFFFFFFF64
:1009A000FFFFFFFFFFFFFFFFFFFFFFFFFFFFFFFF57
:1009B000FFFFFFFFFFFFFFFFFFFFFFFFFFFFFFFF47
:1009C000FFFFFFFFFFFFFFFFFFFFFFFFFFFFFFFF37
:1009D000FFFFFFFFFFFFFFFFFFFFFFFFFFFFFFFF27
:1009E000FFFFFFFFFFFFFFFFFFFFFFFFFFFFFFFF17
:1009F000FFFFFFFFFFFFFFFFFFFFFFFFFFFFFFFF07
:100A0000FFFFFFFFFFFFFFFFFFFFFFFFFFFFFFFFF6
:100A1000FFFFFF808386898C8F9295989C9FA2A56B
:100A2000A8ABAEB0B3B6B9BCBFC1C4C7C9CCCED1F8
:100A3000D3D5D8DADCDEE0E2E4E6E8EAECEDEFF08C
:100A4000F2F3F5F6F7F8F9FAFBFCFCFDFEFEFFFF0A
:100A5000FFFFFFFFFFFFFFFFFFFEFEFDFCFCFBFAB9
:100A6000F9F8F7F6F5F3F2F0EFEDECEAE8E6E4E298
:100A7000E0DEDCDAD8D5D3D1CECCC9C7C4C1BFBC87
:100A8000B9B6B3B0AEABA8A5A29F9C9895928F8C37
:100A9000898683807C797673706D6A6763605D5A3E
:100AA0005754514F4C494643403E3B383633312E24
:100AB0002C2A272523211F1D1B1917151312100F70
:100AC0000D0C0A09080706050403030201010000D2
:100AD0000000000000000000000101020303040503
:100AE000060708090A0C0D0F1012131517191B1D04
:100AF0001F212325272A2C2E313336383B3E4043F5
:100B000046494C4F5154575A5D6063676A6D707324
:100B100076797C001F000000001F00001F101010DD
:100B2000101F00001F181818181F00001F1C1C1C85
:100B30001C1F00001F1E1E1E1E1F00001F1F1F1F48
:100B40001F1F0003070F1F0F070300181C1E1F1E87
:100B50001C18006E616E00696E660000407A10F32A
:100B60005A00A0724E18090010A5D4E80000E876DB
:100B700048170000E40B54020000CA9A3B00000032
:100B8000E1F505000080969800000040420F00004B
:100B900000A08601000000102700000000E803000C
:100BA0000000006400000000000A000000000001D6
:100BB00000000000002C76D888DC674F0823DFC1D6
:100BC000DFAE59E1B1B796E5E3E453C63AE6519991
:100BD0007696E8E6C28426EB898C9B62ED407C6FBA
:100BE000FCEFBC9C9F40F2BAA56FA5F490055A2A71
:100BF000F75C936B6CF9676DC11BFCE0E40D47FE7D
:100C0000F520E6B500D0ED902E0300943577050071
:100C100080841E080000204E0A000000C80C3333F8
:100C200033330F986E12831141EF8D2114893BE607
:100C30005516CFFEE6DB18D1844B381BF77C1D9090
:100C40001DA4BBE424203284725E228100C9F124F9
:100C5000ECA1E53D270011241FBECFE5D4E0DEBFA7
:100C6000CDBF11E0A0E6B0E0E2ECFBE302C00590EE
:100C70000D92AE32B107D9F711E0AEE2B1E001C09A
:100C80001D92A235B107E1F70E94AA150C94DF1D51
:100C90000C940000089561E080E00E947B14E3E77B
:100CA000F0E083818F9382818F9381818F93808104
:100CB0008F9383E990E09F938F930E94271D0F905D
:100CC0000F900F900F900F900F900895CF92DF929A
:100CD000EF92FF9220E030E040E251E46091730037
:100CE0007091740080917500909176000E94931924
:100CF0006B017C012FE632E143E85AE30E948F1931
:100D000087FD09C0C0927300D0927400E092750014
:100D1000F09276000CC08FE692E1A3E8BAE38093EC
:100D2000730090937400A0937500B0937600FF90C9
:100D3000EF90DF90CF900C944B06CF92DF92EF9222
:100D4000FF9220E030E040E251E460917300709146
:100D5000740080917500909176000E94DD1A6B01FD
:100D60007C0120E030E44CE156E40E94D91A1816C8
:100D70004CF0C0927300D0927400E0927500F09233
:100D800076000CC080E090E4ACE1B6E480937300A0
:100D900090937400A0937500B0937600FF90EF904D
:100DA000DF90CF900C944B0661E080E00E947B14B2
:100DB00080917700882319F0813021F008958CE923
:100DC00090E002C088EA90E09F938F930E94271DD5
:100DD0000F900F90089580917700813011F4109258
:100DE00077000C94D40680917700811103C081E0D4
:100DF000809377000C94D40661E080E00E947B141D
:100E000080917B001F928F9384EB90E09F938F9350
:100E10000E94271D0F900F900F900F9008958091C2
:100E20007B00882319F0815080937B0080917B00A8
:100E30008BBB0C94FC0680917B008F3F19F08F5F79
:100E400080937B0080917B008BBB0C94FC0661E05F
:100E500080E00E947B1480918000813049F028F06E
:100E6000823049F0833051F0089588EB90E008C05B
:100E700081EC90E005C08AEC90E002C083ED90E048
:100E80009F938F930E94271D0F900F90089580913C
:100E90008000882319F08150809380000C942707EC
:100EA000809180008F5F843009F483E0809380001C
:100EB0000C9427070E94081480E090E0089561E0F8
:100EC00080E00E947B14809180008330C9F480917F
:100ED00084008F93809183008F93809182008F9301
:100EE000809181008F938CED90E09F938F930E946F
:100EF000271D0F900F900F900F900F900F90089557
:100F000084EE90E09F938F930E94271D0F900F9087
:100F10000895CF92DF92EF92FF9283E0809380005A
:100F200020E030E048EC52E460917300709174006E
:100F300080917500909176000E9493199B01AC01FD
:100F40006091810070918200809183009091840073
:100F50000E942A196B017C012FE632E143E85AE333
:100F60000E948F1987FD09C0C0928100D092820033
:100F7000E0928300F092840008C0109281001092E9
:100F800082001092830010928400FF90EF90DF9017
:100F9000CF900C945F07CF92DF92EF92FF9283E0A5
:100FA0008093800020E030E048EC52E460917300D0
:100FB0007091740080917500909176000E94931951
:100FC00020918100309182004091830050918400F3
:100FD0000E942B196B017C0120E030E04AE754E4C9
:100FE0000E94D91A18164CF0C0928100D09282004B
:100FF000E0928300F09284000CC080E090E0AAE7C9
:10100000B4E48093810090938200A0938300B09316
:101010008400FF90EF90DF90CF900C945F0714BC9A
:10102000089585B5866085BD89B7806489BF0895B8
:1010300083B7897F83BF89B78F7B89BF08951F924C
:101040000F920FB60F9211246A9A0F900FBE0F9055
:101050001F9018951F920F920FB60F9211246A9A43
:101060000F900FBE0F901F9018951F920F920FB602
:101070000F9211246A9A0F900FBE0F901F9018952F
:1010800080912F0190913001AC014F5F5F4F5093E1
:10109000300140932F01849B0CC0839B0CC0809B2C
:1010A0000CC0819B0CC0829B0CC086990CC066E072
:1010B0000BC061E009C062E007C063E005C064E006
:1010C00003C065E001C060E020913501261759F0AA
:1010D000611119C02091310130913201241B350B6F
:1010E00037FF22C010C0209135012223E9F0209162
:1010F000330130913401241B350B37FF15C010929A
:10110000360109960DC09C012B5E3F4F3093320192
:101110002093310160933501109236018B599F4F16
:101120009093340180933301089544E250E060E0ED
:1011300070E081E690E00C94B11D8FEF91E00E9489
:10114000A91D843539F00E94950864E58FEF91E080
:101150000E94D21D44E250E060E070E081E690E041
:101160000C94991D6091610082E1689FB001112487
:1011700065527F4F42E150E088E391E00E94D61C27
:101180008EE391E090934B0180934A010E945614A4
:1011900040E060E080913801909139010E9489140B
:1011A000E0913C01F0913D0109948091370181115A
:1011B0000BC080916100811102C08BE001C08150A1
:1011C000809361000C94B208089510922E010C9443
:1011D000D5088091370181110CC0809161008F5F2B
:1011E0008C3019F08093610002C0109261000C9461
:1011F000B208089510922E010C94E9088FEF8093A5
:1012000060000C94B20880918000833011F08D9AB8
:1012100001C08D980C94FE086091600082E1689F87
:10122000B001112461597F4F42E150E088E391E021
:101230000E94D61C8EE391E090934B0180934A016B
:101240000E94561440E060E080913801909139018D
:101250000E948914E0913C01F0913D010994809134
:101260003701811104C0109260000C940C0908959C
:101270008091370181110BC080916000811102C003
:1012800085E001C08150809360000C940C090895A2
:101290008091370181110CC0809160008F5F863092
:1012A00019F08093600002C0109260000C940C0949
:1012B000089580913701882361F080918000833008
:1012C00019F48FE590E002C08BE690E041E06DE01C
:1012D00004C041E06DE087E690E00C94891461E081
:1012E00080E00E947B1441E060E084E590E00E9491
:1012F00089140C9459090F931F93CF93DF9361E0E6
:1013000080E00E947B14C0917C00D0917D00109100
:101310007E0000917F002FEF3FEF4FE75FEFF80176
:101320006C2F7D2F8F2F9E2F0E948F1987FF03C058
:101330008FEE90E00EC020E030E0A901F8016C2FA4
:101340007D2F8F2F9E2F0E948F19811109C08AEF48
:1013500090E09F938F930E94271D0F900F9020C0C5
:101360002FEF3FEF4FE75FE7F8016C2F7D2F8F2FB7
:101370009E2F0E94D91A18161CF485E091E0E9CF3F
:101380000F931F93DF93CF938CED90E09F938F93F8
:101390000E94271D0F900F900F900F900F900F90AD
:1013A000DF91CF911F910F910C945909CF92DF9249
:1013B000EF92FF9280913701811169C0C0907C004B
:1013C000D0907D00E0907E00F0907F002FEF3FEF07
:1013D0004FE75FEFC701B6010E948F1987FD51C02B
:1013E00020E030E0A901C701B6010E948F198111E8
:1013F00005C080E090E0A0E8BFEF0EC02FEF3FEF08
:101400004FE75FE7C701B6010E94D91A18166CF4BE
:1014100080E090E0AAE7B4E480937C0090937D00A4
:10142000A0937E00B0937F002CC020E030E048EC19
:1014300052E46091730070917400809175009091F6
:1014400076000E9493199B01AC01C701B6010E946E
:101450002A1960937C0070937D0080937E009093A6
:101460007F002FE632E143E85AE30E948F1987FF9D
:1014700008C010927C0010927D0010927E001092A5
:101480007F00FF90EF90DF90CF900C947B09FF904E
:10149000EF90DF90CF900895CF92DF92EF92FF927E
:1014A00080913701811169C0C0907C00D0907D008F
:1014B000E0907E00F0907F002FEF3FEF4FE75FEF6F
:1014C000C701B6010E948F1987FF09C010927C00E6
:1014D00010927D0010927E0010927F0048C020E0A4
:1014E00030E0A901C701B6010E948F19811105C022
:1014F0008FE692E1A3E8BAE332C02FEF3FEF4FE768
:101500005FE7C701B6010E94D91A181684F120E0DE
:1015100030E048EC52E46091730070917400809167
:101520007500909176000E9493199B01AC01C70150
:10153000B6010E942B1960937C0070937D0080930C
:101540007E0090937F0020E030E04AE754E40E9460
:10155000D91A181664F480E090E0A0E8BFE7809301
:101560007C0090937D00A0937E00B0937F00FF905D
:10157000EF90DF90CF900C947B09FF90EF90DF907D
:10158000CF90089580912E01813081F1C8F0823092
:1015900009F04EC040E060E087EF91E00E948914BE
:1015A00061E080E00E947B14809171008F938091B4
:1015B00070008F9380916F008F9380916E002BC08D
:1015C00040E060E089E192E00E94891461E080E0FF
:1015D0000E947B14809165008F93809164008F93AB
:1015E000809163008F938091620015C040E060E0BD
:1015F00088E092E00E94891461E080E00E947B1400
:1016000080916D008F9380916C008F9380916B001F
:101610008F9380916A008F9383E990E09F938F93DB
:101620000E94271D0F900F900F900F900F900F901A
:101630000C945909CF92DF92EF92FF9280912E0184
:10164000813079F120F0823009F45CC084C02091AF
:101650007300309174004091750050917600609154
:1016600062007091630080916400909165000E9417
:101670002A196093620070936300809364009093D2
:10168000650020E030E0A9010E948F1987FF63C048
:101690001092620010926300109264001092650034
:1016A0005AC02091730030917400409175005091A0
:1016B000760060916A0070916B0080916C0090914F
:1016C0006D000E942A1960936A0070936B008093EA
:1016D0006C0090936D00C0906200D0906300E09029
:1016E0006400F0906500A70196010E948F1987FFA2
:1016F00032C0C0926A00D0926B00E0926C00F0920F
:101700006D0029C0209173003091740040917500E4
:101710005091760060916E0070916F008091700022
:10172000909171000E942A1960936E0070936F006F
:10173000809370009093710020E030E0A9010E9436
:101740008F1987FF08C010926E0010926F001092E0
:10175000700010927100FF90EF90DF90CF900C948A
:10176000C20A80912E01813001F120F0823009F40B
:101770004BC078C020917300309174004091750087
:1017800050917600609162007091630080916400D6
:10179000909165000E942B19609362007093630022
:1017A00080936400909365001AC02091730030917B
:1017B0007400409175005091760060916A007091BC
:1017C0006B0080916C0090916D000E942B196093CA
:1017D0006A0070936B0080936C0090936D0020E022
:1017E00034E244E758E40E94D91A1816DCF580E088
:1017F00094E2A4E7B8E48093620090936300A0931E
:101800006400B09365002EC0209173003091740085
:10181000409175005091760060916E0070916F005C
:1018200080917000909171000E942B1960936E005E
:1018300070936F00809370009093710020E030E00F
:1018400048EC52E40E94D91A181664F480E090E043
:10185000A8ECB2E480936E0090936F00A0937000A8
:10186000B09371000C94C20A61E080E00E947B1486
:10187000E6E6F0E083818F9382818F9381818F935D
:1018800080818F9380E191E09F938F930E94271D29
:101890000F900F900F900F900F900F900C9459098C
:1018A000CF92DF92EF92FF922DEB37E346E855E3BC
:1018B0006091660070916700809168009091690066
:1018C0000E942A196B017C012CEE31E548EB5DE3A7
:1018D0000E948F1987FD09C0C0926600D0926700F0
:1018E000E0926800F09269000CC08CEE91E5A8EBE4
:1018F000BDE38093660090936700A0936800B09367
:101900006900FF90EF90DF90CF900C94340CCF9251
:10191000DF92EF92FF922DEB37E346E855E36091BB
:1019200066007091670080916800909169000E9444
:101930002B196B017C012EEA37E441E85FE30E943A
:10194000D91A18164CF0C0926600D0926700E09247
:101950006800F09269000CC08EEA97E4A1E8BFE34A
:101960008093660090936700A0936800B09369002D
:10197000FF90EF90DF90CF900C94340C0F931F9357
:10198000CF93DF9300D0CDB7DEB7162F082F61E0DD
:1019900080E079839A830E947B149A819F930F93AE
:1019A00079817F931F9383E990E09F938F930E94A7
:1019B000271D0F900F900F900F900F900F900F908A
:1019C0000F90DF91CF911F910F9108956091620068
:1019D0007091630080916400909165000E94BE0C3C
:1019E0000C945909CF92DF92EF92FF9220917300ED
:1019F00030917400409175005091760060916200C2
:101A00007091630080916400909165000E942A1992
:101A10006B017C0120E030E0A9010E948F1987FD55
:101A200009C0C0926200D0926300E0926400F0921C
:101A3000650008C01092620010926300109264006A
:101A400010926500FF90EF90DF90CF900C94E60C21
:101A5000CF92DF92EF92FF92209173003091740049
:101A60004091750050917600609162007091630022
:101A700080916400909165000E942B196B017C019C
:101A800020E034E244E758E40E94D91A18164CF0DA
:101A9000C0926200D0926300E0926400F092650010
:101AA0000CC080E094E2A4E7B8E4809362009093D5
:101AB0006300A0936400B0936500FF90EF90DF9007
:101AC000CF900C94E60C809135018111FCCF8BB73F
:101AD000806E8BBF0C9418088BB78F718BBF0C94E2
:101AE00011080E94950881E080933701E0913C0144
:101AF000F0913D0109950C94630DCF92DF92EF9226
:101B0000FF926B017C01642F70E080E090E00E9406
:101B1000291A9B01AC0160E074E284E79BE40E9417
:101B2000931920E030E040E853E30E94DD1A20E002
:101B300030E040E85BE30E94DD1A209166003091BE
:101B4000670040916800509169000E9493199B01C1
:101B5000AC01C701B6010E9493190E94FB19FF90C6
:101B6000EF90DF90CF900895CF92DF92EF92FF92A7
:101B7000CF93DF931F92CDB7DEB749830E94271A18
:101B80006B017C014981642F70E080E090E00E944D
:101B9000291A9B01AC0160E074E284E79BE40E9497
:101BA000931920E030E040E853E30E94DD1A20E082
:101BB00030E040E85BE30E94DD1A2091660030913E
:101BC000670040916800509169000E9493199B0141
:101BD000AC01C701B6010E94DD1A0F90DF91CF91D1
:101BE000FF90EF90DF90CF9008950E946C0D1092BF
:101BF000370180917B008BBBE0913C01F0913D016E
:101C00000995809135018111FCCF08950E94710DD5
:101C10006A9840E051E063E173E080E092E00E9466
:101C2000D61C809180009FEF980F923010F4959A07
:101C30009598833059F58D986A9820E030E04AE70E
:101C400056E46091810070918200809183009091B0
:101C500084000E94DD1A20E030E040EC50E40E9455
:101C600093190E94FB19611571058105910539F4DD
:101C700085990CC06A9BFCCF16C06A9914C0859BDD
:101C8000FCCF6150704080409040D9F7E0E0F2E036
:101C90002CEF322F00800BBAE3953A9511F4322FD6
:101CA000E02D6A9BF7CF0C94F50D80918000833076
:101CB00061F080913701882319F08BE690E002C033
:101CC00087E690E041E06DE004C041E06DE083E62E
:101CD00090E00C94891461E080E00E947B14809174
:101CE00072001F928F9386E191E09F938F930E94E1
:101CF000271D0F900F900F900F900C94550E60E0E1
:101D00008AE00E947B1460917A0070E080E090E0AD
:101D10000E94271A20E030E040E85FE30E942B1980
:101D200020E030E040E85BE30E94DD1A20E030E094
:101D300048EC52E40E94DD1A9F938F937F936F9338
:101D40008EE191E09F938F930E94271D0F900F903B
:101D50000F900F900F900F9008950E94E60C0C9436
:101D60007F0E80913701811102C00C94D5088091BB
:101D70007A008F3F19F08F5F80937A000C94AD0E3C
:101D800080913701811102C00C94E90880917A009A
:101D9000882319F0815080937A000C94AD0E0F9334
:101DA0001F93CF93DF938091780090917900843FC7
:101DB0009105F1F038F4CD97B1F4C6EFD8E214E70D
:101DC00002E41AC0803D23E0920741F085389E412D
:101DD00051F4C0E0D4E214EF05E40EC0C7EDD3E245
:101DE00014E704E409C0C0E0D4E214E707E404C047
:101DF000C7EDD3E214E703E40E947F0E61E080E0C8
:101E00000E947B140F931F93DF93CF9386E291E0A0
:101E10009F938F930E94271D0F900F900F900F900C
:101E20000F900F90DF91CF911F910F910C94550E51
:101E300080913701811102C00C94D50880917A00FD
:101E40008F3F19F08F5F80937A0080917A0090E045
:101E50009BBD8ABD0C94CF0E80913701811102C0C9
:101E60000C94E90880917A00882319F081508093BE
:101E70007A0080917A0090E09BBD8ABD0C94CF0ED1
:101E80008091780090917900803D23E0920789F05D
:101E900030F4843F9105B1F48DE390E00FC08538B4
:101EA0002EE1920749F08432944F61F485E89EE177
:101EB00005C084EF90E002C080ED93E0909379003C
:101EC000809378000C94CF0E8091780090917900E7
:101ED000843F910581F028F4CD97B1F484EF90E030
:101EE0000FC0803D23E0920749F085389E4161F4A0
:101EF00084E294EF05C080ED93E002C085E89EE1A6
:101F000090937900809378000C94CF0E20917A0002
:101F100080E0E82FF0E0E050FE4F91E0281708F451
:101F200090E0919590838F3F11F08F5FF2CF0895ED
:101F3000CF92DF92EF92FF926B017C0120916600BD
:101F40003091670040916800509169006EE873E03D
:101F500089ED9DE30E9493199B01AC01C701B60175
:101F60000E9493190E94FB19FF90EF90DF90CF9091
:101F700008951F920F920FB60F9211242F933F9343
:101F80004F935F936F937F938F939F93AF93BF9381
:101F9000EF93FF930E944008FF91EF91BF91AF91A3
:101FA0009F918F917F916F915F914F913F912F9171
:101FB0000F900FBE0F901F901895843039F0883025
:101FC00041F0823049F483E090E008C081E090E085
:101FD00005C01BBC1ABC04C087E090E09BBD8ABD55
:101FE00080E48FBD89E08EBD0895809137018823FC
:101FF00021F0809172000C94DD0F089580917200A1
:10200000813019F08695809372000E946B0E0C94BB
:10201000F50F80917200883019F0880F809372005C
:102020000E946B0E0C94F50F843F910591F020F403
:10203000CD9769F485E00EC0803D23E0920729F03A
:1020400085389E4121F482E005C083E003C081E031
:1020500001C084E091E89FBD88608EBD08951FBCDB
:102060001EBC089585E890E090934F0180934E0147
:102070000E94C6140E9456140E9440150E949D089A
:102080001092370180917B008BBB8FEF8ABB81B3AD
:10209000807A81BB82B38F6582BBBA9884E088BBAB
:1020A00080918000833011F08D9A01C08D9814BC0E
:1020B0000E946C0D0E94B2087894089580913601B8
:1020C000811143C08091350191E0909336018330B6
:1020D000E1F028F4813049F0823079F008958530BC
:1020E00021F1D8F0863049F10895E0914A01F0914C
:1020F0004B010190F081E02D27C0E0914A01F09161
:102100004B010680F781E02D1FC0E0914A01F0915C
:102110004B010280F381E02D17C0E0914A01F0915C
:102120004B010480F581E02D0FC0E0914A01F09150
:102130004B010084F185E02D07C0E0914A01F09148
:102140004B010284F385E02D099408950E946C0DE3
:1021500080913501882319F00E945E10F9CF0C940C
:10216000630D9F92AF92BF92CF92DF92EF92FF9258
:102170000F931F93CF93DF93C82F809180008230FD
:1021800019F42FE0922E02C09AE0992E609162001D
:10219000709163008091640090916500492D0E94C8
:1021A0007D0D6B017C01611571058105910521F49F
:1021B000C12CD12C7601C394CC2379F18091770086
:1021C000813059F5D701C60156016D01E12CF12C82
:1021D00000E010E020E030E040E050E061E070E03E
:1021E00080E090E00E946A1B59016A017B018C012A
:1021F00020E030E040E050E061E070E080E090E01E
:102200000E946A1BC22ED32EE42EF52E492DC70143
:10221000B6010E94B40D0E94BE0C6A9880918000A5
:10222000813039F008F445C0823031F08330B1F0AC
:102230004DC0959A95983DC0E0E0F2E01127222725
:1022400033271C0D2D1D3E1DEF1D00800BBAE7FD31
:102250009598E7FF959A6A9BF4CF38C08D986A9855
:1022600020E030E04AE756E46091810070918200FE
:1022700080918300909184000E94DD1A20E030E07C
:1022800040EC50E40E9493190E94FB1961157105FE
:102290008105910539F485990CC06A9BFCCF16C065
:1022A0006A9914C0859BFCCF61507040804090407B
:1022B000D9F7E0E0F2E01127222733271C0D2D1D6E
:1022C0003E1DEF1D00800BBA6A9BF8CF80917B000A
:1022D0008BBBDF91CF911F910F91FF90EF90DF901B
:1022E000CF90BF90AF909F900C94A61060913A0150
:1022F00070913B0140E051E080E092E00E94D61CEA
:1023000080913701882321F081E00E94B110F8CF3D
:10231000089580913701811106C00E94710D0E94BD
:1023200076110C94F50D10923701089580913701C4
:10233000882331F00E94860F81E00E94B110F6CF11
:10234000089580913701811106C00E94710D0E948D
:1023500096110C94F50D1092370108958091370174
:10236000811125C081E0809337010E94340C0E94C6
:10237000630D40E051E063E174E080E092E00E9490
:10238000D61C80913701882321F080E00E94B11093
:10239000F8CF0E946C0D1092370180917B008BBBAF
:1023A0000E94340C809135018111FCCF0895109268
:1023B00037010895CF92DF92EF92FF92CF93DF9390
:1023C00080913701811147C081E0809337010E94DD
:1023D0007B09C1E080918000833009F045C0C0E0F6
:1023E0008D986A9820E030E04AE756E460918100D9
:1023F0007091820080918300909184000E94DD1A88
:1024000020E030E040EC50E40E9493190E94FB1958
:10241000611571058105910539F4859925C06A9B7F
:10242000FCCF0FC06A990DC0859BFCCF61507040F6
:1024300080409040D9F718C0C111959880917B00D9
:102440008BBB10923701DF91CF91FF90EF90DF901F
:10245000CF900C947B0910923701DF91CF91FF90C0
:10246000EF90DF90CF900895C0907C00D0907D00D9
:10247000E0907E00F0907F002FEF3FEF4FE75FEF9F
:10248000C701B6010E948F1987FF0BC0C111959A31
:102490008FEF8BBB80913501882371F20E945E1013
:1024A000F9CF2FEF3FEF4FE75FE7C701B6010E947B
:1024B000D91A181664F4C111959A8FEF8BBB8091CD
:1024C0003701882309F4B8CF0E945E10F8CF20E0CE
:1024D00030E0A901C701B6010E948F19D0917B009D
:1024E000811106C08FEF8BBBCC23E9F0959A1AC0FF
:1024F00020E030E04AE756E4C701B6010E94DD1A49
:1025000020E030E040EC50E40E9493190E94FB1957
:102510002FEF2BBBC111959A6150704080409040C5
:10252000D9F7C1119598DBBB8CCF809137018823F7
:1025300019F0109237010895809180008330D9F00E
:102540000E94950881E080933701E0913C01F09171
:102550003D0109950E94F50F80913701882319F0FC
:102560000E945E10F9CF0E942F109598E0913C01D7
:10257000F0913D010994089580913701882319F065
:1025800010923701089580918000833021F10E94DC
:10259000950881E080933701E0913C01F0913D0185
:1025A000099580913701882371F080917A0090E03D
:1025B0009BBD8ABD80917800909179000E94141093
:1025C0000E945E10EECF0E942F109598E0913C0182
:1025D000F0913D01099408954F925F926F927F921E
:1025E0008F929F92AF92BF92CF92DF92EF92FF9223
:1025F000CF9380906E0090906F00A0907000B0908C
:10260000710060916200709163008091640090910C
:1026100065000E94980F6B017C01611571058105B1
:10262000910521F4C12CD12C7601C394C501B401CC
:102630000E94980F4B015C016115710581059105A0
:1026400021F4812C912C5401839460916A00709143
:102650006B0080916C0090916D000E94980F2B018F
:102660003C016C157D058E059F0510F42601370190
:1026700080917B00E0E8F2E0C0E89191891718F4BE
:10268000CF5FCF3FD1F76A98809180009FEF980F7E
:10269000923010F4959A9598833059F58D986A98F0
:1026A00020E030E04AE756E46091810070918200BA
:1026B00080918300909184000E94DD1A20E030E038
:1026C00040EC50E40E9493190E94FB1961157105BA
:1026D0008105910539F485990CC06A9BFCCF46C0F1
:1026E0006A9944C0859BFCCF615070408040904007
:1026F000D9F7EC2FF0E0E050FE4F222733272C0DC6
:102700003D1DEE1D19F000800BBAF9CF00800BBA09
:10271000C80CD91CEA1C6E1448F131F45D1430F178
:1027200031F44C1418F116C0000000000000000045
:10273000000000002C0D3D1DEE1D2C0D3D1DEE1D5D
:102740002C0D3D1DEE1D2C0D3D1DEE1D2C0D3D1DBA
:10275000EE1D000049F42C0D3D1DEE1D0000000093
:102760000000F8CF00800BBA6A9BC9CF80917B0034
:102770008BBB0E946C0D80913501882319F00E945B
:102780005E10F9CFCF91FF90EF90DF90CF90BF9088
:10279000AF909F908F907F906F905F904F900C9430
:1027A000630D80913701811130C080912E018130FD
:1027B00031F018F0823041F0089581E001C082E0EC
:1027C00080932E010C94C20A0E94950881E08093A8
:1027D0003701E0913C01F0913D0109950E94630DA4
:1027E00040E051E063E174E080E092E00E94D61C9A
:1027F00080913701882319F00E94EC12F9CF0E94D2
:10280000F50D10922E010C94B20810923701089524
:10281000982F907F95BBA89AAA9AEFE9FFE031978D
:10282000F1F700C00000AA98A898EFE9FFE03197FF
:10283000F1F700C00000F0E18F9FC001112485BBBB
:10284000A89AAA9A8FE99FE00197F1F700C00000CB
:10285000AA98A898EFE9FFE03197F1F700C00000CF
:102860000895982F907F95BBAA9AEFE9FFE03197E2
:10287000F1F700C00000AA98EFE9FFE03197F1F707
:1028800000C00000F0E18F9FC001112485BBAA9A0F
:102890008FE99FE00197F1F700C00000AA98EFE9E7
:1028A000FFE03197F1F700C00000089581E00C943B
:1028B000311482E00C943114EF92FF921F93CF9366
:1028C000DF931F92CDB7DEB7009771F0182F7C0110
:1028D0008E2D811B861740F4F70181917F0169835A
:1028E0000E9408146981F4CF0F90DF91CF911F915E
:1028F000FF90EF900895623031F0633031F0613035
:1029000029F4805C03C08C5E01C08C5A80680C94F2
:1029100031141F93CF93DF93EC01862F642F0E9415
:102920007B1410E0FE01E10FF11D8491882321F05A
:102930000E9408141F5FF6CFDF91CF911F91089579
:10294000EF92FF920F931F93CF93DF938C0188E058
:10295000689FB0011124862F8064E82EC0E0D0E08B
:10296000F801EC0FFD1FF4908C2F8E0D0E94311496
:102970008F2D0E9408142196C830D10589F7DF9168
:10298000CF911F910F91FF90EF9008951F93CF93D8
:10299000DF938FE59AEE0197F1F700C0000015BABA
:1029A00015BA84B3806F84BB84B3876084BB80E333
:1029B00085BBAA9A8FE99FE00197F1F700C000005C
:1029C000AA988FE99FE00197F1F700C0000080E32B
:1029D00085BBAA9A8FE99FE00197F1F700C000003C
:1029E000AA988FE99FE00197F1F700C0000080E20C
:1029F00085BBAA9A8FE99FE00197F1F700C000001C
:102A0000AA988FE99FE00197F1F700C0000088E2E3
:102A10000E9431148CE00E943114C3E1DBE060E0DD
:102A200011E0160FCE010E94A0142896183011F064
:102A3000612FF6CFDF91CF911F910895CF93DF9350
:102A4000D82FC0E0CD1729F08EE10E943114CF5F5E
:102A5000F9CFDF91CF910895CF93DF93D82FC0E0C6
:102A6000CD1729F088E10E943114CF5FF9CFDF91B3
:102A7000CF9108958EE00C9431148FE00C943114B2
:102A80008CE00C94311488E00C9431148CE00C949C
:102A90003114CF93DF93D82FC0E0CD1729F080E118
:102AA0000E943114CF5FF9CFDF91CF910895CF937A
:102AB000DF93D82FC0E0CD1729F084E10E943114B4
:102AC000CF5FF9CFDF91CF910895CF92DF92EF9250
:102AD000FF920F931F93CF93DF931F92CDB7DEB773
:102AE00056E0459F90011124E82FE29FC001E39F2B
:102AF000900D112470E00E94541B8B01CB0166E005
:102B000070E00E94401BE82EC12CD12CF12CF41651
:102B1000B9F096012B5F3F4F0217130728F40C15ED
:102B20001D0520F08E2D03C085E001C080E04983A3
:102B30000E940814F394F6E0CF0ED11C4981E7CF30
:102B40000F90DF91CF911F910F91FF90EF90DF9049
:102B5000CF9008950E9432100E945E10FDCFA3E135
:102B6000B0E0E5EBF5E10C94C71B7C011B016A01A9
:102B7000FC0117821682838181FF66C3BE016F5FED
:102B80007F4F4B01F7019381F10193FD859193FFF5
:102B900081911F01882309F453C3853239F493FDD1
:102BA000859193FF81911F01853239F4B70190E03F
:102BB0000E94F51C56016501E5CF10E0512C20E084
:102BC0002032A0F48B3269F030F4803259F0833235
:102BD00069F420612CC08D3239F0803339F42160E2
:102BE00026C02260246023C0286021C027FD27C0A2
:102BF00030ED380F3A3078F426FF06C0FAE01F9F18
:102C0000300D1124132F13C06AE0569E300D11248D
:102C1000532E20620CC08E3221F426FD11C3206495
:102C200006C08C3611F4206802C0883641F4F101E8
:102C300093FD859193FF81911F018111C1CF9BEB82
:102C4000980F933018F42061805E06C09BE9980FBE
:102C5000933008F0AAC12F7E26FF16E02F73722E44
:102C6000853621F4F22FF0647F2E08C0863621F4D9
:102C7000622F6068762E02C01111115077FE07C0D6
:102C80001C3348F444244394410E27E00BC0183011
:102C900030F4212F06C027E04CE3442E03C027E088
:102CA00017E0412C560174E0A70EB11CF6016081BB
:102CB000718182819381042DA4010E94FE1B6C010D
:102CC000098100FF02C003FF06C071FC07C072FC4F
:102CD00008C0612C08C03DE2632E05C02BE2622EC5
:102CE00002C090E2692E802F8C7099F1662011F05D
:102CF00084E001C083E0851510F0512C0BC0581AF8
:102D000073FC08C0B70180E290E00E94F51C5A9461
:102D1000C9F7F3CF662029F0B701862D90E00E9415
:102D2000F51C03FD03C007E51BE002C003E51BE043
:102D3000F72DF0717F2EF8018491882309F476C273
:102D400071108052B70190E00E94F51C0F5F1F4F79
:102D5000F2CF77FE0FC04C0C04FF04C08A81813390
:102D600009F44A94141474F5F8E0F41578F588E041
:102D7000482E2CC076FC2AC0812F90E08C159D0532
:102D80009CF06CEFC6166FEFD60674F0772D706866
:102D9000772E0AC0E2E0F0E0EC0FFD1FE10FF11D1D
:102DA0008081803319F411501111F4CF77FE0EC0D9
:102DB00044244394410E812F90E0C816D9062CF488
:102DC0001C1904C04424439401C010E077FE07C0DE
:102DD0001C141D043CF496012F5F3F4F05C025E0F5
:102DE00030E002C021E030E0662011F02F5F3F4F5D
:102DF000112331F0412F50E04F5F5F4F240F351FFB
:102E0000452D50E02417350714F4521A01C0512CF7
:102E1000872D897049F4552039F0B70180E290E0A0
:102E20000E94F51C5A94F7CF662029F0B701862D31
:102E300090E00E94F51C73FC09C0552039F0B701E1
:102E400080E390E00E94F51C5A94F7CF77FE5FC0B4
:102E50009C2D8D2DD7FE02C090E080E0692E782E4B
:102E600040E050E0C601841991099D878C87960146
:102E700026193709280D391D812F90E0EE27FF27ED
:102E8000E81BF90BFF87EE87FFEF6F167F0669F4EB
:102E9000B7018EE290E02B8B3A8B488B598B0E94C6
:102EA000F51C598948893A892B89C614D70454F0EE
:102EB0006C857D85661577052CF4F901E40FF51F07
:102EC000818101C080E371E0671A71084F5F5F4F35
:102ED000EE85FF856E167F066CF0B70190E02B8BB8
:102EE0003A8B488B598B0E94F51C2B893A8948896B
:102EF0005989CACF6C147D0439F49A81963318F439
:102F0000953311F404FF81E3B70190E04BC08A814F
:102F1000813309F00F7EB70190E00E94F51C11117A
:102F200005C074FE18C085E490E017C0B7018EE2BA
:102F300090E00E94F51C82E066246394680EF40120
:102F4000E80FF11D8081B70190E00E94F51C11503F
:102F500041F3862DF1CF85E690E0B7010E94F51C84
:102F6000D7FC05C0C114D10439F404FF05C0D194C5
:102F7000C194D1088DE201C08BE2B70190E00E94BC
:102F8000F51C80E36AE0C616D1042CF08F5FFAE0EE
:102F9000CF1AD108F7CFB70190E00E94F51CB70116
:102FA000C601C0960E94F51C41C1833631F08337BB
:102FB00079F0833509F058C021C0560172E0A70EA0
:102FC000B11CF6018081898301E010E0640114C026
:102FD0005601F2E0AF0EB11CF601C080D18026FF91
:102FE00003C0612F70E002C06FEF7FEFC6012B8B33
:102FF0000E94EA1C8C012B892F7715C05601F2E044
:10300000AF0EB11CF601C080D18026FF03C0612F36
:1030100070E002C06FEF7FEFC6012B8B0E94DF1CB8
:103020008C012B892068722E23FD1AC0852D90E01B
:1030300008171907A8F4B70180E290E00E94F51C78
:103040005A94F4CFF60177FC859177FE81916F0158
:10305000B70190E00E94F51C51105A9401501109DB
:103060000115110579F7E2C0843611F0893651F562
:10307000560127FF09C0F4E0AF0EB11CF6016081D4
:103080007181828193810AC0F2E0AF0EB11CF6011A
:1030900060817181882777FD8095982F022F0F76A8
:1030A00097FF08C090958095709561957F4F8F4FE1
:1030B0009F4F00682AE030E0A4010E943B1DC82E0B
:1030C000C8183EC0022F853721F40F7E2AE030E079
:1030D0001DC0097F8F3691F018F4883559F0B0C0C3
:1030E000803719F0883711F0ABC0006104FF09C0C8
:1030F000046007C024FF08C0066006C028E030E076
:1031000005C020E130E002C020E132E0560107FFB7
:1031100009C0F4E0AF0EB11CF601608171818281BB
:10312000938108C0F2E0AF0EB11CF601608171819D
:1031300080E090E0A4010E943B1DC82EC8180F77C4
:1031400006FF0BC0202F2E7FC11650F404FF0AC0CB
:1031500002FD08C0202F2E7E05C0DC2C202F03C0CE
:10316000DC2C01C0D12E24FF0DC0FE01EC0DF11DA1
:103170008081803311F4297E09C022FF06C0D394D8
:10318000D39404C0822F867809F0D39423FD13C012
:1031900020FF06C01C2DD51418F4150D1D19D52CB3
:1031A000D51468F4B70180E290E02B8B0E94F51CE7
:1031B000D3942B89F5CFD51410F45D1801C0512C90
:1031C00024FF12C0B70180E390E02B8B0E94F51C16
:1031D0002B8922FF17C021FF03C088E590E002C0C1
:1031E00088E790E0B7010CC0822F867859F021FD66
:1031F00002C080E201C08BE227FD8DE2B70190E0C2
:103200000E94F51CC11638F4B70180E390E00E94DB
:10321000F51C1150F7CFCA94F401EC0DF11D80811B
:10322000B70190E00E94F51CC110F5CF552009F4BC
:10323000C2CCB70180E290E00E94F51C5A94F6CF10
:10324000F7018681978102C08FEF9FEF6396E2E1DD
:103250000C94E31B5058BB27AA270ED070C161D134
:1032600030F066D120F031F49F3F11F41EF456C1C6
:103270000EF4E095E7FB4CC1E92F72D180F3BA1749
:10328000620773078407950718F071F49EF58AC1E9
:103290000EF4E0950B2EBA2FA02D0B01B901900171
:1032A0000C01CA01A0011124FF27591B99F0593FB5
:1032B00050F4503E68F11A16F040A22F232F342FFD
:1032C0004427585FF3CF469537952795A795F0404B
:1032D0005395C9F77EF41F16BA0B620B730B840B60
:1032E000BAF09150A1F0FF0FBB1F661F771F881F18
:1032F000C2F70EC0BA0F621F731F841F48F4879570
:1033000077956795B795F7959E3F08F0B3CF93955E
:10331000880F08F09927EE0F979587950895D4D0D8
:1033200008F481E008950CD00AC102D140F0F9D030
:1033300030F021F45F3F19F0EBC0511134C1EEC001
:103340000FD198F39923C9F35523B1F3951B550B6E
:10335000BB27AA2762177307840738F09F5F5F4F68
:10336000220F331F441FAA1FA9F333D00E2E3AF0A9
:10337000E0E830D091505040E695001CCAF729D0C3
:10338000FE2F27D0660F771F881FBB1F2617370712
:103390004807AB07B0E809F0BB0B802DBF01FF2742
:1033A00093585F4F2AF09E3F510568F0B1C0FBC0B3
:1033B0005F3FECF3983EDCF3869577956795B7957C
:1033C000F7959F5FC9F7880F911D9695879597F997
:1033D0000895E1E0660F771F881FBB1F6217730710
:1033E0008407BA0720F0621B730B840BBA0BEE1F25
:1033F00088F7E0950895BCD088F09F5790F0B92FDA
:103400009927B751A0F0D1F0660F771F881F991F39
:103410001AF0BA95C9F712C0B13081F0C3D0B1E04B
:103420000895C0C0672F782F8827B85F39F0B93F5B
:10343000CCF3869577956795B395D9F73EF490953B
:103440008095709561957F4F8F4F9F4F0895E894B9
:1034500009C097FB3EF490958095709561957F4FDC
:103460008F4F9F4F9923A9F0F92F96E9BB2793958A
:10347000F695879577956795B795F111F8CFFAF49A
:10348000BB0F11F460FF1BC06F5F7F4F8F4F9F4FCB
:1034900016C0882311F096E911C0772321F09EE829
:1034A000872F762F05C0662371F096E8862F70E08F
:1034B00060E02AF09A95660F771F881FDAF7880F69
:1034C0009695879597F90895990F0008550FAA0BBF
:1034D000E0E8FEEF16161706E807F907C0F0121627
:1034E0001306E407F50798F0621B730B840B950B2A
:1034F00039F40A2661F0232B242B252B21F408957F
:103500000A2609F4A140A6958FEF811D811D08951B
:1035100097F99F6780E870E060E008959FEF80EC86
:10352000089500240A941616170618060906089529
:1035300000240A9412161306140605060895092E8F
:103540000394000C11F4882352F0BB0F40F4BF2BFE
:1035500011F460FF04C06F5F7F4F8F4F9F4F08953E
:1035600057FD9058440F551F59F05F3F71F0479534
:10357000880F97FB991F61F09F3F79F08795089519
:10358000121613061406551FF2CF4695F1DF08C038
:10359000161617061806991FF1CF86957105610555
:1035A00008940895E894BB2766277727CB0197F9FD
:1035B00008958ADF08F48FEF08950BD0C0CFB1DFF4
:1035C00028F0B6DF18F0952309F0A2CFA7CF112479
:1035D000EACFC6DFA0F3959FD1F3950F50E0551FBA
:1035E000629FF001729FBB27F00DB11D639FAA2758
:1035F000F00DB11DAA1F649F6627B00DA11D661FA7
:10360000829F2227B00DA11D621F739FB00DA11DC7
:10361000621F839FA00D611D221F749F3327A00D81
:10362000611D231F849F600D211D822F762F6A2F1D
:1036300011249F5750408AF0E1F088234AF0EE0FA2
:10364000FF1FBB1F661F771F881F91505040A9F7AF
:103650009E3F510570F05CCFA6CF5F3FECF3983EE4
:10366000DCF3869577956795B795F795E7959F5F16
:10367000C1F7FE2B880F911D9695879597F90895B0
:10368000AA1BBB1B51E107C0AA1FBB1FA617B70788
:1036900010F0A61BB70B881F991F5A95A9F78095A4
:1036A0009095BC01CD01089597FB072E16F4009468
:1036B00007D077FD09D00E94401B07FC05D03EF4DF
:1036C000909581959F4F0895709561957F4F0895CE
:1036D000689401C0E8948F929F92CF93DF930E94E9
:1036E000761BDF91CF919F908F9008958824992425
:1036F000F401E401B0E49F93AA279A158B049C047B
:10370000ED05FE05CF05D007A10798F4AD2FDC2FFE
:10371000CF2FFE2FE92D982C892E982F872F762FCB
:10372000652F542F432F322F2227B85031F7BF91E6
:1037300027C01B2EBF91BB27220F331F441F551FCD
:10374000661F771F881F991F881C991CEE1FFF1F7B
:10375000CC1FDD1FAA1FBB1F8A149B04EC05FD05AF
:10376000CE05DF05A007B10748F08A189B08EC09D1
:10377000FD09CE09DF09A00BB10B21601A94E1F617
:103780002EF49401AF01BE01CD01000C08952F92DB
:103790003F924F925F926F927F928F929F92AF92E1
:1037A000BF92CF92DF92EF92FF920F931F93CF932E
:1037B000DF93CDB7DEB7CA1BDB0B0FB6F894DEBFC5
:1037C0000FBECDBF09942A88398848885F846E84EB
:1037D0007D848C849B84AA84B984C884DF80EE8035
:1037E000FD800C811B81AA81B981CE0FD11D0FB63E
:1037F000F894DEBF0FBECDBFED010895283008F06C
:1038000027E03327DA01990F311D87FD916000967B
:103810006105710539F432602E5F3D9330E32A95DE
:10382000E1F708959F3F30F080387105610509F098
:103830003C5F3C5F3D93913008F08068911DDF93C1
:10384000CF931F930F93FF92EF92192F987F969526
:10385000E92F96959695E90FFF27EB54F44F99279A
:103860003327EE24FF24A701E7010590089407946D
:1038700028F4360FE71EF81E491F511D660F771FEB
:10388000881F991F0694A1F70590079428F4E70E66
:10389000F81E491F561FC11D770F881F991F661FED
:1038A0000694A1F70590079428F4F80E491F561FB7
:1038B000C71FD11D880F991F661F771F0694A1F798
:1038C0000590079420F4490F561FC71FD81F990F62
:1038D000661F771F881F0694A9F7849110951770AB
:1038E00041F0D695C79557954795F794E7941A9563
:1038F000C1F7EBE5FBE06894159015913591659162
:10390000959105907FE27395E118F10A430B560BF0
:10391000C90BD009C0F7E10CF11E431F561FC91F88
:10392000D01D7EF4703311F48A95E6CFE8940150EF
:1039300030F0080F0AF40027021708F4202F23950F
:10394000022F7A3328F079E37D932A95E9F710C0A6
:103950007D932A9589F606949795679537951795DF
:103960001794E118F10A430B560BC90BD00998F0D4
:1039700023957E9173957A3308F070E37C9320133E
:10398000B8F77E9170617D9330F0839571E37D93FC
:1039900070E32A95E1F71124EF90FF900F911F91AA
:1039A000CF91DF91992787FD90950895FB01DC0168
:1039B00002C005900D9241505040D8F70895FC0187
:1039C0000590615070400110D8F7809590958E0F4A
:1039D0009F1F0895FC016150704001900110D8F7BD
:1039E000809590958E0F9F1F08950F931F93CF93EF
:1039F000DF93182F092FEB018B8181FD03C08FEF1F
:103A00009FEF20C082FF10C04E815F812C813D81DD
:103A1000421753077CF4E881F9819F012F5F3F4FE4
:103A200039832883108306C0E885F985812F09959D
:103A3000892B29F72E813F812F5F3F4F3F832E83B4
:103A4000812F902FDF91CF911F910F910895A0E0CA
:103A5000B0E0EDE2FDE10C94D71BFE0135966191DB
:103A60007191AF0180914E0190914F010E94AF156D
:103A7000E2E00C94F31BFA01AA27283051F120311F
:103A800081F1E8946F936E7F6E5F7F4F8F4F9F4FF2
:103A9000AF4FB1E03ED0B4E03CD0670F781F891F34
:103AA0009A1FA11D680F791F8A1F911DA11D6A0F02
:103AB000711D811D911DA11D20D009F468943F91B5
:103AC0002AE0269F11243019305D3193DEF6CF01B4
:103AD0000895462F4770405D4193B3E00FD0C9F77A
:103AE000F6CF462F4F70405D4A3318F0495D31FDE7
:103AF0004052419302D0A9F7EACFB4E0A69597953A
:103B0000879577956795BA95C9F70097610571050F
:103B100008959B01AC010A2E069457954795379559
:103B20002795BA95C9F7620F731F841F951FA01DB3
:103B30000895DC01CB01FC01E199FECF06C0FFBB7B
:103B4000EEBBE09A31960DB20D9241505040B8F75D
:103B50000895E199FECF9FBB8EBBE09A99278DB364
:103B60000895DC01A40FB51F4150504048F0CB012F
:103B7000840F951F2E910E94C21D41505040D0F7D6
:103B80000895262FE199FECF9FBB8EBBE09A019747
:103B90000DB2021631F02DBB0FB6F894E29AE19AFD
:103BA0000FBE0895262FE199FECF9FBB8EBB2DBB84
:103BB0000FB6F894E29AE19A0FBE01960895F89430
:023BC000FFCF35
:103BC200FF0000007A440000803F00409C46CDCCBC
:103BD200CC3D010000C8420024F47F800000803FF9
:103BE200000000000000000002000000005A070070
:103BF2000000002531302E3366487A004578616333
:103C020074202020202020004D696E2E206A6974C5
:103C120074657200253375004F66662020202020CF
:103C22000053696E676C652020004D756C74697075
:103C32006C650054726967676572200025382E33FF
:103C4200666D73004F6666202020202020200075BC
:103C52006E74696C2072656C20006D696E20202084
:103C62002020202000756E74696C2073746F7000C0
:103C720025382E366600202535754D487A002535C3
:0E3C82002E316625250025382E3266487A0040
:00000001FF
