:100000000C94BA000C9474020C9481020C94D700E6
:100010000C94C2040C94D7000C94D7000C94D70015
:100020000C94D7000C94D7000C94D7000C94D700F4
:100030000C94D7000C94D7000C94D7000C94D700E4
:100040000C94D7000C94D7000C948C020C94D7001D
:100050000C94D7002020202052616E646F6D002028
:1000600020202020202020202020202020202000B0
:100070004F4646004F4E2000202020202053776519
:100080006570202020202020002020202050574D67
:10009000202848532920202020002020204869675C
:1000A00068205370656564202020002020202020D7
:1000B0004E6F697365202020202020002020202002
:1000C0004672657120537465702020200020202026
:1000D00020202045434720202020202020002020D1
:1000E00052657620536177546F6F7468202000202A
:1000F000202020536177546F6F74682020202000E7
:1001000020202020547269616E676C6520202020B9
:10011000002020202020537175617265202020204E
:10012000200020202020202053696E6520202020E0
:10013000202000001F000000001F00001F101010F2
:10014000101F00001F181818181F00001F1C1C1C6F
:100150001C1F00001F1E1E1E1E1F00001F1F1F1F32
:100160001F1F0003070F1F0F070300181C1E1F1E71
:100170001C18000011241FBECFE5D4E0DEBFCDBFA8
:1001800011E0A0E6B0E0EAEAFAE102C005900D92C3
:10019000A834B107D9F711E0A8E4B1E001C01D927D
:1001A000A037B107E1F70E946B080C94530D0C9433
:1001B0000000089561E080E00E943C0741E060E0BB
:1001C00084E590E00E944A0780915701882319F046
:1001D00084E790E002C080E790E041E06DE00C949D
:1001E0004A0761E080E00E943C07809153019091B2
:1001F0005401A0915501B0915601BF93AF939F93C5
:100200008F9385E291E09F938F930E94540A80918F
:1002100057010F900F900F900F900F900F90882321
:1002200019F084E790E002C080E790E041E06DE0E3
:100230000C944A074091530150915401609155012B
:10024000709156018091590190915A01A0915B01E2
:10025000B0915C01481759076A077B07E8F0809165
:10026000530190915401A0915501B09156014091D4
:10027000590150915A0160915B0170915C01841B9E
:10028000950BA60BB70B8093530190935401A09349
:100290005501B093560108C01092530110925401B9
:1002A00010925501109256010C94F100CF92DF92FA
:1002B000EF92FF920F931F930091530110915401FD
:1002C00020915501309156014091590150915A01A8
:1002D00060915B0170915C0180EA96E8A1E0B0E07A
:1002E0006C017D01C01AD10AE20AF30AC416D506D0
:1002F000E606F706A0F04091530150915401609139
:100300005501709156018091590190915A01A09127
:100310005B01B0915C01840F951FA61FB71F8093EE
:10032000530190935401A0935501B09356011F912E
:100330000F91FF90EF90DF90CF900C94F10061E06F
:1003400080E00E943C078091590190915A01A09150
:100350005B01B0915C019F938F938CE291E09F933E
:100360008F930E94540A0F900F900F900F90089552
:100370008091590190915A01A0915B01B0915C016B
:100380000197A105B10569F480E197E2A0E0B0E032
:100390008093590190935A01A0935B01B0935C0143
:1003A00016C06091590170915A0180915B01909142
:1003B0005C012AE030E040E050E00E94C509209353
:1003C000590130935A0140935B0150935C010C94A6
:1003D0009F018091590190915A01A0915B01B091C8
:1003E0005C0180319742A105B10569F481E090E09C
:1003F000A0E0B0E08093590190935A01A0935B0173
:10040000B0935C0114C02091590130915A01409180
:100410005B0150915C01AAE0B0E00E9492096093F8
:10042000590170935A0180935B0190935C010C9485
:100430009F0161E080E00E943C07809158011F927B
:100440008F9386E391E09F938F930E94540A80914B
:1004500057010F900F900F900F90882319F084E7A9
:1004600090E002C080E790E041E06DE00C944A0724
:1004700061E080E00E943C0720915F0180915D0176
:1004800090915E011F922F939F938F938EE391E043
:100490009F938F930E94540A809157010F900F9061
:1004A0000F900F900F900F90882319F084E790E041
:1004B00002C080E790E041E06DE00C944A070E94A2
:1004C000C90680E090E0089514BC089585B5866063
:1004D00085BD89B7806489BF089583B7897F83BF4D
:1004E00089B78F7B89BF08951F920F920FB60F9225
:1004F0001124109257016A9A0F900FBE0F901F900F
:1005000018951F920F920FB60F9211246A9A0F90AE
:100510000FBE0F901F9018951F920F920FB60F925B
:1005200011246A9A0F900FBE0F901F90189580911A
:10053000490190914A01AC014F5F5F4F50934A01CE
:1005400040934901849B0AC0839B0AC0809B0AC0D8
:10055000819B0AC082990AC065E009C061E007C0BA
:1005600062E005C063E003C064E001C060E0209188
:100570004F01261759F0611119C020914B0130919C
:100580004C01241B350B37FF22C010C020914F01B6
:100590002223E9F020914D0130914E01241B350BAF
:1005A00037FF15C01092500109960DC09C012B5EBB
:1005B0003F4F30934C0120934B0160934F011092B9
:1005C00050018B599F4F90934E0180934D01089598
:1005D000E09148018FE0E89FF0011124E058FF4FBF
:1005E000F0935201E09351018AE03596A0E6B1E024
:1005F00001900D928A95E1F70E941707E091510151
:10060000F091520140E060E0808191810E944A07B0
:10061000E0915101F09152010380F481E02D0994A1
:100620008091570181110BC080914801811102C056
:100630008AE001C08150809348010C94E80208953B
:100640008091570181110CC0809148018F5F8B30E0
:1006500019F08093480102C0109248010C94E802FE
:1006600008950C943A0C0F931F93CF93DF931F922E
:10067000CDB7DEB78C0169830E943A0C6981861779
:1006800041F0C8010F90DF91CF911F910F910C9411
:10069000420C0F90DF91CF911F910F910895CF934E
:1006A000DF936091480180E090E00E943303C3E54E
:1006B000D1E0688179818A819B8181E090E00E940C
:1006C000330388819981AA81BB81692F7A2F8B2F6F
:1006D000992782E090E00E94330388819981AA8162
:1006E000BB81BD018827992783E090E00E943303F6
:1006F000C9E5D1E0688179818A819B8184E090E0BD
:100700000E94330388819981AA81BB81692F7A2F46
:100710008B2F992785E090E00E9433036091580168
:1007200086E090E00E943303CDE5D1E068817981D5
:1007300087E090E00E94330388819981692F88E0E7
:1007400090E00E94330360915F0189E090E0DF91C7
:10075000CF910C94330380914F018111FCCF8BB763
:10076000806E8BBF0C946D028BB78F718BBF0C9416
:1007700066020E944F0381E080935701E09151018E
:10078000F09152010380F481E02D09950C94AB03A4
:100790000E94B40380E88BBBE0915101F0915201BB
:1007A0000380F481E02D099580914F018111FCCFE8
:1007B00008950E94B90380915701882321F00E9477
:1007C000440A8BBBF8CF0C94C8030F931F930E946D
:1007D0004F0381E080935701E0915101F091520164
:1007E0000380F481E02D09950E94AB0360915301D1
:1007F0007091540180915501909156010E94040915
:1008000020E030E543EC5DE30E9470080E94D808C8
:100810006A98E0915101F0915201E281F0E0EE0F0F
:10082000FF1FE05AFF4F0190F081E02D50E040E0C3
:1008300091E0222733270BE010E0260F371FE81F37
:1008400019F0C8950BBAF9CF690F741F851F81176E
:1008500009F4E39580176A9B81F7109257011F9165
:100860000F910C94C80361E088E00E943C078091DE
:100870005F011F928F9384E491E09F938F930E9476
:10088000540A0F900F900F900F9008958091570188
:1008900081112AC080915D0190915E01803D23E02D
:1008A0009207B9F048F48D33910581F0843F9105AA
:1008B000C9F48DE390E012C085382EE1920761F013
:1008C0008432944F79F485E89EE108C084E294EF85
:1008D00005C084EF90E002C080ED93E090935E014C
:1008E00080935D010C94380280915F01882329F088
:1008F00080915F01815080935F0180915F0190E062
:100900009BBD8ABD0C9433048091570181112AC08C
:1009100080915D0190915E01803D23E09207B9F0E6
:1009200048F48D33910581F0843F9105C9F480ED41
:1009300093E012C085382EE1920761F08432944F23
:1009400079F48DE390E008C084EF90E005C085E87D
:100950009EE102C084E294EF90935E0180935D017A
:100960000C94380280915F018F3F29F080915F01E4
:100970008F5F80935F0180915F0190E09BBD8ABD96
:100980000C9433041F920F920FB60F9211242F93E1
:100990003F934F935F936F937F938F939F93AF9307
:1009A000BF93EF93FF930E949702FF91EF91BF9146
:1009B000AF919F918F917F916F915F914F913F91F7
:1009C0002F910F900FBE0F901F901895843039F023
:1009D000883041F0823049F483E090E008C081E043
:1009E00090E005C01BBC1ABC04C087E090E09BBD32
:1009F0008ABD80E48FBD89E08EBD08958091570146
:100A0000882321F0809158010C94E6040895809188
:100A10005801813011F488E003C080915801869517
:100A2000809358010E9419020C94FE048091580191
:100A3000883011F481E003C080915801880F8093C1
:100A400058010E9419020C94FE04843F910591F014
:100A500020F4CD9769F485E00EC0803D23E0920735
:100A600029F085389E4121F482E005C083E003C06F
:100A700081E001C084E091E89FBD88608EBD08954B
:100A80001EBC08951092480188EE93E0A0E0B0E00B
:100A90008093530190935401A0935501B093560154
:100AA00084E690E0A0E0B0E08093590190935A0171
:100AB000A0935B01B0935C0181E08093580184E2D4
:100AC00094EF90935E0180935D0180E880935F01D5
:100AD0000E944F0364E58FEF91E00C94420CCF939A
:100AE000DF938FEF91E00E943A0C843511F00E9461
:100AF000420580E090E00E943A0C8093480181E03A
:100B000090E00E943A0CC82F82E090E00E943A0CDC
:100B1000D82F83E090E00E943A0C482F50E060E02C
:100B200070E0BA01552744275D2B4C2B40935301AD
:100B300050935401609355017093560184E090E006
:100B40000E943A0CC82F85E090E00E943A0C4C2F8E
:100B500050E060E070E0582B4093590150935A01E7
:100B600060935B0170935C0186E090E00E943A0C18
:100B70008093580187E090E00E943A0CC82F88E0EB
:100B800090E00E943A0C2C2F30E0382B30935E011D
:100B900020935D0189E090E00E943A0C80935F0110
:100BA000DF91CF9108958EE690E090936D01809350
:100BB0006C010E9487070E9417070E9401080E948B
:100BC0006F051092570180E88BBB8FEF8ABB81B312
:100BD000807E81BB82B38F6182BBBA9884E088BB80
:100BE0008D9A14BC0E94B4030E94E8027894089580
:100BF0008091500181112BC081E080935001809140
:100C00004F018330A9F028F4813041F0823059F04F
:100C10000895843091F08530A9F00895E091600145
:100C2000F091610113C0E0916601F09167010EC07F
:100C3000E0916201F091630109C0E0916401F091DB
:100C4000650104C0E0916801F0916901099408957B
:100C5000CF93C0E880915701882309F43BC060918D
:100C600053017091540180915501909156010E9459
:100C7000040920E030E543EC5DE30E9470080E9427
:100C8000D8086A98E0915101F0915201E281F0E0B8
:100C9000EE0FFF1FEE59FF4F0190F081E02D22274C
:100CA0003327260F371FE81FC8950BBA6A9BF9CF69
:100CB000CBBB80915701882309F4CCCF0E94B403A9
:100CC00080914F01882319F00E94F805F9CF0E9406
:100CD000AB03C0CFCF9108950E94B9030E942806AC
:100CE0000C94C80380915701882329F01092570172
:100CF0001EBC959808950E944F0381E08093570190
:100D0000E0915101F09152010380F481E02D0995A9
:100D10000E94FE0480915701882319F00E94F80573
:100D2000F9CFE0915101F09152010380F481E02D5F
:100D3000099480915701882329F0109257011EBC15
:100D4000959808950E944F0381E080935701E091A8
:100D50005101F09152010380F481E02D09958091B9
:100D60005F0190E09BBD8ABD80915D0190915E0125
:100D70000E94250580915701882319F00E94F805EB
:100D8000F9CFE0915101F09152010380F481E02DFF
:100D90000994982F907F95BBA89AAA9AEFE9FFE053
:100DA0003197F1F700C00000AA98A898EFE9FFE09A
:100DB0003197F1F700C00000F0E18F9FC0011124CE
:100DC00085BBA89AAA9A8FE99FE00197F1F700C026
:100DD0000000AA98A898EFE9FFE03197F1F700C06A
:100DE00000000895982F907F95BBAA9AEFE9FFE045
:100DF0003197F1F700C00000AA98EFE9FFE03197C2
:100E0000F1F700C00000F0E18F9FC001112485BB05
:100E1000AA9A8FE99FE00197F1F700C00000AA9815
:100E2000EFE9FFE03197F1F700C00000089581E09D
:100E30000C94F20682E00C94F206EF92FF921F935C
:100E4000CF93DF931F92CDB7DEB7009771F0182FC5
:100E50007C018E2D811B861740F4F70181917F0163
:100E600069830E94C9066981F4CF0F90DF91CF9109
:100E70001F91FF90EF900895623031F0633031F0B0
:100E8000613029F4805C03C08C5E01C08C5A80689C
:100E90000C94F2061F93CF93DF93EC01862F642FFF
:100EA0000E943C0710E0FE01E10FF11D84918823B0
:100EB00021F00E94C9061F5FF6CFDF91CF911F91ED
:100EC0000895EF92FF920F931F93CF93DF938C01BE
:100ED00088E0689FB0011124862F8064E82EC0E06E
:100EE000D0E0F801EC0FFD1FF4908C2F8E0D0E94C6
:100EF000F2068F2D0E94C9062196C830D10589F7C8
:100F0000DF91CF911F910F91FF90EF9008951F9364
:100F1000CF93DF938FE59AEE0197F1F700C00000C1
:100F200015BA15BA84B3806F84BB84B3876084BB61
:100F300080E385BBAA9A8FE99FE00197F1F700C093
:100F40000000AA988FE99FE00197F1F700C0000028
:100F500080E385BBAA9A8FE99FE00197F1F700C073
:100F60000000AA988FE99FE00197F1F700C0000008
:100F700080E285BBAA9A8FE99FE00197F1F700C054
:100F80000000AA988FE99FE00197F1F700C00000E8
:100F900088E20E94F2068CE00E94F206C3E3D1E0F0
:100FA00060E011E0160FCE010E946107289618300C
:100FB00011F0612FF6CFDF91CF911F910895CF935C
:100FC000DF93D82FC0E0CD1729F08EE10E94F20602
:100FD000CF5FF9CFDF91CF910895CF93DF93D82FD3
:100FE000C0E0CD1729F088E10E94F206CF5FF9CF6B
:100FF000DF91CF9108958EE00C94F2068FE00C946F
:10100000F2068CE00C94F20688E00C94F2068CE078
:101010000C94F206CF93DF93D82FC0E0CD1729F0C0
:1010200080E10E94F206CF5FF9CFDF91CF91089562
:10103000CF93DF93D82FC0E0CD1729F084E10E9431
:10104000F206CF5FF9CFDF91CF910895CF92DF9273
:10105000EF92FF920F931F93CF93DF931F92CDB721
:10106000DEB756E0459F90011124E82FE29FC001B2
:10107000E39F900D112470E00E94B1098B01CB0118
:1010800066E070E00E949D09E82EC12CD12CF12C65
:10109000F416B9F096012B5F3F4F0217130728F49F
:1010A0000C151D0520F08E2D03C085E001C080E0E9
:1010B00049830E94C906F394F6E0CF0ED11C498102
:1010C000E7CF0F90DF91CF911F910F91FF90EF909D
:1010D000DF90CF9008950E94D3050E94F805FDCFC0
:1010E0000CD0E6C0DED040F0D5D030F021F45F3F28
:1010F00019F0C7C0511110C1CAC0EBD098F39923A1
:10110000C9F35523B1F3951B550BBB27AA276217CB
:101110007307840738F09F5F5F4F220F331F441F10
:10112000AA1FA9F333D00E2E3AF0E0E830D0915048
:101130005040E695001CCAF729D0FE2F27D0660F35
:10114000771F881FBB1F261737074807AB07B0E874
:1011500009F0BB0B802DBF01FF2793585F4F2AF08A
:101160009E3F510568F08DC0D7C05F3FECF3983EBD
:10117000DCF3869577956795B795F7959F5FC9F7E7
:10118000880F911D9695879597F90895E1E0660F70
:10119000771F881FBB1F621773078407BA0720F0E9
:1011A000621B730B840BBA0BEE1F88F7E095089552
:1011B00098D088F09F5790F0B92F9927B751A0F099
:1011C000D1F0660F771F881F991F1AF0BA95C9F7DB
:1011D00012C0B13081F09FD0B1E008959CC0672F5C
:1011E000782F8827B85F39F0B93FCCF3869577958B
:1011F0006795B395D9F73EF4909580957095619574
:101200007F4F8F4F9F4F0895E89409C097FB3EF49E
:1012100090958095709561957F4F8F4F9F4F992343
:10122000A9F0F92F96E9BB279395F69587957795C1
:101230006795B795F111F8CFFAF4BB0F11F460FF81
:101240001BC06F5F7F4F8F4F9F4F16C0882311F0D9
:1012500096E911C0772321F09EE8872F762F05C0ED
:10126000662371F096E8862F70E060E02AF09A9588
:10127000660F771F881FDAF7880F9695879597F97D
:10128000089597F99F6780E870E060E008959FEF08
:1012900080EC089500240A9416161706180609060D
:1012A000089500240A9412161306140605060895DC
:1012B000092E0394000C11F4882352F0BB0F40F464
:1012C000BF2B11F460FF04C06F5F7F4F8F4F9F4FA4
:1012D000089557FD9058440F551F59F05F3F71F026
:1012E0004795880F97FB991F61F09F3F79F087958D
:1012F0000895121613061406551FF2CF4695F1DF16
:1013000008C0161617061806991FF1CF86957105A5
:10131000610508940895E894BB2766277727CB01D9
:1013200097F908950E94E709A59F900DB49F900D2D
:10133000A49F800D911D11240895AA1BBB1B51E190
:1013400007C0AA1FBB1FA617B70710F0A61BB70B35
:10135000881F991F5A95A9F780959095BC01CD01DA
:10136000089597FB072E16F4009407D077FD09D057
:101370000E949D0907FC05D03EF4909581959F4FF2
:101380000895709561957F4F0895A1E21A2EAA1BCA
:10139000BB1BFD010DC0AA1FBB1FEE1FFF1FA21725
:1013A000B307E407F50720F0A21BB30BE40BF50B22
:1013B000661F771F881F991F1A9469F760957095AB
:1013C000809590959B01AC01BD01CF010895A29F2E
:1013D000B001B39FC001A39F700D811D1124911D09
:1013E000B29F700D811D1124911D08958F929F92BF
:1013F000AF92BF92CF92DF92EF92FF92CF93DF93A3
:10140000EC01688179818A819B8161157105810573
:10141000910521F464E279ED8BE597E02DE133EF5E
:1014200041E050E00E94FD0C49015A019B01AC01D2
:10143000A7EAB1E40E9492096B017C01ACEEB4EF23
:10144000A50194010E94F80CC60ED71EE81EF91ED5
:10145000F7FE06C081E0C81AD108E10880E8F80A62
:10146000C882D982EA82FB82C6019F77DF91CF9141
:10147000FF90EF90DF90CF90BF90AF909F908F90B4
:1014800008950E94F60908958CE790E00E94F609FD
:101490000895A0E0B0E080937C0090937D00A0933D
:1014A0007E00B0937F000895A0E0B0E0EAE5FAE0A6
:1014B0000C942C0DFE01359661917191AF018091D4
:1014C0006C0190916D010E94680AE2E00C94480D55
:1014D000ACE0B0E0EEE6FAE00C941C0D7C016B0190
:1014E0008A01FC0117821682838181FFBDC1CE0172
:1014F00001964C01F7019381F60193FD859193FFCD
:1015000081916F01882309F4ABC1853239F493FDD1
:10151000859193FF81916F01853229F4B70190E0A5
:101520000E94650CE7CF512C312C20E02032A0F432
:101530008B3269F030F4803259F0833269F42061E3
:101540002CC08D3239F0803339F4216026C02260FE
:10155000246023C0286021C027FD27C030ED380F4C
:101560003A3078F426FF06C0FAE05F9E300D112471
:10157000532E13C08AE0389E300D1124332E206282
:101580000CC08E3221F426FD6BC1206406C08C365F
:1015900011F4206802C0883641F4F60193FD85916C
:1015A00093FF81916F018111C1CF982F9F7D955439
:1015B000933028F40C5F1F4FFFE3F9830DC083368F
:1015C00031F0833771F0833509F05BC022C0F80138
:1015D000808189830E5F1F4F44244394512C540112
:1015E00015C03801F2E06F0E711CF801A080B180C7
:1015F00026FF03C0652D70E002C06FEF7FEFC501CD
:101600002C870E945A0C2C0183012C852F77222EC7
:1016100017C03801F2E06F0E711CF801A080B18094
:1016200026FF03C0652D70E002C06FEF7FEFC5019C
:101630002C870E944F0C2C012C852068222E8301C0
:1016400023FC1BC0832D90E048165906B0F4B70167
:1016500080E290E00E94650C3A94F4CFF50127FCFB
:10166000859127FE81915F01B70190E00E94650C92
:1016700031103A94F1E04F1A51084114510471F7B6
:10168000E5C0843611F0893639F5F80127FF07C027
:1016900060817181828193810C5F1F4F08C06081DE
:1016A0007181882777FD8095982F0E5F1F4F2F76C9
:1016B000B22E97FF09C090958095709561957F4FE8
:1016C0008F4F9F4F2068B22E2AE030E0A4010E9485
:1016D000970CA82EA81844C0853729F42F7EB22E67
:1016E0002AE030E025C0F22FF97FBF2E8F36C1F0FF
:1016F00018F4883579F0B4C0803719F0883721F0B4
:10170000AFC02F2F2061B22EB4FE0DC08B2D846090
:10171000B82E09C024FF0AC09F2F9660B92E06C0BC
:1017200028E030E005C020E130E002C020E132E0F6
:10173000F801B7FE07C060817181828193810C5FDF
:101740001F4F06C06081718180E090E00E5F1F4FE7
:10175000A4010E94970CA82EA818FB2DFF77BF2E7E
:10176000B6FE0BC02B2D2E7FA51450F4B4FE0AC07C
:10177000B2FC08C02B2D2E7E05C07A2C2B2D03C069
:101780007A2C01C0752C24FF0DC0FE01EA0DF11D5D
:101790008081803311F4297E09C022FF06C0739432
:1017A000739404C0822F867809F0739423FD13C0CC
:1017B00020FF06C05A2C731418F4530C5718732CBE
:1017C000731468F4B70180E290E02C870E94650CE6
:1017D00073942C85F5CF731410F4371801C0312C95
:1017E00024FF12C0B70180E390E02C870E94650CB3
:1017F0002C8522FF17C021FF03C088E590E002C0BE
:1018000088E790E0B7010CC0822F867859F021FD5F
:1018100002C080E201C08BE227FD8DE2B70190E0BB
:101820000E94650CA51438F4B70180E390E00E9493
:10183000650C5A94F7CFAA94F401EA0DF11D80814A
:10184000B70190E00E94650CA110F5CF332009F498
:1018500051CEB70180E290E00E94650C3A94F6CF39
:10186000F7018681978102C08FEF9FEF2C96E2E10E
:101870000C94380DE199FECF9FBB8EBBE09A99275F
:101880008DB30895262FE199FECF9FBB8EBB2DBB54
:101890000FB6F894E29AE19A0FBE01960895FC0102
:1018A0000590615070400110D8F7809590958E0F8B
:1018B0009F1F0895FC016150704001900110D8F7FE
:1018C000809590958E0F9F1F08950F931F93CF9330
:1018D000DF93182F092FEB018B8181FD03C08FEF60
:1018E0009FEF20C082FF10C04E815F812C813D811F
:1018F000421753077CF4E881F9819F012F5F3F4F26
:1019000039832883108306C0E885F985812F0995DE
:10191000892B29F72E813F812F5F3F4F3F832E83F5
:10192000812F902FDF91CF911F910F910895FA0190
:10193000AA27283051F1203181F1E8946F936E7F0E
:101940006E5F7F4F8F4F9F4FAF4FB1E03ED0B4E0FF
:101950003CD0670F781F891F9A1FA11D680F791F40
:101960008A1F911DA11D6A0F711D811D911DA11D51
:1019700020D009F468943F912AE0269F1124301961
:10198000305D3193DEF6CF010895462F4770405DFC
:101990004193B3E00FD0C9F7F6CF462F4F70405DAB
:1019A0004A3318F0495D31FD4052419302D0A9F706
:1019B000EACFB4E0A6959795879577956795BA9500
:1019C000C9F700976105710508959B01AC010A2EC6
:1019D00006945795479537952795BA95C9F7620F9D
:1019E000731F841F951FA01D0895B7FF0C949209C3
:1019F0000E949209821B930B0895052E97FB1EF4FB
:101A000000940E94140D57FD07D00E94C50907FCE1
:101A100003D04EF40C94140D5095409530952195BB
:101A20003F4F4F4F5F4F089590958095709561950A
:101A30007F4F8F4F9F4F08952F923F924F925F920B
:101A40006F927F928F929F92AF92BF92CF92DF92CE
:101A5000EF92FF920F931F93CF93DF93CDB7DEB733
:101A6000CA1BDB0B0FB6F894DEBF0FBECDBF0994C7
:101A70002A88398848885F846E847D848C849B841E
:101A8000AA84B984C884DF80EE80FD800C811B812C
:101A9000AA81B981CE0FD11D0FB6F894DEBF0FBE5B
:0A1AA000CDBFED010895F894FFCFCB
:101AAA00003F0039003A003D003B003C003E000088
:101ABA000002000000005F020000000001000000B8
:101ACA00220100F100100320031A0156016C0611CD
:101ADA000101F100100320031A0156016C060001EE
:101AEA0002F100100320031A0156016C06EF0003ED
:101AFA00F100100320031A0156016C06DE0004F1FE
:101B0A0000100320031A0156016C06CD0005F100EE
:101B1A00100320031A0156016C06BC00009F011035
:101B2A00032003B801E901D900AB0000DA00100371
:101B3A002003D900D900D9039A0000190210032002
:101B4A0003070516057206890000380210032003F0
:101B5A00460484049906780000F100100320031A51
:101B6A00015601E50325366C75487A0020202020AD
:101B7A00253575487A00202535754D487A00253572
:081B8A0075487A20253375002F
:10390000808386898C8F9295989C9FA2A5A8ABAE48
:10391000B0B3B6B9BCBFC1C4C7C9CCCED1D3D5D85A
:10392000DADCDEE0E2E4E6E8EAECEDEFF0F2F3F513
:10393000F6F7F8F9FAFBFCFCFDFEFEFFFFFFFFFFC8
:10394000FFFFFFFFFFFFFEFEFDFCFCFBFAF9F8F7AF
:10395000F6F5F3F2F0EFEDECEAE8E6E4E2E0DEDCC7
:10396000DAD8D5D3D1CECCC9C7C4C1BFBCB9B6B3E0
:10397000B0AEABA8A5A29F9C9895928F8C898683A8
:10398000807C797673706D6A6763605D5A575451B5
:103990004F4C494643403E3B383633312E2C2A2784
:1039A0002523211F1D1B1917151312100F0D0C0AAB
:1039B00009080706050403030201010000000000D6
:1039C00000000000000001010203030405060708CF
:1039D000090A0C0D0F1012131517191B1D1F212397
:1039E00025272A2C2E313336383B3E404346494C5E
:1039F0004F5154575A5D6063676A6D707376797C76
:103A000000000000000000000000000000000000B6
:103A100000000000000000000000000000000000A6
:103A20000000000000000000000000000000000096
:103A30000000000000000000000000000000000086
:103A40000000000000000000000000000000000076
:103A50000000000000000000000000000000000066
:103A60000000000000000000000000000000000056
:103A70000000000000000000000000000000000046
:103A8000FFFFFFFFFFFFFFFFFFFFFFFFFFFFFFFF46
:103A9000FFFFFFFFFFFFFFFFFFFFFFFFFFFFFFFF36
:103AA000FFFFFFFFFFFFFFFFFFFFFFFFFFFFFFFF26
:103AB000FFFFFFFFFFFFFFFFFFFFFFFFFFFFFFFF16
:103AC000FFFFFFFFFFFFFFFFFFFFFFFFFFFFFFFF06
:103AD000FFFFFFFFFFFFFFFFFFFFFFFFFFFFFFFFF6
:103AE000FFFFFFFFFFFFFFFFFFFFFFFFFFFFFFFFE6
:103AF000FFFFFFFFFFFFFFFFFFFFFFFFFFFFFFFFD6
:103B0000000102030405060708090A0B0C0D0E0F3D
:103B1000101112131415161718191A1B1C1D1E1F2D
:103B2000202122232425262728292A2B2C2D2E2F1D
:103B3000303132333435363738393A3B3C3D3E3F0D
:103B4000404142434445464748494A4B4C4D4E4FFD
:103B5000505152535455565758595A5B5C5D5E5FED
:103B6000606162636465666768696A6B6C6D6E6FDD
:103B7000707172737475767778797A7B7C7D7E7FCD
:103B8000808182838485868788898A8B8C8D8E8FBD
:103B9000909192939495969798999A9B9C9D9E9FAD
:103BA000A0A1A2A3A4A5A6A7A8A9AAABACADAEAF9D
:103BB000B0B1B2B3B4B5B6B7B8B9BABBBCBDBEBF8D
:103BC000C0C1C2C3C4C5C6C7C8C9CACBCCCDCECF7D
:103BD000D0D1D2D3D4D5D6D7D8D9DADBDCDDDEDF6D
:103BE000E0E1E2E3E4E5E6E7E8E9EAEBECEDEEEF5D
:103BF000F0F1F2F3F4F5F6F7F8F9FAFBFCFDFEFF4D
:103C0000FFFEFDFCFBFAF9F8F7F6F5F4F3F2F1F03C
:103C1000EFEEEDECEBEAE9E8E7E6E5E4E3E2E1E02C
:103C2000DFDEDDDCDBDAD9D8D7D6D5D4D3D2D1D01C
:103C3000CFCECDCCCBCAC9C8C7C6C5C4C3C2C1C00C
:103C4000BFBEBDBCBBBAB9B8B7B6B5B4B3B2B1B0FC
:103C5000AFAEADACABAAA9A8A7A6A5A4A3A2A1A0EC
:103C60009F9E9D9C9B9A99989796959493929190DC
:103C70008F8E8D8C8B8A89888786858483828180CC
:103C80007F7E7D7C7B7A79787776757473727170BC
:103C90006F6E6D6C6B6A69686766656463626160AC
:103CA0005F5E5D5C5B5A595857565554535251509C
:103CB0004F4E4D4C4B4A494847464544434241408C
:103CC0003F3E3D3C3B3A393837363534333231307C
:103CD0002F2E2D2C2B2A292827262524232221206C
:103CE0001F1E1D1C1B1A191817161514131211105C
:103CF0000F0E0D0C0B0A090807060504030201004C
:103D000000020406080A0C0E10121416181A1C1EC3
:103D100020222426282A2C2E30323436383A3C3EB3
:103D200040424446484A4C4E50525456585A5C5EA3
:103D300060626466686A6C6E70727476787A7C7E93
:103D400080828486888A8C8E90929496989A9C9E83
:103D5000A0A2A4A6A8AAACAEB0B2B4B6B8BABCBE73
:103D6000C0C2C4C6C8CACCCED0D2D4D6D8DADCDE63
:103D7000E0E2E4E6E8EAECEEF0F2F4F6F8FAFCFE53
:103D8000FFFDFBF9F7F5F3F1EFEFEBE9E7E5E3E131
:103D9000DFDDDBD9D7D5D3D1CFCFCBC9C7C5C3C121
:103DA000BFBDBBB9B7B5B3B1AFAFABA9A7A5A3A111
:103DB0009F9D9B99979593918F8F8B898785838101
:103DC0007F7D7B79777573716F6F6B6967656361F1
:103DD0005F5D5B59575553514F4F4B4947454341E1
:103DE0003F3D3B39373533312F2F2B2927252321D1
:103DF0001F1D1B19171513110F0F0B0907050301C1
:103E0000494A4B4B4A49494949484745444343433A
:103E1000444443413E3D3B393837373636363737F1
:103E200037373737363533323131343D4D6584A934
:103E3000CFEEFFFEEAC69A6D442511050001060D7E
:103E4000141C242D34393D404142434444454647E7
:103E50004747474747474748484849494A4B4B4CDB
:103E60004D4E4F505152535456585B5D60626466DC
:103E7000686B6D707376797B7D7E7F7F7F7F7F7EC1
:103E80007D7C797774716D6966625F5C59575451B6
:103E90004F4D4C4B4A4948464544434343444444B0
:103EA0004545454545454546474849494A4A4B4B9E
:103EB0004B4B4B4B4A4A4949494948484847474771
:103EC0004747474746464645454545454646464594
:103ED00044444343434342424241414141414141C1
:103EE0004140403F3F4040414141414141414040CC
:103EF0004040404040404141414243444547484999
:103F000000000000000000000000000101020303A7
:103F10000405060708090A0C0D0F101213151719CE
:103F20001B1D1F212325272A2C2E313336383B3EDB
:103F3000404346494C4F5154575A5D6063676A6D20
:103F4000707376797C808386898C8F9295989C9FFC
:103F5000A2A5A8ABAEB0B3B6B9BCBFC1C4C7C9CCEB
:103F6000CED1D3D5D8DADCDEE0E2E4E6E8EAECED67
:103F7000EFF0F2F3F5F6F7F8F9FAFBFCFCFDFEFEC4
:103F8000FFFFFFFFFFFFFFFFFFFFFFFEFEFDFCFC4B
:103F9000FBFAF9F8F7F6F5F3F2F0EFEDECEAE8E604
:103FA000E4E2E0DEDCDAD8D5D3D1CECCC9C7C4C1D7
:103FB000BFBCB9B6B3B0AEABA8A5A29F9C98959272
:103FC0008F8C898683807C797673706D6A67636075
:103FD0005D5A5754514F4C494643403E3B38363367
:103FE000312E2C2A272523211F1D1B1917151312CB
:103FF000100F0D0C0A09080706050403030201014E
:00000001FF
