:100000000C9404060C94480B0C94530B0C9421068E
:100010000C94090E0C9421060C9421060C942106D4
:100020000C9421060C9421060C9421060C942106B4
:100030000C9421060C9421060C9421060C942106A4
:100040000C9421060C9421060C945E0B0C94210652
:100050000C9421062020202052616E646F6D004FA9
:100060004646004F4E200042020000F006580C6841
:100070000C0B074207270C270CA901000015095893
:100080000C680C28093409270C270C98010000245F
:1000900006580C680C230623063106270C8701003E
:1000A000004009580C680C6909A009980F270CA892
:1000B00002C5095606FE0B120C7F06B506650F4FEA
:1000C0000C9702C5085606FE0B120C7F06B5066596
:1000D0000F4F0C8602C5055606FE0B120C7F06B5A7
:1000E00006650F4F0C7502C5075606FE0B120C7FF6
:1000F00006B506650F4F0C6402C5065606FE0B12C8
:100100000C7F06B506650F4F0C5302C5045606FE5C
:100110000B120C7F06B506650F4F0C310200003F35
:1001200006FE0B120C23062306DB0C4F0C200200EC
:1001300000DC09FE0B120C4C0AC20AC30F4F0C0F55
:100140000200007907FE0B120C4E0E590E67104F7D
:100150000CFE010000250D290D380D7F06B5068B1C
:100160000F4F0CED010000470D9B0DAF0DC30DE7C8
:100170000D89104F0CDC01000098070E0C230CFBBE
:100180000792087F114F0C2043616C6962726174A1
:100190006520467265712000202053796E63204FE0
:1001A0007574707574202020002020204F66662012
:1001B0004C6576656C2020202000202020202053D4
:1001C0007765657020205374657000202020202002
:1001D0005377656570202020456E64002020202024
:1001E0002053776565702020202020200020505764
:1001F0004D20284853292020202020202000202086
:100200002020202050574D2020202020202000207A
:1002100020204869676820537065656420202000AD
:10022000202020202050756C736520202020202065
:100230000020202020204E6F697365202020202080
:1002400020002020202046726571205374657020A4
:10025000202000202020202020454347202020204F
:1002600020202000202052657620536177546F6F44
:10027000746820200020202020536177546F6F7411
:1002800068202020200020202020547269616E67A1
:100290006C652020202000202020202053717561D3
:1002A000726520202020200020202020202053695B
:1002B0006E6520202020202000C509C508C505C581
:1002C00007C506C5040A0E2D73C440AA8FDDF36B63
:1002D00097B98D7757E352933F2507995F8B373056
:1002E0007B3A89C6AE4E58E44B4805D6F25C44EFE3
:1002F000F869F692561D96AB2F8835F53683FC8E3D
:1003000060E0DAA85BDF7E4D3B38912BFA21C223F7
:100310000D2ECE3CB60332ED86E60F556A34B8702A
:1003200045499B76BC185A414628FD2CB0EAB2DEFE
:1003300065BB1059F19DB729D4EB42856F39D5269D
:10034000907FA7E8D998C18C1162AD81660C5D19C8
:10035000011EC887E12AD224D143E74F68C0AF5EAF
:100360009E84E250CB1AC3B47404AC64A013D3319E
:10037000009CFE4AB378153EEE947C1C72A1209F2F
:1003800095CF3D82B5BD54A6476E75C71BD70916DC
:10039000F01202B1064CCDA9A26CA561CA7D1F2244
:1003A0001714C5D86D8AF751A3FBF463BF79C92729
:1003B000EC7A9ABE80FFE5BACC0BDBDCF967E9A4E6
:1003C00008D071335300000000000000000000005E
:1003D00001010203030405060708090A0C0D0F10AA
:1003E00012131517191B1D1F212325272A2C2E3107
:1003F0003336383B3E404346494C4F5154575A5D83
:100400006063676A6D707376797C808386898C8F70
:100410009295989C9FA2A5A8ABAEB0B3B6B9BCBF4D
:10042000C1C4C7C9CCCED1D3D5D8DADCDEE0E2E492
:10043000E6E8EAECEDEFF0F2F3F5F6F7F8F9FAFB9F
:10044000FCFCFDFEFEFFFFFFFFFFFFFFFFFFFFFFC6
:10045000FEFEFDFCFCFBFAF9F8F7F6F5F3F2F0EF1F
:10046000EDECEAE8E6E4E2E0DEDCDAD8D5D3D1CEA2
:10047000CCC9C7C4C1BFBCB9B6B3B0AEABA8A5A206
:100480009F9C9895928F8C898683807C79767370F7
:100490006D6A6763605D5A5754514F4C49464340FB
:1004A0003E3B383633312E2C2A272523211F1D1B96
:1004B0001917151312100F0D0C0A09080706050469
:1004C0000303020101494A4B4B4A494949494847FC
:1004D0004544434343444443413E3D3B3938373729
:1004E00036363637373737373736353332313134BA
:1004F0003D4D6584A9CFEEFFFEEAC69A6D442511F5
:10050000050001060D141C242D34393D40414243A1
:10051000444445464747474747474747484848496F
:10052000494A4B4B4C4D4E4F505152535456585BC9
:100530005D60626466686B6D707376797B7D7E7FCB
:100540007F7F7F7F7E7D7C797774716D6966625F66
:100550005C595754514F4D4C4B4A494846454443CA
:100560004343444444454545454545454647484938
:10057000494A4A4B4B4B4B4B4B4A4A4949494948DC
:100580004848474747474747474646464545454504
:100590004546464645444443434343424242414123
:1005A00041414141414140403F3F40404141414143
:1005B0004141414040404040404040414141424330
:1005C000444547484900020406080A0C0E1012145C
:1005D00016181A1C1E20222426282A2C2E303234CB
:1005E00036383A3C3E40424446484A4C4E505254BB
:1005F00056585A5C5E60626466686A6C6E707274AB
:1006000076787A7C7E80828486888A8C8E9092949A
:1006100096989A9C9EA0A2A4A6A8AAACAEB0B2B48A
:10062000B6B8BABCBEC0C2C4C6C8CACCCED0D2D47A
:10063000D6D8DADCDEE0E2E4E6E8EAECEEF0F2F46A
:10064000F6F8FAFCFEFFFDFBF9F7F5F3F1EFEFEB3F
:10065000E9E7E5E3E1DFDDDBD9D7D5D3D1CFCFCBF8
:10066000C9C7C5C3C1BFBDBBB9B7B5B3B1AFAFABE8
:10067000A9A7A5A3A19F9D9B99979593918F8F8BD8
:1006800089878583817F7D7B79777573716F6F6BC8
:1006900069676563615F5D5B59575553514F4F4BB8
:1006A00049474543413F3D3B39373533312F2F2BA8
:1006B00029272523211F1D1B19171513110F0F0B98
:1006C0000907050301FFFEFDFCFBFAF9F8F7F6F553
:1006D000F4F3F2F1F0EFEEEDECEBEAE9E8E7E6E552
:1006E000E4E3E2E1E0DFDEDDDCDBDAD9D8D7D6D542
:1006F000D4D3D2D1D0CFCECDCCCBCAC9C8C7C6C532
:10070000C4C3C2C1C0BFBEBDBCBBBAB9B8B7B6B521
:10071000B4B3B2B1B0AFAEADACABAAA9A8A7A6A511
:10072000A4A3A2A1A09F9E9D9C9B9A999897969501
:1007300094939291908F8E8D8C8B8A8988878685F1
:1007400084838281807F7E7D7C7B7A7978777675E1
:1007500074737271706F6E6D6C6B6A6968676665D1
:1007600064636261605F5E5D5C5B5A5958575655C1
:1007700054535251504F4E4D4C4B4A4948474645B1
:1007800044434241403F3E3D3C3B3A3938373635A1
:1007900034333231302F2E2D2C2B2A292827262591
:1007A00024232221201F1E1D1C1B1A191817161581
:1007B00014131211100F0E0D0C0B0A090807060571
:1007C0000403020100000102030405060708090AE8
:1007D0000B0C0D0E0F101112131415161718191AF1
:1007E0001B1C1D1E1F202122232425262728292AE1
:1007F0002B2C2D2E2F303132333435363738393AD1
:100800003B3C3D3E3F404142434445464748494AC0
:100810004B4C4D4E4F505152535455565758595AB0
:100820005B5C5D5E5F606162636465666768696AA0
:100830006B6C6D6E6F707172737475767778797A90
:100840007B7C7D7E7F808182838485868788898A80
:100850008B8C8D8E8F909192939495969798999A70
:100860009B9C9D9E9FA0A1A2A3A4A5A6A7A8A9AA60
:10087000ABACADAEAFB0B1B2B3B4B5B6B7B8B9BA50
:10088000BBBCBDBEBFC0C1C2C3C4C5C6C7C8C9CA40
:10089000CBCCCDCECFD0D1D2D3D4D5D6D7D8D9DA30
:1008A000DBDCDDDEDFE0E1E2E3E4E5E6E7E8E9EA20
:1008B000EBECEDEEEFF0F1F2F3F4F5F6F7F8F9FA10
:1008C000FBFCFDFEFF000000000000000000000037
:1008D0000000000000000000000000000000000018
:1008E0000000000000000000000000000000000008
:1008F00000000000000000000000000000000000F8
:1009000000000000000000000000000000000000E7
:1009100000000000000000000000000000000000D7
:1009200000000000000000000000000000000000C7
:1009300000000000000000000000000000000000B7
:100940000000000000FFFFFFFFFFFFFFFFFFFFFFB2
:10095000FFFFFFFFFFFFFFFFFFFFFFFFFFFFFFFFA7
:10096000FFFFFFFFFFFFFFFFFFFFFFFFFFFFFFFF97
:10097000FFFFFFFFFFFFFFFFFFFFFFFFFFFFFFFF87
:10098000FFFFFFFFFFFFFFFFFFFFFFFFFFFFFFFF77
:10099000FFFFFFFFFFFFFFFFFFFFFFFFFFFFFFFF67
:1009A000FFFFFFFFFFFFFFFFFFFFFFFFFFFFFFFF57
:1009B000FFFFFFFFFFFFFFFFFFFFFFFFFFFFFFFF47
:1009C000FFFFFFFFFF808386898C8F9295989C9F05
:1009D000A2A5A8ABAEB0B3B6B9BCBFC1C4C7C9CCA1
:1009E000CED1D3D5D8DADCDEE0E2E4E6E8EAECED1D
:1009F000EFF0F2F3F5F6F7F8F9FAFBFCFCFDFEFE7A
:100A0000FFFFFFFFFFFFFFFFFFFFFFFEFEFDFCFC00
:100A1000FBFAF9F8F7F6F5F3F2F0EFEDECEAE8E6B9
:100A2000E4E2E0DEDCDAD8D5D3D1CECCC9C7C4C18C
:100A3000BFBCB9B6B3B0AEABA8A5A29F9C98959227
:100A40008F8C898683807C797673706D6A6763602A
:100A50005D5A5754514F4C494643403E3B3836331C
:100A6000312E2C2A272523211F1D1B191715131280
:100A7000100F0D0C0A090807060504030302010103
:100A8000000000000000000000000001010203035C
:100A90000405060708090A0C0D0F10121315171983
:100AA0001B1D1F212325272A2C2E313336383B3E90
:100AB000404346494C4F5154575A5D6063676A6DD5
:100AC000707376797C001F000000001F00001F106B
:100AD0001010101F00001F181818181F00001F1CEE
:100AE0001C1C1C1F00001F1E1E1E1E1F00001F1F9F
:100AF0001F1F1F1F0003070F1F0F070300181C1ED7
:100B00001F1E1C18006E616E00696E660000407A40
:100B100010F35A00A0724E18090010A5D4E8000086
:100B2000E87648170000E40B54020000CA9A3B0024
:100B30000000E1F505000080969800000040420F9B
:100B4000000000A08601000000102700000000E85F
:100B500003000000006400000000000A0000000024
:100B6000000100000000002C76D888DC674F0823C5
:100B7000DFC1DFAE59E1B1B796E5E3E453C63AE62B
:100B800051997696E8E6C28426EB898C9B62ED400B
:100B90007C6FFCEFBC9C9F40F2BAA56FA5F490055A
:100BA0005A2AF75C936B6CF9676DC11BFCE0E40D8E
:100BB00047FEF520E6B500D0ED902E030094357782
:100BC000050080841E080000204E0A000000C80CAA
:100BD000333333330F986E12831141EF8D21148913
:100BE0003BE65516CFFEE6DB18D1844B381BF77C6D
:100BF0001D901DA4BBE424203284725E228100C9B2
:100C0000F124ECA1E53D270011241FBECFE5D4E07F
:100C1000DEBFCDBF10E0A0E6B0E0E0E6F6E302C044
:100C200005900D92A63FB107D9F711E0A6EFB0E00D
:100C300001C01D92AA31B107E1F70E9458130C942C
:100C40002E1B0C940000089580917F00882319F0DA
:100C500083E690E002C08FE590E041E06DE00C9407
:100C6000371280917F00882329F0813031F410926F
:100C70007F0003C081E080937F000C94240661E034
:100C800080E00E94291241E060E084E590E00E944B
:100C900037128091FF00882319F083E690E002C0AC
:100CA0008FE590E041E06DE00C94371261E080E068
:100CB0000E942912809165008F93809164008F9328
:100CC000809163008F93809162008F938EE890E013
:100CD0009F938F930E94761A8091FF000F900F9040
:100CE0000F900F900F900F90882319F083E690E0FB
:100CF00002C08FE590E041E06DE00C943712CF9296
:100D0000DF92EF92FF922091730030917400409136
:100D1000750050917600609162007091630080913F
:100D20006400909165000E94D8166B017C0120E060
:100D300030E0A9010E943D1787FD09C0C092620002
:100D4000D0926300E0926400F092650008C01092B7
:100D50006200109263001092640010926500FF9090
:100D6000EF90DF90CF900C945606CF92DF92EF92E7
:100D7000FF92209173003091740040917500509162
:100D800076006091620070916300809164009091A0
:100D900065000E94D9166B017C0120E034E244E733
:100DA00058E40E94871818164CF0C0926200D09246
:100DB0006300E0926400F09265000CC080E094E271
:100DC000A4E7B8E48093620090936300A09364006A
:100DD000B0936500FF90EF90DF90CF900C94560693
:100DE00061E080E00E942912E3E7F0E083818F93C5
:100DF00082818F9381818F9380818F938EE890E0A1
:100E00009F938F930E94761A0F900F900F900F90E0
:100E10000F900F900895CF92DF92EF92FF9220E013
:100E200030E040E251E46091730070917400809171
:100E30007500909176000E9441176B017C012DECAA
:100E40003CEC4CEC5DE30E943D1787FD09C0C0926D
:100E50007300D0927400E0927500F09276000CC09E
:100E60008DEC9CECACECBDE380937300909374002C
:100E7000A0937500B0937600FF90EF90DF90CF9035
:100E80000C94F006CF92DF92EF92FF9220E030E0D8
:100E900040E251E46091730070917400809175009C
:100EA000909176000E948B186B017C0120E030E469
:100EB0004CE156E40E94871818164CF0C09273005B
:100EC000D0927400E0927500F09276000CC080E041
:100ED00090E4ACE1B6E48093730090937400A09327
:100EE0007500B0937600FF90EF90DF90CF900C9458
:100EF000F00661E080E00E942912809172001F924A
:100F00008F9386E990E09F938F930E94761A809149
:100F1000FF000F900F900F900F90882319F083E639
:100F200090E002C08FE590E041E06DE00C94371254
:100F30008091F600813081F1C8F0823009F04EC016
:100F400040E060E08AEB91E00E94371261E080E0CF
:100F50000E942912809171008F93809170008F936D
:100F600080916F008F9380916E002BC040E060E015
:100F70008CED91E00E94371261E080E00E9429121E
:100F8000809165008F93809164008F9380916300BE
:100F90008F938091620015C040E060E08BEC91E09F
:100FA0000E94371261E080E00E94291280916D005A
:100FB0008F9380916C008F9380916B008F938091C1
:100FC0006A008F938EE890E09F938F930E94761A29
:100FD0000F900F900F900F900F900F908091FF0047
:100FE000882319F083E690E002C08FE590E041E0AD
:100FF0006DE00C943712CF92DF92EF92FF928091C6
:10100000F600813079F120F0823009F45CC084C0B0
:1010100020917300309174004091750050917600DA
:10102000609162007091630080916400909165000E
:101030000E94D816609362007093630080936400EE
:101040009093650020E030E0A9010E943D1787FFE2
:1010500063C01092620010926300109264001092BC
:1010600065005AC020917300309174004091750062
:101070005091760060916A0070916B0080916C00D5
:1010800090916D000E94D81660936A0070936B0077
:1010900080936C0090936D00C0906200D0906300CC
:1010A000E0906400F0906500A70196010E943D1752
:1010B00087FF32C0C0926A00D0926B00E0926C0051
:1010C000F0926D0029C0209173003091740040911E
:1010D00075005091760060916E0070916F00809164
:1010E0007000909171000E94D81660936E0070930A
:1010F0006F00809370009093710020E030E0A901B0
:101100000E943D1787FF08C010926E0010926F007A
:101110001092700010927100FF90EF90DF90CF90CE
:101120000C9498078091F600813001F120F0823014
:1011300009F44BC078C02091730030917400409145
:10114000750050917600609162007091630080910B
:101150006400909165000E94D916609362007093BC
:10116000630080936400909365001AC0209173001F
:1011700030917400409175005091760060916A0042
:1011800070916B0080916C0090916D000E94D91657
:1011900060936A0070936B0080936C0090936D0075
:1011A00020E034E244E758E40E9487181816DCF582
:1011B00080E094E2A4E7B8E4809362009093630037
:1011C000A0936400B09365002EC02091730030910D
:1011D0007400409175005091760060916E0070919E
:1011E0006F0080917000909171000E94D9166093F9
:1011F0006E0070936F00809370009093710020E0F8
:1012000030E048EC52E40E948718181664F480E03D
:1012100090E0A8ECB2E480936E0090936F00A093EE
:101220007000B09371000C94980761E080E00E9418
:10123000291280917A001F928F938EE990E09F93FC
:101240008F930E94761A0F900F900F900F90089531
:1012500080917A00882319F0815080937A008091E0
:101260007A008BBB0C94150980917A008F3F19F09E
:101270008F5F80937A0080917A008BBB0C94150964
:1012800061E080E00E942912809169008F93809133
:1012900068008F93809167008F93809166008F9391
:1012A00082EA90E09F938F930E94761A8091FF00CC
:1012B0000F900F900F900F900F900F90882319F0C0
:1012C00083E690E002C08FE590E041E06DE00C9491
:1012D0003712CF92DF92EF92FF922CEA35EC47E281
:1012E00057E360916600709167008091680090916B
:1012F00069000E94D8166B017C012CEE31E548EBA9
:101300005DE30E943D1787FD09C0C0926600D09240
:101310006700E0926800F09269000CC08CEE91E5E5
:10132000A8EBBDE38093660090936700A0936800EC
:10133000B0936900FF90EF90DF90CF900C9440093C
:10134000CF92DF92EF92FF922CEA35EC47E257E31F
:1013500060916600709167008091680090916900CB
:101360000E94D9166B017C012EEA37E441E85FE365
:101370000E94871818164CF0C0926600D092670041
:10138000E0926800F09269000CC08EEA97E4A1E850
:10139000BFE38093660090936700A0936800B093CA
:1013A0006900FF90EF90DF90CF900C9440090E946D
:1013B000B61180E090E008950F931F93CF93DF93D1
:1013C00061E080E00E942912C0917B00D0917C00F6
:1013D00010917D0000917E002FEF3FEF4FE75FEF10
:1013E000F8016C2F7D2F8F2F9E2F0E943D1787FFB6
:1013F00003C088EA90E00EC020E030E0A901F801C7
:101400006C2F7D2F8F2F9E2F0E943D17811109C0B9
:1014100089EB90E09F938F930E94761A0F900F9024
:1014200036C02FEF3FEF4FE75FE7F8016C2F7D2FBE
:101430008F2F9E2F0E9487181816CCF48AEC90E00C
:101440009F938F930E94761A8091FF000F900F90C8
:10145000882319F083E690E002C08FE590E041E038
:101460006DE0DF91CF911F910F910C9437120F9384
:101470001F93DF93CF9388ED90E09F938F930E940B
:10148000761A0F900F900F900F900F900F90DF91A2
:10149000CF911F910F910895CF92DF92EF92FF921B
:1014A0008091FF00811169C0C0907B00D0907C00CA
:1014B000E0907D00F0907E002FEF3FEF4FE75FEF71
:1014C000C701B6010E943D1787FD51C020E030E002
:1014D000A901C701B6010E943D17811105C080E036
:1014E00090E0A0E8BFEF0EC02FEF3FEF4FE75FE7C0
:1014F000C701B6010E94871818166CF480E090E0CE
:10150000AAE7B4E480937B0090937C00A0937D00D5
:10151000B0937E002CC020E030E048EC52E46091B3
:1015200073007091740080917500909176000E9414
:1015300041179B01AC01C701B6010E94D816609308
:101540007B0070937C0080937D0090937E002FE65B
:1015500032E143E85AE30E943D1787FF08C010922A
:101560007B0010927C0010927D0010927E00FF9014
:10157000EF90DF90CF900C94DC09FF90EF90DF901C
:10158000CF900895CF92DF92EF92FF928091FF006B
:10159000811169C0C0907B00D0907C00E0907D00FC
:1015A000F0907E002FEF3FEF4FE75FEFC701B601EE
:1015B0000E943D1787FF09C010927B0010927C00AB
:1015C00010927D0010927E0048C020E030E0A9011A
:1015D000C701B6010E943D17811105C08FE692E157
:1015E000A3E8BAE332C02FEF3FEF4FE75FE7C70151
:1015F000B6010E948718181684F120E030E048EC0C
:1016000052E4609173007091740080917500909124
:1016100076000E9441179B01AC01C701B6010E94F0
:10162000D91660937B0070937C0080937D0090932B
:101630007E0020E030E04AE754E40E948718181644
:1016400064F480E090E0A0E8BFE780937B00909393
:101650007C00A0937D00B0937E00FF90EF90DF9020
:10166000CF900C94DC09FF90EF90DF90CF9008951D
:1016700014BC089585B5866085BD89B7806489BF2F
:10168000089583B7897F83BF89B78F7B89BF08950A
:101690001F920F920FB60F9211246A9A0F900FBEED
:1016A0000F901F9018951F920F920FB60F92112452
:1016B0006A9A0F900FBE0F901F9018951F920F926D
:1016C0000FB60F9211246A9A0F900FBE0F901F90C1
:1016D00018958091F7009091F800AC014F5F5F4F33
:1016E0005093F8004093F700849B0CC0839B0CC080
:1016F000809B0CC0819B0CC0829B0CC086990CC047
:1017000066E00BC061E009C062E007C063E005C0AD
:1017100064E003C065E001C060E02091FD00261791
:1017200059F0611119C02091F9003091FA00241B81
:10173000350B37FF22C010C02091FD002223E9F0B5
:101740002091FB003091FC00241B350B37FF15C0A6
:101750001092FE0009960DC09C012B5E3F4F309306
:10176000FA002093F9006093FD001092FE008B595F
:101770009F4F9093FC008093FB0008954FE150E051
:1017800060E070E081E690E00C94001B8FEF91E048
:101790000E94F81A843539F00E94BE0B64E58FEF81
:1017A00091E00E94211B4FE150E060E070E081E693
:1017B00090E00C94E81A6091610082E1689FB001AA
:1017C000112461557F4F42E150E080E091E00E949A
:1017D000251A86E091E090931301809312010E94F4
:1017E000041240E060E080910001909101010E94AC
:1017F0003712E0910401F091050109948091FF00F6
:1018000081110BC080916100811102C08BE001C089
:101810008150809361000C94DB0B08951092F600C8
:101820000C94FE0B8091FF0081110CC0809161002F
:101830008F5F8C3019F08093610002C010926100BC
:101840000C94DB0B08951092F6000C94120C8FEFA1
:10185000809360000C94DB0B6091600082E1689FD4
:10186000B001112469597F4F42E150E080E091E0DE
:101870000E94251A86E091E0909313018093120153
:101880000E94041240E060E080910001909101010B
:101890000E943712E0910401F091050109948091B2
:1018A000FF00811104C0109260000C942C0C08956C
:1018B0008091FF0081110BC080916000811102C0F6
:1018C00083E001C08150809360000C942C0C08953B
:1018D0008091FF0081110CC0809160008F5F843087
:1018E00019F08093600002C0109260000C942C0CE0
:1018F00008958091FD008111FCCF8BB7806E8BBF66
:101900000C94410B8BB78F718BBF0C943A0B0E94D8
:10191000BE0B81E08093FF00E0910401F09105018E
:1019200009950C94790CCF92DF92EF92FF926B01A4
:101930007C01642F70E080E090E00E94D7179B014B
:10194000AC0160E074E284E79BE40E94411720E070
:1019500030E040E857E30E948B1820E030E040E898
:101960005BE30E948B1820916600309167004091E4
:101970006800509169000E9441179B01AC01C701AA
:10198000B6010E9441170E94A917FF90EF90DF90C7
:10199000CF9008950E94820C1092FF0080917A00EF
:1019A0008BBBE0910401F091050109958091FD0048
:1019B0008111FCCF08950E94870C6A9840E051E0A5
:1019C00065EC72E080E092E00E94251A959A959865
:1019D000E0E0F2E02CEF322F00800BBAE3953A956D
:1019E00011F4322FE02D6A9BF7CF0C94CA0C60E003
:1019F0008AE00E9429126091790070E080E090E016
:101A00000E94D51720E030E040E85FE30E94D9163D
:101A100020E030E040E85BE30E948B1820E030E0FB
:101A200048EC52E40E948B189F938F937F936F939F
:101A300086EE90E09F938F930E94761A0F900F90FE
:101A40000F900F900F900F9008950E9456060C94DF
:101A5000F70C8091FF00811102C00C94FE0B809165
:101A600079008F3F19F08F5F809379000C94250DDA
:101A70008091FF00811102C00C94120C80917900BA
:101A8000882319F08150809379000C94250D0F93D1
:101A90001F93CF93DF938091770090917800843FDC
:101AA0009105F1F038F4CD97B1F4C6EFD8E214E720
:101AB00002E41AC0803D23E0920741F085389E4140
:101AC00051F4C0E0D4E214EF05E40EC0C7EDD3E258
:101AD00014E704E409C0C0E0D4E214E707E404C05A
:101AE000C7EDD3E214E703E40E94F70C61E080E065
:101AF0000E9429120F931F93DF93CF938EEE90E0F5
:101B00009F938F930E94761A8091FF000F900F9001
:101B10000F900F900F900F90882319F083E690E0BC
:101B200002C08FE590E041E06DE0DF91CF911F9121
:101B30000F910C9437128091FF00811102C00C9418
:101B4000FE0B809179008F3F19F08F5F80937900B1
:101B50008091790090E09BBD8ABD0C94470D8091E7
:101B6000FF00811102C00C94120C8091790088232F
:101B700019F08150809379008091790090E09BBDAD
:101B80008ABD0C94470D8091770090917800803D3C
:101B900023E0920789F030F4843F9105B1F48DE39E
:101BA00090E00FC085382EE1920749F08432944FBF
:101BB00061F485E89EE105C084EF90E002C080ED0D
:101BC00093E090937800809377000C94470D809178
:101BD000770090917800843F910581F028F4CD97AB
:101BE000B1F484EF90E00FC0803D23E0920749F00C
:101BF00085389E4161F484E294EF05C080ED93E066
:101C000002C085E89EE190937800809377000C9461
:101C1000470D1F920F920FB60F9211242F933F93EF
:101C20004F935F936F937F938F939F93AF93BF93E4
:101C3000EF93FF930E94690BFF91EF91BF91AF91DA
:101C40009F918F917F916F915F914F913F912F91D4
:101C50000F900FBE0F901F901895843039F0883088
:101C600041F0823049F483E090E008C081E090E0E8
:101C700005C01BBC1ABC04C087E090E09BBD8ABDB8
:101C800080E48FBD89E08EBD08958091FF00882398
:101C900021F0809172000C942D0E089580917200B5
:101CA000813019F08695809372000E9479070C9418
:101CB000450E80917200883019F0880F8093720071
:101CC0000E9479070C94450E843F910591F020F411
:101CD000CD9769F485E00EC0803D23E0920729F09E
:101CE00085389E4121F482E005C083E003C081E095
:101CF00001C084E091E89FBD88608EBD08951FBC3F
:101D00001EBC089580E890E090931701809316011F
:101D10000E9474120E9404120E94EE120E94C60BCE
:101D20001092FF0080917A008BBB8FEF8ABB81B34A
:101D3000807A81BB82B38F6582BBBA9884E088BB0E
:101D400081B3806A81BB14BC0E94820C0E94DB0BB1
:101D5000789408958091FE00811143C08091FD0028
:101D600091E09093FE008330E1F028F4813049F057
:101D7000823079F00895853021F1D8F0863049F12C
:101D80000895E0911201F09113010190F081E02D8E
:101D900027C0E0911201F09113010680F781E02D38
:101DA0001FC0E0911201F09113010280F381E02D38
:101DB00017C0E0911201F09113010480F581E02D2C
:101DC0000FC0E0911201F09113010084F185E02D24
:101DD00007C0E0911201F09113010284F385E02D18
:101DE000099408958F929F92AF92BF92CF92DF9203
:101DF000EF92FF92CF93C0917F00C13011F44EE07B
:101E000001C049E0609162007091630080916400BC
:101E1000909165000E94930C6115710581059105F3
:101E200021F461E070E080E090E06A98C72ED82E3F
:101E3000E92EFF244C01AA24BB24C13081F4E0E048
:101E4000F2E022273327260F3C1DE81D00800BBA45
:101E5000E7FD9598E7FF959A6A9BF5CF0DC0959A97
:101E60009598E0E0F2E022273327260F3C1DE81D7D
:101E700000800BBA6A9BF9CF80917A008BBB0E94DD
:101E8000820C8091FD00882319F00E94AA0EF9CFE0
:101E9000CF91FF90EF90DF90CF90BF90AF909F9049
:101EA0008F900C94790C609102017091030140E0D5
:101EB00051E080E092E00E94251A8091FF00882383
:101EC00019F00E94F20EF9CF08958091FF00811160
:101ED00006C00E94870C0E94530F0C94CA0C1092EB
:101EE000FF0008958091FF008823A1F020917900E0
:101EF00080E0E82FF0E0E050FE4F91E0281708F472
:101F000090E0919590838F3F11F08F5FF2CF0E9408
:101F1000F20EE8CF08958091FF00811106C00E9463
:101F2000870C0E94720F0C94CA0C1092FF00089547
:101F30008091FF00811124C081E08093FF000E9406
:101F400040090E94790C40E051E065EC73E080E0CC
:101F500092E00E94251A8091FF00882319F00E94C8
:101F6000F20EF9CF0E94820C1092FF0080917A004D
:101F70008BBB0E9440098091FD008111FCCF089528
:101F80001092FF000895CF92DF92EF92FF920F938D
:101F90001F93CF93DF931F92CDB7DEB78091FF00E1
:101FA000811189C0C0907B00D0907C00E0907D00C2
:101FB000F0907E002FEF3FEF4FE75FEFC701B601D4
:101FC0000E943D1787FF11C0959A8FEF8BBB41E0B0
:101FD0006DE083E690E00E9437128091FD00882337
:101FE00009F456C00E94AA0EF8CF2FEF3FEF4FE73B
:101FF0005FE7C701B6010E9487181816A4F4959AE6
:102000008FEF8BBB41E06DE083E690E00E943712DA
:1020100081E08093FF008091FF00882309F438C09D
:102020000E94AA0EF8CF20E030E0A901C701B60156
:102030000E943D17811108C08FEF8BBB959A959830
:1020400080917A008BBB39C020E030E04AE756E44B
:10205000C701B6010E948B1820E030E040EC50E44C
:102060000E9441170E94A917062F182FF92E41E050
:102070006DE083E690E079830E9437128FEF8BBB8F
:10208000959A79818F2D0150704010408040D9F78A
:10209000959880917A008BBB41E06DE08FE590E0F0
:1020A0000F90DF91CF911F910F91FF90EF90DF90F4
:1020B000CF900C9437121092FF000F90DF91CF91C8
:1020C0001F910F91FF90EF90DF90CF900895809136
:1020D000FF00882319F01092FF0008950E94BE0BA4
:1020E00081E08093FF00E0910401F09105010995E2
:1020F0000E94450E8091FF00882319F00E94AA0ECD
:10210000F9CF0E947F0E9598E0910401F0910501AE
:1021100009948091FF00882319F01092FF00089520
:102120000E94BE0B81E08093FF00E0910401F091DA
:10213000050109958091FF00882371F08091790055
:1021400090E09BBD8ABD80917700909178000E94BD
:10215000640E0E94AA0EEECF0E947F0E9598E09129
:102160000401F091050109944F925F926F927F9262
:102170008F929F92AF92BF92CF92DF92EF92FF9297
:1021800080906E0090906F00A0907000B0907100F1
:10219000209166003091670040916800509169007D
:1021A0006EE873E089ED9DE30E9441172B013C012D
:1021B0009B01AC01609162007091630080916400AA
:1021C000909165000E9441170E94A9176B017C0144
:1021D000611571058105910521F4C12CD12C760181
:1021E000C394A3019201C501B4010E9441170E944A
:1021F000A9174B015C01611571058105910521F459
:10220000812C912C54018394A301920160916A0066
:1022100070916B0080916C0090916D000E9441174D
:102220000E94A917A6017E2CC616D706E806F90655
:1022300010F4AB01782E80917A00A0E8B2E0E0E8DB
:102240009D91891718F4EF5FEF3FD1F76A98959A3F
:102250009598F0E0E050FE4F222733272C0D3D1DCE
:10226000EE1D19F000800BBAF9CF00800BBAC80C34
:10227000D91CEA1C7E1448F131F45D1530F131F4BB
:102280004C1518F116C0000000000000000000000E
:1022900000002C0D3D1DEE1D2C0D3D1DEE1D2C0DC9
:1022A0003D1DEE1D2C0D3D1DEE1D2C0D3D1DEE1D8D
:1022B000000049F42C0D3D1DEE1D00000000000043
:1022C000F8CF00800BBA6A9BC9CF80917A008BBB94
:1022D0000E94820C8091FD00882319F00E94AA0EB2
:1022E000F9CFFF90EF90DF90CF90BF90AF909F908D
:1022F0008F907F906F905F904F900C94790C8091AD
:10230000FF00811130C08091F600813031F018F06B
:10231000823041F0089581E001C082E08093F600B0
:102320000C9498070E94BE0B81E08093FF00E0911F
:102330000401F091050109950E94790C40E051E0FB
:1023400065EC73E080E092E00E94251A8091FF0026
:10235000882319F00E94B410F9CF0E94CA0C109281
:10236000F6000C94DB0B1092FF000895982F907FDD
:1023700095BBA89AAA9AEFE9FFE03197F1F700C060
:102380000000AA98A898EFE9FFE03197F1F700C0A4
:102390000000F0E18F9FC001112485BBA89AAA9A82
:1023A0008FE99FE00197F1F700C00000AA98A89874
:1023B000EFE9FFE03197F1F700C000000895982F92
:1023C000907F95BBAA9AEFE9FFE03197F1F700C043
:1023D0000000AA98EFE9FFE03197F1F700C0000094
:1023E000F0E18F9FC001112485BBAA9A8FE99FE07D
:1023F0000197F1F700C00000AA98EFE9FFE03197DC
:10240000F1F700C00000089581E00C94DF1182E034
:102410000C94DF11EF92FF921F93CF93DF931F92E3
:10242000CDB7DEB7009771F0182F7C018E2D811B80
:10243000861740F4F70181917F0169830E94B611EC
:102440006981F4CF0F90DF91CF911F91FF90EF90B2
:102450000895623031F0633031F0613029F4805CEE
:1024600003C08C5E01C08C5A80680C94DF111F93EE
:10247000CF93DF93EC01862F642F0E94291210E086
:10248000FE01E10FF11D8491882321F00E94B61115
:102490001F5FF6CFDF91CF911F910895EF92FF92CA
:1024A0000F931F93CF93DF938C0188E0689FB00157
:1024B0001124862F8064E82EC0E0D0E0F801EC0FF4
:1024C000FD1FF4908C2F8E0D0E94DF118F2D0E9426
:1024D000B6112196C830D10589F7DF91CF911F91B0
:1024E0000F91FF90EF9008951F93CF93DF938FE5A7
:1024F0009AEE0197F1F700C0000015BA15BA84B33F
:10250000806F84BB84B3876084BB80E385BBAA9A59
:102510008FE99FE00197F1F700C00000AA988FE9CA
:102520009FE00197F1F700C0000080E385BBAA9A05
:102530008FE99FE00197F1F700C00000AA988FE9AA
:102540009FE00197F1F700C0000080E285BBAA9AE6
:102550008FE99FE00197F1F700C00000AA988FE98A
:102560009FE00197F1F700C0000088E20E94DF11B0
:102570008CE00E94DF11C5ECDAE060E011E0160F9C
:10258000CE010E944E122896183011F0612FF6CF1E
:10259000DF91CF911F910895CF93DF93D82FC0E0A3
:1025A000CD1729F08EE10E94DF11CF5FF9CFDF91C7
:1025B000CF910895CF93DF93D82FC0E0CD1729F0A6
:1025C00088E10E94DF11CF5FF9CFDF91CF910895AD
:1025D0008EE00C94DF118FE00C94DF118CE00C94F2
:1025E000DF1188E00C94DF118CE00C94DF11CF93A5
:1025F000DF93D82FC0E0CD1729F080E10E94DF11D2
:10260000CF5FF9CFDF91CF910895CF93DF93D82F8C
:10261000C0E0CD1729F084E10E94DF11CF5FF9CF30
:10262000DF91CF910895CF92DF92EF92FF920F93B7
:102630001F93CF93DF931F92CDB7DEB756E0459F30
:1026400090011124E82FE29FC001E39F900D112417
:1026500070E00E9402198B01CB0166E070E00E94DD
:10266000EE18E82EC12CD12CF12CF416B9F09601FD
:102670002B5F3F4F0217130728F40C151D0520F0A0
:102680008E2D03C085E001C080E049830E94B61111
:10269000F394F6E0CF0ED11C4981E7CF0F90DF9184
:1026A000CF911F910F91FF90EF90DF90CF90089501
:1026B0000E94820E0E94AA0EFDCFA3E1B0E0E3E6E5
:1026C000F3E10C9416197C011B016A01FC011782CD
:1026D0001682838181FF66C3BE016F5F7F4F4B010E
:1026E000F7019381F10193FD859193FF81911F0182
:1026F000882309F453C3853239F493FD859193FF00
:1027000081911F01853239F4B70190E00E94441A8B
:1027100056016501E5CF10E0512C20E02032A0F4F5
:102720008B3269F030F4803259F0833269F42061E1
:102730002CC08D3239F0803339F4216026C02260FC
:10274000246023C0286021C027FD27C030ED380F4A
:102750003A3078F426FF06C0FAE01F9F300D1124AE
:10276000132F13C06AE0569E300D1124532E2062A1
:102770000CC08E3221F426FD11C3206406C08C36B5
:1027800011F4206802C0883641F4F10193FD85916F
:1027900093FF81911F018111C1CF9BEB980F933063
:1027A00018F42061805E06C09BE9980F933008F012
:1027B000AAC12F7E26FF16E02F73722E853621F4D4
:1027C000F22FF0647F2E08C0863621F4622F6068F5
:1027D000762E02C01111115077FE07C01C3348F449
:1027E00044244394410E27E00BC0183030F4212FCD
:1027F00006C027E04CE3442E03C027E017E0412C3D
:10280000560174E0A70EB11CF601608171818281CE
:102810009381042DA4010E944D196C01098100FFD0
:1028200002C003FF06C071FC07C072FC08C0612C27
:1028300008C03DE2632E05C02BE2622E02C090E28A
:10284000692E802F8C7099F1662011F084E001C010
:1028500083E0851510F0512C0BC0581A73FC08C08A
:10286000B70180E290E00E94441A5A94C9F7F3CF6E
:10287000662029F0B701862D90E00E94441A03FDDE
:1028800003C009E01BE002C005E01BE0F72DF0717A
:102890007F2EF8018491882309F476C2711080524A
:1028A000B70190E00E94441A0F5F1F4FF2CF77FEEE
:1028B0000FC04C0C04FF04C08A81813309F44A9490
:1028C000141474F5F8E0F41578F588E0482E2CC05F
:1028D00076FC2AC0812F90E08C159D059CF06CEF52
:1028E000C6166FEFD60674F0772D7068772E0AC083
:1028F000E2E0F0E0EC0FFD1FE10FF11D808180337D
:1029000019F411501111F4CF77FE0EC044244394F2
:10291000410E812F90E0C816D9062CF41C1904C072
:102920004424439401C010E077FE07C01C141D042A
:102930003CF496012F5F3F4F05C025E030E002C018
:1029400021E030E0662011F02F5F3F4F112331F07E
:10295000412F50E04F5F5F4F240F351F452D50E052
:102960002417350714F4521A01C0512C872D897091
:1029700049F4552039F0B70180E290E00E94441AF2
:102980005A94F7CF662029F0B701862D90E00E9477
:10299000441A73FC09C0552039F0B70180E390E078
:1029A0000E94441A5A94F7CF77FE5FC09C2D8D2D5C
:1029B000D7FE02C090E080E0692E782E40E050E023
:1029C000C601841991099D878C87960126193709BC
:1029D000280D391D812F90E0EE27FF27E81BF90B0A
:1029E000FF87EE87FFEF6F167F0669F4B7018EE26F
:1029F00090E02B8B3A8B488B598B0E94441A598953
:102A000048893A892B89C614D70454F06C857D8592
:102A1000661577052CF4F901E40FF51F818101C0DB
:102A200080E371E0671A71084F5F5F4FEE85FF85A5
:102A30006E167F066CF0B70190E02B8B3A8B488BBB
:102A4000598B0E94441A2B893A8948895989CACFDF
:102A50006C147D0439F49A81963318F4953311F48B
:102A600004FF81E3B70190E04BC08A81813309F014
:102A70000F7EB70190E00E94441A111105C074FE48
:102A800018C085E490E017C0B7018EE290E00E9484
:102A9000441A82E066246394680EF401E80FF11D85
:102AA0008081B70190E00E94441A115041F3862DB5
:102AB000F1CF85E690E0B7010E94441AD7FC05C02B
:102AC000C114D10439F404FF05C0D194C194D108D4
:102AD0008DE201C08BE2B70190E00E94441A80E3CE
:102AE0006AE0C616D1042CF08F5FFAE0CF1AD10845
:102AF000F7CFB70190E00E94441AB701C601C09613
:102B00000E94441A41C1833631F0833779F083350E
:102B100009F058C021C0560172E0A70EB11CF601A1
:102B20008081898301E010E0640114C05601F2E065
:102B3000AF0EB11CF601C080D18026FF03C0612F0B
:102B400070E002C06FEF7FEFC6012B8B0E94391A35
:102B50008C012B892F7715C05601F2E0AF0EB11C06
:102B6000F601C080D18026FF03C0612F70E002C053
:102B70006FEF7FEFC6012B8B0E942E1A8C012B89E1
:102B80002068722E23FD1AC0852D90E008171907C2
:102B9000A8F4B70180E290E00E94441A5A94F4CF5E
:102BA000F60177FC859177FE81916F01B70190E086
:102BB0000E94441A51105A9401501109011511052F
:102BC00079F7E2C0843611F0893651F5560127FFB6
:102BD00009C0F4E0AF0EB11CF60160817181828101
:102BE00093810AC0F2E0AF0EB11CF60160817181E1
:102BF000882777FD8095982F022F0F7697FF08C0C2
:102C000090958095709561957F4F8F4F9F4F00688D
:102C10002AE030E0A4010E948A1AC82EC8183EC0DB
:102C2000022F853721F40F7E2AE030E01DC0097F96
:102C30008F3691F018F4883559F0B0C0803719F00C
:102C4000883711F0ABC0006104FF09C0046007C001
:102C500024FF08C0066006C028E030E005C020E17F
:102C600030E002C020E132E0560107FF09C0F4E085
:102C7000AF0EB11CF601608171818281938108C021
:102C8000F2E0AF0EB11CF6016081718180E090E04E
:102C9000A4010E948A1AC82EC8180F7706FF0BC01D
:102CA000202F2E7FC11650F404FF0AC002FD08C079
:102CB000202F2E7E05C0DC2C202F03C0DC2C01C071
:102CC000D12E24FF0DC0FE01EC0DF11D808180335B
:102CD00011F4297E09C022FF06C0D394D39404C006
:102CE000822F867809F0D39423FD13C020FF06C0FD
:102CF0001C2DD51418F4150D1D19D52CD51468F4F8
:102D0000B70180E290E02B8B0E94441AD3942B8968
:102D1000F5CFD51410F45D1801C0512C24FF12C05A
:102D2000B70180E390E02B8B0E94441A2B8922FF8D
:102D300017C021FF03C088E590E002C088E790E05B
:102D4000B7010CC0822F867859F021FD02C080E2C5
:102D500001C08BE227FD8DE2B70190E00E94441A8A
:102D6000C11638F4B70180E390E00E94441A115074
:102D7000F7CFCA94F401EC0DF11D8081B70190E00A
:102D80000E94441AC110F5CF552009F4C2CCB701F6
:102D900080E290E00E94441A5A94F6CFF7018681AF
:102DA000978102C08FEF9FEF6396E2E10C94321996
:102DB0005058BB27AA270ED070C161D130F066D120
:102DC00020F031F49F3F11F41EF456C10EF4E0954B
:102DD000E7FB4CC1E92F72D180F3BA176207730782
:102DE0008407950718F071F49EF58AC10EF4E095FA
:102DF0000B2EBA2FA02D0B01B90190010C01CA01B5
:102E0000A0011124FF27591B99F0593F50F4503E5F
:102E100068F11A16F040A22F232F342F4427585F51
:102E2000F3CF469537952795A795F0405395C9F769
:102E30007EF41F16BA0B620B730B840BBAF0915021
:102E4000A1F0FF0FBB1F661F771F881FC2F70EC0C0
:102E5000BA0F621F731F841F48F487957795679593
:102E6000B795F7959E3F08F0B3CF9395880F08F07C
:102E70009927EE0F979587950895D4D008F481E0AF
:102E800008950CD00AC102D140F0F9D030F021F4FD
:102E90005F3F19F0EBC0511134C1EEC00FD198F370
:102EA0009923C9F35523B1F3951B550BBB27AA27CB
:102EB00062177307840738F09F5F5F4F220F331F3D
:102EC000441FAA1FA9F333D00E2E3AF0E0E830D009
:102ED00091505040E695001CCAF729D0FE2F27D00C
:102EE000660F771F881FBB1F261737074807AB07DA
:102EF000B0E809F0BB0B802DBF01FF2793585F4F4F
:102F00002AF09E3F510568F0B1C0FBC05F3FECF373
:102F1000983EDCF3869577956795B795F7959F5F13
:102F2000C9F7880F911D9695879597F90895E1E067
:102F3000660F771F881FBB1F621773078407BA07C6
:102F400020F0621B730B840BBA0BEE1F88F7E09521
:102F50000895BCD088F09F5790F0B92F9927B751AA
:102F6000A0F0D1F0660F771F881F991F1AF0BA954D
:102F7000C9F712C0B13081F0C3D0B1E00895C0C02C
:102F8000672F782F8827B85F39F0B93FCCF3869543
:102F900077956795B395D9F73EF4909580957095A0
:102FA00061957F4F8F4F9F4F0895E89409C097FB1D
:102FB0003EF490958095709561957F4F8F4F9F4F10
:102FC0009923A9F0F92F96E9BB279395F695879554
:102FD00077956795B795F111F8CFFAF4BB0F11F417
:102FE00060FF1BC06F5F7F4F8F4F9F4F16C08823BE
:102FF00011F096E911C0772321F09EE8872F762FF4
:1030000005C0662371F096E8862F70E060E02AF034
:103010009A95660F771F881FDAF7880F9695879520
:1030200097F90895990F0008550FAA0BE0E8FEEFF5
:1030300016161706E807F907C0F012161306E4077C
:10304000F50798F0621B730B840B950B39F40A2675
:1030500061F0232B242B252B21F408950A2609F453
:10306000A140A6958FEF811D811D089597F99F6757
:1030700080E870E060E008959FEF80EC0895002400
:103080000A941616170618060906089500240A94CD
:1030900012161306140605060895092E0394000C53
:1030A00011F4882352F0BB0F40F4BF2B11F460FFE2
:1030B00004C06F5F7F4F8F4F9F4F089557FD90580B
:1030C000440F551F59F05F3F71F04795880F97FBEC
:1030D000991F61F09F3F79F08795089512161306A6
:1030E0001406551FF2CF4695F1DF08C016161706D5
:1030F0001806991FF1CF869571056105089408950A
:10310000E894BB2766277727CB0197F908958ADFD4
:1031100008F48FEF08950BD0C0CFB1DF28F0B6DFF1
:1031200018F0952309F0A2CFA7CF1124EACFC6DF6C
:10313000A0F3959FD1F3950F50E0551F629FF001CA
:10314000729FBB27F00DB11D639FAA27F00DB11D23
:10315000AA1F649F6627B00DA11D661F829F2227AC
:10316000B00DA11D621F739FB00DA11D621F839F33
:10317000A00D611D221F749F3327A00D611D231F09
:10318000849F600D211D822F762F6A2F11249F5757
:1031900050408AF0E1F088234AF0EE0FFF1FBB1F7A
:1031A000661F771F881F91505040A9F79E3F510519
:1031B00070F05CCFA6CF5F3FECF3983EDCF38695D2
:1031C00077956795B795F795E7959F5FC1F7FE2BC4
:1031D000880F911D9695879597F90895AA1BBB1B9B
:1031E00051E107C0AA1FBB1FA617B70710F0A61B07
:1031F000B70B881F991F5A95A9F780959095BC0128
:10320000CD01089597FB072E16F4009407D077FDA3
:1032100009D00E94EE1807FC05D03EF490958195E8
:103220009F4F0895709561957F4F08952F923F921B
:103230004F925F926F927F928F929F92AF92BF92C6
:10324000CF92DF92EF92FF920F931F93CF93DF9372
:10325000CDB7DEB7CA1BDB0B0FB6F894DEBF0FBECF
:10326000CDBF09942A88398848885F846E847D841C
:103270008C849B84AA84B984C884DF80EE80FD801E
:103280000C811B81AA81B981CE0FD11D0FB6F89494
:10329000DEBF0FBECDBFED010895283008F027E056
:1032A0003327DA01990F311D87FD91600096610582
:1032B000710539F432602E5F3D9330E32A95E1F7D2
:1032C00008959F3F30F080387105610509F03C5F3B
:1032D0003C5F3D93913008F08068911DDF93CF9360
:1032E0001F930F93FF92EF92192F987F9695E92FD6
:1032F00096959695E90FFF27E959F44F99273327BB
:10330000EE24FF24A701E70105900894079428F410
:10331000360FE71EF81E491F511D660F771F881FC5
:10332000991F0694A1F70590079428F4E70EF81E5C
:10333000491F561FC11D770F881F991F661F0694CE
:10334000A1F70590079428F4F80E491F561FC71FD0
:10335000D11D880F991F661F771F0694A1F705904E
:10336000079420F4490F561FC71FD81F990F661FD7
:10337000771F881F0694A9F784911095177041F064
:10338000D695C79557954795F794E7941A95C1F741
:10339000EDE0FBE06894159015913591659195915C
:1033A00005907FE27395E118F10A430B560BC90BA8
:1033B000D009C0F7E10CF11E431F561FC91FD01DD5
:1033C0007EF4703311F48A95E6CFE894015030F022
:1033D000080F0AF40027021708F4202F2395022F64
:1033E0007A3328F079E37D932A95E9F710C07D932D
:1033F0002A9589F6069497956795379517951794AA
:10340000E118F10A430B560BC90BD00998F023952C
:103410007E9173957A3308F070E37C932013B8F7AC
:103420007E9170617D9330F0839571E37D9370E3BD
:103430002A95E1F71124EF90FF900F911F91CF9102
:10344000DF91992787FD90950895FB01DC0102C06B
:1034500005900D9241505040D8F70895FC01059019
:10346000615070400110D8F7809590958E0F9F1F86
:103470000895FC016150704001900110D8F78095CB
:1034800090958E0F9F1F08950F931F93CF93DF93F7
:10349000182F092FEB018B8181FD03C08FEF9FEF68
:1034A00020C082FF10C04E815F812C813D81421778
:1034B00053077CF4E881F9819F012F5F3F4F3983E7
:1034C0002883108306C0E885F985812F0995892B0B
:1034D00029F72E813F812F5F3F4F3F832E83812F1E
:1034E000902FDF91CF911F910F910895A0E0B0E050
:1034F000ECE7FAE10C942619FE0135966191719181
:10350000AF0180911601909117010E945D13E2E0D6
:103510000C944219FA01AA27283051F1203181F187
:10352000E8946F936E7F6E5F7F4F8F4F9F4FAF4FCB
:10353000B1E03ED0B4E03CD0670F781F891F9A1FDE
:10354000A11D680F791F8A1F911DA11D6A0F711D92
:10355000811D911DA11D20D009F468943F912AE09E
:10356000269F11243019305D3193DEF6CF01089586
:10357000462F4770405D4193B3E00FD0C9F7F6CFB7
:10358000462F4F70405D4A3318F0495D31FD40527F
:10359000419302D0A9F7EACFB4E0A6959795879515
:1035A00077956795BA95C9F70097610571050895F4
:1035B0009B01AC010A2E06945795479537952795A0
:1035C000BA95C9F7620F731F841F951FA01D089538
:1035D000DC01CB01FC01E199FECF06C0FFBBEEBBD5
:1035E000E09A31960DB20D9241505040B8F70895CF
:1035F000E199FECF9FBB8EBBE09A99278DB30895CA
:10360000DC01A40FB51F4150504048F0CB01840F9E
:10361000951F2E910E94111B41505040D0F70895E4
:10362000262FE199FECF9FBB8EBBE09A01970DB28A
:10363000021631F02DBB0FB6F894E29AE19A0FBE54
:103640000895262FE199FECF9FBB8EBB2DBB0FB6F1
:10365000F894E29AE19A0FBE01960895F894FFCF8C
:10366000FF0000007A440000803F00409C46CDCC23
:10367000CC3D010000C84224F47F800000803F0060
:103680000000000200000000D709000000002538FB
:103690002E3166487A00202535754D487A0025334D
:1036A000750025372E356600756E74696C2072655D
:1036B0006C65617365202020006D696E20202020DC
:1036C00020202020202020202000756E74696C208E
:1036D00073746F702020200025382E33666D7320A0
:1036E00020202020200025352E3166252500253874
:0636F0002E3266487A004C
:00000001FF
