:100000000C942F050C9492070C949D070C944C05AE
:100010000C94460A0C944C050C944C050C944C051D
:100020000C944C050C944C050C944C050C944C050C
:100030000C944C050C944C050C944C050C944C05FC
:100040000C944C050C944C050C94A8070C944C058E
:100050000C944C0562016207620662036205620449
:1000600062020A0E2D73C440AA8FDDF36B97B98D1F
:100070007757E352933F2507995F8B37307B3A8957
:10008000C6AE4E58E44B4805D6F25C44EFF869F62C
:1000900092561D96AB2F8835F53683FC8E60E0DADC
:1000A000A85BDF7E4D3B38912BFA21C2230D2ECE6B
:1000B0003CB60332ED86E60F556A34B87045499B6D
:1000C00076BC185A414628FD2CB0EAB2DE65BB105A
:1000D00059F19DB729D4EB42856F39D526907FA77A
:1000E000E8D998C18C1162AD81660C5D19011EC8FA
:1000F00087E12AD224D143E74F68C0AF5E9E84E2F5
:1001000050CB1AC3B47404AC64A013D331009CFE6A
:100110004AB378153EEE947C1C72A1209F95CF3D8A
:1001200082B5BD54A6476E75C71BD70916F01202DB
:10013000B1064CCDA9A26CA561CA7D1F221714C5BA
:10014000D86D8AF751A3FBF463BF79C927EC7A9A7B
:10015000BE80FFE5BACC0BDBDCF967E9A408D071FF
:100160003353000000000000000000000001010205
:1001700003030405060708090A0C0D0F10121315D6
:1001800017191B1D1F212325272A2C2E3133363802
:100190003B3E404346494C4F5154575A5D6063675C
:1001A0006A6D707376797C808386898C8F9295983E
:1001B0009C9FA2A5A8ABAEB0B3B6B9BCBFC1C4C723
:1001C000C9CCCED1D3D5D8DADCDEE0E2E4E6E8EA89
:1001D000ECEDEFF0F2F3F5F6F7F8F9FAFBFCFCFDC5
:1001E000FEFEFFFFFFFFFFFFFFFFFFFFFFFEFEFD25
:1001F000FCFCFBFAF9F8F7F6F5F3F2F0EFEDECEAB8
:10020000E8E6E4E2E0DEDCDAD8D5D3D1CECCC9C76B
:10021000C4C1BFBCB9B6B3B0AEABA8A5A29F9C98F1
:1002200095928F8C898683807C797673706D6A67EE
:1002300063605D5A5754514F4C494643403E3B38EA
:100240003633312E2C2A272523211F1D1B19171564
:100250001312100F0D0C0A09080706050403030208
:100260000101494A4B4B4A4949494948474544439A
:100270004343444443413E3D3B39383737363636B5
:10028000373737373737363533323131343D4D65CF
:1002900084A9CFEEFFFEEAC69A6D44251105000140
:1002A000060D141C242D34393D404142434444453D
:1002B00046474747474747474748484849494A4BC1
:1002C0004B4C4D4E4F505152535456585B5D6062EB
:1002D0006466686B6D707376797B7D7E7F7F7F7FD0
:1002E0007F7E7D7C797774716D6966625F5C59573A
:1002F00054514F4D4C4B4A4948464544434343446F
:1003000044444545454545454546474849494A4A87
:100310004B4B4B4B4B4B4A4A494949494848484744
:10032000474747474747464646454545454546466C
:100330004645444443434343424242414141414193
:1003400041414140403F3F404041414141414141A5
:100350004040404040404040414141424344454785
:10036000484900020406080A0C0E10121416181A46
:100370001C1E20222426282A2C2E30323436383ACD
:100380003C3E40424446484A4C4E50525456585ABD
:100390005C5E60626466686A6C6E70727476787AAD
:1003A0007C7E80828486888A8C8E90929496989A9D
:1003B0009C9EA0A2A4A6A8AAACAEB0B2B4B6B8BA8D
:1003C000BCBEC0C2C4C6C8CACCCED0D2D4D6D8DA7D
:1003D000DCDEE0E2E4E6E8EAECEEF0F2F4F6F8FA6D
:1003E000FCFEFFFDFBF9F7F5F3F1EFEFEBE9E7E5D5
:1003F000E3E1DFDDDBD9D7D5D3D1CFCFCBC9C7C5BB
:10040000C3C1BFBDBBB9B7B5B3B1AFAFABA9A7A5AA
:10041000A3A19F9D9B99979593918F8F8B8987859A
:1004200083817F7D7B79777573716F6F6B6967658A
:1004300063615F5D5B59575553514F4F4B4947457A
:1004400043413F3D3B39373533312F2F2B2927256A
:1004500023211F1D1B19171513110F0F0B0907055A
:100460000301FFFEFDFCFBFAF9F8F7F6F5F4F3F2F1
:10047000F1F0EFEEEDECEBEAE9E8E7E6E5E4E3E2E4
:10048000E1E0DFDEDDDCDBDAD9D8D7D6D5D4D3D2D4
:10049000D1D0CFCECDCCCBCAC9C8C7C6C5C4C3C2C4
:1004A000C1C0BFBEBDBCBBBAB9B8B7B6B5B4B3B2B4
:1004B000B1B0AFAEADACABAAA9A8A7A6A5A4A3A2A4
:1004C000A1A09F9E9D9C9B9A999897969594939294
:1004D00091908F8E8D8C8B8A898887868584838284
:1004E00081807F7E7D7C7B7A797877767574737274
:1004F00071706F6E6D6C6B6A696867666564636264
:1005000061605F5E5D5C5B5A595857565554535253
:1005100051504F4E4D4C4B4A494847464544434243
:1005200041403F3E3D3C3B3A393837363534333233
:1005300031302F2E2D2C2B2A292827262524232223
:1005400021201F1E1D1C1B1A191817161514131213
:1005500011100F0E0D0C0B0A090807060504030203
:100560000100000102030405060708090A0B0C0D2F
:100570000E0F101112131415161718191A1B1C1D23
:100580001E1F202122232425262728292A2B2C2D13
:100590002E2F303132333435363738393A3B3C3D03
:1005A0003E3F404142434445464748494A4B4C4DF3
:1005B0004E4F505152535455565758595A5B5C5DE3
:1005C0005E5F606162636465666768696A6B6C6DD3
:1005D0006E6F707172737475767778797A7B7C7DC3
:1005E0007E7F808182838485868788898A8B8C8DB3
:1005F0008E8F909192939495969798999A9B9C9DA3
:100600009E9FA0A1A2A3A4A5A6A7A8A9AAABACAD92
:10061000AEAFB0B1B2B3B4B5B6B7B8B9BABBBCBD82
:10062000BEBFC0C1C2C3C4C5C6C7C8C9CACBCCCD72
:10063000CECFD0D1D2D3D4D5D6D7D8D9DADBDCDD62
:10064000DEDFE0E1E2E3E4E5E6E7E8E9EAEBECED52
:10065000EEEFF0F1F2F3F4F5F6F7F8F9FAFBFCFD42
:10066000FEFF00000000000000000000000000008D
:10067000000000000000000000000000000000007A
:10068000000000000000000000000000000000006A
:10069000000000000000000000000000000000005A
:1006A000000000000000000000000000000000004A
:1006B000000000000000000000000000000000003A
:1006C000000000000000000000000000000000002A
:1006D000000000000000000000000000000000001A
:1006E0000000FFFFFFFFFFFFFFFFFFFFFFFFFFFF18
:1006F000FFFFFFFFFFFFFFFFFFFFFFFFFFFFFFFF0A
:10070000FFFFFFFFFFFFFFFFFFFFFFFFFFFFFFFFF9
:10071000FFFFFFFFFFFFFFFFFFFFFFFFFFFFFFFFE9
:10072000FFFFFFFFFFFFFFFFFFFFFFFFFFFFFFFFD9
:10073000FFFFFFFFFFFFFFFFFFFFFFFFFFFFFFFFC9
:10074000FFFFFFFFFFFFFFFFFFFFFFFFFFFFFFFFB9
:10075000FFFFFFFFFFFFFFFFFFFFFFFFFFFFFFFFA9
:10076000FFFF808386898C8F9295989C9FA2A5A875
:10077000ABAEB0B3B6B9BCBFC1C4C7C9CCCED1D380
:10078000D5D8DADCDEE0E2E4E6E8EAECEDEFF0F220
:10079000F3F5F6F7F8F9FAFBFCFCFDFEFEFFFFFFB0
:1007A000FFFFFFFFFFFFFFFFFEFEFDFCFCFBFAF972
:1007B000F8F7F6F5F3F2F0EFEDECEAE8E6E4E2E064
:1007C000DEDCDAD8D5D3D1CECCC9C7C4C1BFBCB961
:1007D000B6B3B0AEABA8A5A29F9C9895928F8C891A
:1007E0008683807C797673706D6A6763605D5A5723
:1007F00054514F4C494643403E3B383633312E2C02
:100800002A272523211F1D1B1917151312100F0D41
:100810000C0A090807060504030302010100000091
:1008200000000000000000000101020303040506AF
:100830000708090A0C0D0F1012131517191B1D1F9D
:10084000212325272A2C2E313336383B3E40434680
:10085000494C4F5154575A5D6063676A6D707376A7
:10086000797C2020202052616E646F6D0020202052
:1008700020202020202020202020202020004F4643
:1008800046004F4E2000A7090014069609A6092D20
:10089000065E0665096509520900D4069609A6098F
:1008A000E706F506650965090D0A00660544095461
:1008B000098F05CB057E0B8D09FC090166054409EE
:1008C00054098F05CB057E0B8D09EB0902660544A3
:1008D0000954098F05CB057E0B8D09DA09036605DE
:1008E000440954098F05CB057E0B8D09C90904669F
:1008F00005440954098F05CB057E0B8D09B8090500
:100900006605440954098F05CB057E0B8D099609B0
:10091000004F05440954094E054E05E2098D09852D
:1009200009008E06440954098B0A9A0A8B0B8D091B
:10093000740900AD064409540908074507AC0B8D3E
:10094000096309006605440954098F05CB05F609BA
:100950008D092020204F6666204C6576656C20202E
:100960002020002020202020537765657020202043
:10097000202020002020202050574D202848532997
:1009800020202020002020204869676820537065BF
:1009900065642020200020202020204E6F69736590
:1009A0002020202020200020202020467265712059
:1009B00053746570202020002020202020204543F3
:1009C0004720202020202020002020526576205320
:1009D0006177546F6F7468202000202020205361BD
:1009E00077546F6F7468202020200020202020542E
:1009F0007269616E676C6520202020002020202015
:100A00002053717561726520202020200020202055
:100A100020202053696E6520202020202000001F08
:100A2000000000001F00001F101010101F00001F0A
:100A3000181818181F00001F1C1C1C1C1F00001F6A
:100A40001E1E1E1E1F00001F1F1F1F1F1F0003074B
:100A50000F1F0F070300181C1E1F1E1C1800112457
:100A60001FBECFE5D4E0DEBFCDBF10E0A0E6B0E012
:100A7000ECECF3E202C005900D92A239B107D9F770
:100A800010E0A2E9B0E001C01D92A23CB107E1F77D
:100A90000E94780D0C94E4110C940000089561E01C
:100AA00080E00E94490C41E060E082E698E00E940C
:100AB000570C8091B000882319F082E898E002C0BA
:100AC0008EE798E041E06DE00C94570C61E080E027
:100AD0000E94490C8091AC009091AD00A091AE00B5
:100AE000B091AF00BF93AF939F938F938FE690E049
:100AF0009F938F930E940C0F8091B0000F900F90E6
:100B00000F900F900F900F90882319F082E898E0D3
:100B100002C08EE798E041E06DE00C94570C4091E4
:100B2000AC005091AD006091AE007091AF0080912B
:100B3000B2009091B300A091B400B091B5004817F5
:100B400059076A077B07E8F08091AC009091AD00EF
:100B5000A091AE00B091AF004091B2005091B300AF
:100B60006091B4007091B500841B950BA60BB70B78
:100B70008093AC009093AD00A093AE00B093AF0013
:100B800008C01092AC001092AD001092AE0010920E
:100B9000AF000C946605CF92DF92EF92FF920F9315
:100BA0001F930091AC001091AD002091AE003091E8
:100BB000AF004091B2005091B3006091B4007091C9
:100BC000B50080EA96E8A1E0B0E06C017D01C01AB2
:100BD000D10AE20AF30AC416D506E606F706A0F023
:100BE0004091AC005091AD006091AE007091AF00AB
:100BF0008091B2009091B300A091B400B091B50083
:100C0000840F951FA61FB71F8093AC009093AD0073
:100C1000A093AE00B093AF001F910F91FF90EF90A3
:100C2000DF90CF900C94660561E080E00E94490C53
:100C30008091B2009091B300A091B400B091B50042
:100C40009F938F9386E790E09F938F930E940C0F62
:100C50000F900F900F900F9008958091B200909197
:100C6000B300A091B400B091B5000197A105B10502
:100C700069F480E197E2A0E0B0E08093B200909345
:100C8000B300A093B400B093B50016C06091B20059
:100C90007091B3008091B4009091B5002AE030E0EB
:100CA00040E050E00E94D20E2093B2003093B30097
:100CB0004093B4005093B5000C9414068091B20098
:100CC0009091B300A091B400B091B50080319742EB
:100CD000A105B10569F481E090E0A0E0B0E0809367
:100CE000B2009093B300A093B400B093B50014C0C9
:100CF0002091B2003091B3004091B4005091B50002
:100D0000AAE0B0E00E949F0E6093B2007093B3001F
:100D10008093B4009093B5000C94140661E080E0D9
:100D20000E94490C8091B1001F928F9380E890E05F
:100D30009F938F930E940C0F8091B0000F900F90A3
:100D40000F900F90882319F082E898E002C08EE798
:100D500098E041E06DE00C94570C61E080E00E9467
:100D6000490C2091B8008091B6009091B7001F9275
:100D70002F939F938F9388E890E09F938F930E9487
:100D80000C0F8091B0000F900F900F900F900F906C
:100D90000F90882319F082E898E002C08EE798E06F
:100DA00041E06DE00C94570C61E080E00E94490C3A
:100DB0008091B9001F928F938EE890E09F938F935C
:100DC0000E940C0F0F900F900F900F90089580913C
:100DD000B900882329F08091B90081508093B9002F
:100DE0008091B9008BBB0C94D4068091B9008F3FE1
:100DF00029F08091B9008F5F8093B9008091B9008C
:100E00008BBB0C94D4060E94D60B80E090E0089532
:100E10008091B000811129C08091B6009091B700F7
:100E2000803D23E09207B9F048F48D33910581F0BD
:100E3000843F910541F58DE390E012C085382EE1A5
:100E4000920761F08432944FF1F485E89EE108C086
:100E500084E294EF05C084EF90E002C080ED93E05F
:100E60009093B7008093B6000EC08091B80088239D
:100E700029F08091B80081508093B8008091B8002B
:100E800090E09BBD8ABD0C94AD068091B0008111AD
:100E900029C08091B6009091B700803D23E0920771
:100EA000B9F048F48D33910581F0843F910541F507
:100EB00080ED93E012C085382EE1920761F0843214
:100EC000944FF1F48DE390E008C084EF90E005C00A
:100ED00085E89EE102C084E294EF9093B70080938E
:100EE000B6000EC08091B8008F3F29F08091B80005
:100EF0008F5F8093B8008091B80090E09BBD8ABD61
:100F00000C94AD0614BC089585B5866085BD89B77F
:100F1000806489BF089583B7897F83BF89B78F7B3A
:100F200089BF08951F920F920FB60F9211246A9AEB
:100F30000F900FBE0F901F9018951F920F920FB633
:100F40000F9211246A9A0F900FBE0F901F90189560
:100F50001F920F920FB60F9211246A9A0F900FBE34
:100F60000F901F9018958091930090919400AC0180
:100F70004F5F5F4F5093940040939300849B0CC04D
:100F8000839B0CC0809B0CC0819B0CC0829B0CC0BF
:100F9000B2990CC066E00BC061E009C062E007C016
:100FA00063E005C064E003C065E001C060E020913B
:100FB0009900261759F0611119C0209195003091C0
:100FC0009600241B350B37FF22C010C020919900DA
:100FD0002223E9F02091970030919800241B350BD3
:100FE00037FF15C010929A0009960DC09C012B5E28
:100FF0003F4F309396002093950060939900109294
:101000009A008B599F4F9093980080939700089572
:101010000C94F2100F931F93CF93DF931F92CDB7D1
:10102000DEB78C0169830E94F2106981861741F056
:10103000C8010F90DF91CF911F910F910C94FA107E
:101040000F90DF91CF911F910F910895CF93DF9370
:101050006091920080E090E00E940A08CCEAD0E023
:10106000688179818A819B8181E090E00E940A08F1
:1010700088819981AA81BB81692F7A2F8B2F99272B
:1010800082E090E00E940A0888819981AA81BB8150
:10109000BD018827992783E090E00E940A08C2EBEF
:1010A000D0E0688179818A819B8184E090E00E9410
:1010B0000A0888819981AA81BB81692F7A2F8B2F99
:1010C000992785E090E00E940A086091B10086E0CF
:1010D00090E00E940A08C6EBD0E06881798187E041
:1010E00090E00E940A0888819981692F88E090E049
:1010F0000E940A086091B80089E090E00E940A0806
:101100006091B9008AE090E0DF91CF910C940A08D9
:101110001092920088EE93E0A0E0B0E08093AC00E3
:101120009093AD00A093AE00B093AF0084E690E042
:10113000A0E0B0E08093B2009093B300A093B4001D
:10114000B093B50081E08093B10084E294EF909376
:10115000B7008093B60080E88093B8008093B90010
:101160000E94260864E58FEF91E00C94FA10CF936B
:10117000DF938FEF91E00E94F210843511F00E940E
:10118000880880E090E00E94F2108093920081E055
:1011900090E00E94F210C82F82E090E00E94F210CE
:1011A000D82F83E090E00E94F210482F50E060E0DA
:1011B00070E0BA01552744275D2B4C2B4093AC00BF
:1011C0005093AD006093AE007093AF0084E090E068
:1011D0000E94F210C82F85E090E00E94F2104C2F80
:1011E00050E060E070E0582B4093B2005093B300A1
:1011F0006093B4007093B50086E090E00E94F21016
:101200008093B10087E090E00E94F210C82F88E040
:1012100090E00E94F2102C2F30E0382B3093B70072
:101220002093B60089E090E00E94F2108093B8000D
:101230008AE090E00E94F2108093B900DF91CF9194
:1012400008956091920081E1689FB0011124685572
:10125000774F41E150E08BE990E00E94030F80EA74
:1012600090E09093BB008093BA000E94240C40E071
:1012700060E080919B0090919C000E94570CE0914F
:101280009E00F0919F0009948091B00081110BC0E5
:1012900080919200811102C089E001C08150809349
:1012A00092000C94210908958091B00081110CC026
:1012B000809192008F5F8A3019F08093920002C073
:1012C000109292000C94210908958FEF8093600092
:1012D0000C9421096091600081E1689FB0011124A4
:1012E0006A57774F41E150E08BE990E00E94030F8D
:1012F00080EA90E09093BB008093BA000E94240C97
:1013000040E060E080919B0090919C000E94570C0F
:10131000E0919E00F0919F0009948091B0008111AE
:1013200004C0109260000C946A0908958091B00086
:1013300081110BC080916000811102C081E001C069
:101340008150809360000C946A0908958091B000E8
:1013500081110CC0809160008F5F823019F0809302
:10136000600002C0109260000C946A090895809198
:1013700099008111FCCF8BB7806E8BBF0C948B07CB
:101380008BB78F718BBF0C9484070E94260881E075
:101390008093B000E0919E00F0919F0009950C941D
:1013A000B7090E94C0091092B0008091B9008BBBB0
:1013B000E0919E00F0919F00099580919900811124
:1013C000FCCF08950E94C5096A9840E051E062E6AA
:1013D00070E080E091E00E94030FE0E0F1E0008027
:1013E000E3950BBA6A9BFBCF0C94D109FF920F9344
:1013F0001F93CF93DF930E94260881E08093B00073
:10140000E0919E00F0919F0009950E94B7096091BC
:10141000AC007091AD008091AE009091AF000E9441
:10142000110E2EE833E049ED5DE30E947D0D0E9430
:10143000E50DEB01F82E6A9840E051E062E671E0BC
:1014400080E091E00E94030F40E090E081E0E0E066
:10145000F1E0222733270BE010E02C0F3D1FEF1D9A
:1014600019F000800BBAF9CFC80FD91FF41EF1167E
:1014700009F4E395F0166A9B81F71092B000DF91B2
:10148000CF911F910F91FF900C94D1091F920F9251
:101490000FB60F9211242F933F934F935F936F9347
:1014A0007F938F939F93AF93BF93EF93FF930E948C
:1014B000B307FF91EF91BF91AF919F918F917F9172
:1014C0006F915F914F913F912F910F900FBE0F90B1
:1014D0001F901895843039F0883041F0823049F4FB
:1014E00083E090E008C081E090E005C01BBC1ABC1E
:1014F00004C087E090E09BBD8ABD80E48FBD89E099
:101500008EBD08958091B000882321F08091B100B4
:101510000C946A0A08958091B100813011F488E03A
:1015200003C08091B10086958093B1000E948E0621
:101530000C94820A8091B100883011F481E003C0DC
:101540008091B100880F8093B1000E948E060C94A8
:10155000820A843F910591F020F4CD9769F485E0EB
:101560000EC0803D23E0920729F085389E4121F48A
:1015700082E005C083E003C081E001C084E091E81F
:101580009FBD88608EBD08951EBC089581E690E0E1
:101590009093BF008093BE000E94940C0E94240C84
:1015A0000E940E0D0E94B7081092B0008091B90001
:1015B0008BBB8FEF8ABB81B3807E81BB82B38F618F
:1015C00082BBBA9884E088BB8D9A14BC0E94C00983
:1015D0000E9421097894089580919A00811143C056
:1015E0008091990091E090939A008330E1F028F483
:1015F000813049F0823079F00895853021F1D8F0BA
:10160000863049F10895E091BA00F091BB00019055
:10161000F081E02D27C0E091BA00F091BB00068078
:10162000F781E02D1FC0E091BA00F091BB0002806D
:10163000F381E02D17C0E091BA00F091BB00048067
:10164000F581E02D0FC0E091BA00F091BB0000845D
:10165000F185E02D07C0E091BA00F091BB00028453
:10166000F385E02D099408951F93CF93DF93809124
:10167000B000882309F43EC06091AC007091AD00C9
:101680008091AE009091AF000E94110E2EE833E0E1
:1016900049ED5DE30E947D0D0E94E50DEB01182FE1
:1016A0006A98E0919D00F0E0EE0FFF1FEA5AFF4FAD
:1016B0006591749140E051E080E091E00E94030F59
:1016C000E0E0F1E0222733272C0F3D1FE11F0080CF
:1016D0000BBA6A9BF9CF8091B9008BBB0E94C009FD
:1016E00080919900882319F00E94EC0AF9CF0E949A
:1016F000B709BDCFDF91CF911F9108958091B000C0
:10170000811106C00E94C5090E94340B0C94D109B6
:101710001092B00008958091B000882329F01092B3
:10172000B0001EBC959808950E94260881E0809321
:10173000B000E0919E00F0919F0009950E94820AFE
:101740008091B000882319F00E94EC0AF9CFE09153
:101750009E00F0919F0009948091B000882329F0A9
:101760001092B0001EBC959808950E94260881E052
:101770008093B000E0919E00F0919F0009958091C8
:10178000B80090E09BBD8ABD8091B6009091B700F3
:101790000E94A90A8091B000882319F00E94EC0AE7
:1017A000F9CFE0919E00F0919F000994982F907FCF
:1017B00095BBA89AAA9AEFE9FFE03197F1F700C02C
:1017C0000000AA98A898EFE9FFE03197F1F700C070
:1017D0000000F0E18F9FC001112485BBA89AAA9A4E
:1017E0008FE99FE00197F1F700C00000AA98A89840
:1017F000EFE9FFE03197F1F700C000000895982F5E
:10180000907F95BBAA9AEFE9FFE03197F1F700C00E
:101810000000AA98EFE9FFE03197F1F700C000005F
:10182000F0E18F9FC001112485BBAA9A8FE99FE048
:101830000197F1F700C00000AA98EFE9FFE03197A7
:10184000F1F700C00000089581E00C94FF0B82E0E6
:101850000C94FF0BEF92FF921F93CF93DF931F9295
:10186000CDB7DEB7009771F0182F7C018E2D811B4C
:10187000861740F4F70181917F0169830E94D60B9E
:101880006981F4CF0F90DF91CF911F91FF90EF907E
:101890000895623031F0633031F0613029F4805CBA
:1018A00003C08C5E01C08C5A80680C94FF0B1F93A0
:1018B000CF93DF93EC01862F642F0E94490C10E038
:1018C000FE01E10FF11D8491882321F00E94D60BC7
:1018D0001F5FF6CFDF91CF911F910895EF92FF9296
:1018E0000F931F93CF93DF938C0188E0689FB00123
:1018F0001124862F8064E82EC0E0D0E0F801EC0FC0
:10190000FD1FF4908C2F8E0D0E94FF0B8F2D0E94D7
:10191000D60B2196C830D10589F7DF91CF911F9161
:101920000F91FF90EF9008951F93CF93DF938FE572
:101930009AEE0197F1F700C0000015BA15BA84B30A
:10194000806F84BB84B3876084BB80E385BBAA9A25
:101950008FE99FE00197F1F700C00000AA988FE996
:101960009FE00197F1F700C0000080E385BBAA9AD1
:101970008FE99FE00197F1F700C00000AA988FE976
:101980009FE00197F1F700C0000080E285BBAA9AB2
:101990008FE99FE00197F1F700C00000AA988FE956
:1019A0009FE00197F1F700C0000088E20E94FF0B62
:1019B0008CE00E94FF0BCEE1DAE060E011E0160F50
:1019C000CE010E946E0C2896183011F0612FF6CFD0
:1019D000DF91CF911F910895CF93DF93D82FC0E06F
:1019E000CD1729F08EE10E94FF0BCF5FF9CFDF9179
:1019F000CF910895CF93DF93D82FC0E0CD1729F072
:101A000088E10E94FF0BCF5FF9CFDF91CF9108955E
:101A10008EE00C94FF0B8FE00C94FF0B8CE00C9489
:101A2000FF0B88E00C94FF0B8CE00C94FF0BCF9322
:101A3000DF93D82FC0E0CD1729F080E10E94FF0B83
:101A4000CF5FF9CFDF91CF910895CF93DF93D82F58
:101A5000C0E0CD1729F084E10E94FF0BCF5FF9CFE2
:101A6000DF91CF910895CF92DF92EF92FF920F9383
:101A70001F93CF93DF931F92CDB7DEB756E0459FFC
:101A800090011124E82FE29FC001E39F900D1124E3
:101A900070E00E94BE0E8B01CB0166E070E00E94F8
:101AA000AA0EE82EC12CD12CF12CF416B9F0960117
:101AB0002B5F3F4F0217130728F40C151D0520F06C
:101AC0008E2D03C085E001C080E049830E94D60BC3
:101AD000F394F6E0CF0ED11C4981E7CF0F90DF9150
:101AE000CF911F910F91FF90EF90DF90CF900895CD
:101AF0000E94C60A0E94EC0AFDCF0CD0E6C0DED0E0
:101B000040F0D5D030F021F45F3F19F0C7C051113B
:101B100010C1CAC0EBD098F39923C9F35523B1F390
:101B2000951B550BBB27AA2762177307840738F04C
:101B30009F5F5F4F220F331F441FAA1FA9F333D0AB
:101B40000E2E3AF0E0E830D091505040E695001C5F
:101B5000CAF729D0FE2F27D0660F771F881FBB1F1B
:101B6000261737074807AB07B0E809F0BB0B802DF5
:101B7000BF01FF2793585F4F2AF09E3F510568F041
:101B80008DC0D7C05F3FECF3983EDCF38695779528
:101B90006795B795F7959F5FC9F7880F911D969543
:101BA000879597F90895E1E0660F771F881FBB1F9F
:101BB000621773078407BA0720F0621B730B840B4C
:101BC000BA0BEE1F88F7E095089598D088F09F57DC
:101BD00090F0B92F9927B751A0F0D1F0660F771F79
:101BE000881F991F1AF0BA95C9F712C0B13081F059
:101BF0009FD0B1E008959CC0672F782F8827B85FE9
:101C000039F0B93FCCF3869577956795B395D9F7B9
:101C10003EF490958095709561957F4F8F4F9F4FC3
:101C20000895E89409C097FB3EF4909580957095CF
:101C300061957F4F8F4F9F4F9923A9F0F92F96E918
:101C4000BB279395F695879577956795B795F1118D
:101C5000F8CFFAF4BB0F11F460FF1BC06F5F7F4F2A
:101C60008F4F9F4F16C0882311F096E911C077233C
:101C700021F09EE8872F762F05C0662371F096E845
:101C8000862F70E060E02AF09A95660F771F881F14
:101C9000DAF7880F9695879597F9089597F99F67D2
:101CA00080E870E060E008959FEF80EC08950024E4
:101CB0000A941616170618060906089500240A94B1
:101CC00012161306140605060895092E0394000C37
:101CD00011F4882352F0BB0F40F4BF2B11F460FFC6
:101CE00004C06F5F7F4F8F4F9F4F089557FD9058EF
:101CF000440F551F59F05F3F71F04795880F97FBD0
:101D0000991F61F09F3F79F0879508951216130689
:101D10001406551FF2CF4695F1DF08C016161706B8
:101D20001806991FF1CF86957105610508940895ED
:101D3000E894BB2766277727CB0197F908950E947F
:101D4000F40EA59F900DB49F900DA49F800D911D42
:101D500011240895AA1BBB1B51E107C0AA1FBB1F7A
:101D6000A617B70710F0A61BB70B881F991F5A9527
:101D7000A9F780959095BC01CD01089597FB072E9A
:101D800016F4009407D077FD09D00E94AA0E07FC34
:101D900005D03EF4909581959F4F0895709561957B
:101DA0007F4F0895A1E21A2EAA1BBB1BFD010DC097
:101DB000AA1FBB1FEE1FFF1FA217B307E407F507FB
:101DC00020F0A21BB30BE40BF50B661F771F881FD7
:101DD000991F1A9469F760957095809590959B016D
:101DE000AC01BD01CF010895A29FB001B39FC00116
:101DF000A39F700D811D1124911DB29F700D811D37
:101E00001124911D0895FB01DC0102C005900D9283
:101E100041505040D8F70895A0E0B0E0E2E1FFE083
:101E20000C94BD11FE01359661917191AF018091C5
:101E3000BE009091BF000E94200FE2E00C94D911E7
:101E4000ACE0B0E0E6E2FFE00C94AD117C016B0188
:101E50008A01FC0117821682838181FFBDC1CE01F8
:101E600001964C01F7019381F60193FD859193FF53
:101E700081916F01882309F4ABC1853239F493FD58
:101E8000859193FF81916F01853229F4B70190E02C
:101E90000E941D11E7CF512C312C20E02032A0F4FC
:101EA0008B3269F030F4803259F0833269F420616A
:101EB0002CC08D3239F0803339F4216026C0226085
:101EC000246023C0286021C027FD27C030ED380FD3
:101ED0003A3078F426FF06C0FAE05F9E300D1124F8
:101EE000532E13C08AE0389E300D1124332E206209
:101EF0000CC08E3221F426FD6BC1206406C08C36E6
:101F000011F4206802C0883641F4F60193FD8591F2
:101F100093FF81916F018111C1CF982F9F7D9554BF
:101F2000933028F40C5F1F4FFFE3F9830DC0833615
:101F300031F0833771F0833509F05BC022C0F801BE
:101F4000808189830E5F1F4F44244394512C540198
:101F500015C03801F2E06F0E711CF801A080B1804D
:101F600026FF03C0652D70E002C06FEF7FEFC50153
:101F70002C870E9412112C0183012C852F77222E91
:101F800017C03801F2E06F0E711CF801A080B1801B
:101F900026FF03C0652D70E002C06FEF7FEFC50123
:101FA0002C870E9407112C012C852068222E83018A
:101FB00023FC1BC0832D90E048165906B0F4B701EE
:101FC00080E290E00E941D113A94F4CFF50127FCC5
:101FD000859127FE81915F01B70190E00E941D115C
:101FE00031103A94F1E04F1A51084114510471F73D
:101FF000E5C0843611F0893639F5F80127FF07C0AE
:1020000060817181828193810C5F1F4F08C0608164
:102010007181882777FD8095982F0E5F1F4F2F764F
:10202000B22E97FF09C090958095709561957F4F6E
:102030008F4F9F4F2068B22E2AE030E0A4010E940B
:102040004F11A82EA81844C0853729F42F7EB22E30
:102050002AE030E025C0F22FF97FBF2E8F36C1F085
:1020600018F4883579F0B4C0803719F0883721F03A
:10207000AFC02F2F2061B22EB4FE0DC08B2D846017
:10208000B82E09C024FF0AC09F2F9660B92E06C043
:1020900028E030E005C020E130E002C020E132E07D
:1020A000F801B7FE07C060817181828193810C5F66
:1020B0001F4F06C06081718180E090E00E5F1F4F6E
:1020C000A4010E944F11A82EA818FB2DFF77BF2E48
:1020D000B6FE0BC02B2D2E7FA51450F4B4FE0AC003
:1020E000B2FC08C02B2D2E7E05C07A2C2B2D03C0F0
:1020F0007A2C01C0752C24FF0DC0FE01EA0DF11DE4
:102100008081803311F4297E09C022FF06C07394B8
:10211000739404C0822F867809F0739423FD13C052
:1021200020FF06C05A2C731418F4530C5718732C44
:10213000731468F4B70180E290E02C870E941D11AF
:1021400073942C85F5CF731410F4371801C0312C1B
:1021500024FF12C0B70180E390E02C870E941D117C
:102160002C8522FF17C021FF03C088E590E002C044
:1021700088E790E0B7010CC0822F867859F021FDE6
:1021800002C080E201C08BE227FD8DE2B70190E042
:102190000E941D11A51438F4B70180E390E00E945D
:1021A0001D115A94F7CFAA94F401EA0DF11D808114
:1021B000B70190E00E941D11A110F5CF332009F462
:1021C00051CEB70180E290E00E941D113A94F6CF03
:1021D000F7018681978102C08FEF9FEF2C96E2E195
:1021E0000C94C911E199FECF9FBB8EBBE09A992751
:1021F0008DB30895262FE199FECF9FBB8EBB2DBBDB
:102200000FB6F894E29AE19A0FBE01960895FC0188
:102210000590615070400110D8F7809590958E0F11
:102220009F1F0895FC016150704001900110D8F784
:10223000809590958E0F9F1F08950F931F93CF93B6
:10224000DF93182F092FEB018B8181FD03C08FEFE6
:102250009FEF20C082FF10C04E815F812C813D81A5
:10226000421753077CF4E881F9819F012F5F3F4FAC
:1022700039832883108306C0E885F985812F099565
:10228000892B29F72E813F812F5F3F4F3F832E837C
:10229000812F902FDF91CF911F910F910895FA0117
:1022A000AA27283051F1203181F1E8946F936E7F95
:1022B0006E5F7F4F8F4F9F4FAF4FB1E03ED0B4E086
:1022C0003CD0670F781F891F9A1FA11D680F791FC7
:1022D0008A1F911DA11D6A0F711D811D911DA11DD8
:1022E00020D009F468943F912AE0269F11243019E8
:1022F000305D3193DEF6CF010895462F4770405D83
:102300004193B3E00FD0C9F7F6CF462F4F70405D31
:102310004A3318F0495D31FD4052419302D0A9F78C
:10232000EACFB4E0A6959795879577956795BA9586
:10233000C9F700976105710508959B01AC010A2E4C
:1023400006945795479537952795BA95C9F7620F23
:10235000731F841F951FA01D08952F923F924F92C7
:102360005F926F927F928F929F92AF92BF92CF9225
:10237000DF92EF92FF920F931F93CF93DF93CDB72E
:10238000DEB7CA1BDB0B0FB6F894DEBF0FBECDBFA6
:1023900009942A88398848885F846E847D848C8477
:1023A0009B84AA84B984C884DF80EE80FD800C8180
:1023B0001B81AA81B981CE0FD11D0FB6F894DEBF63
:0C23C0000FBECDBFED010895F894FFCFD3
:1023CC00FF000000020000000003070000000025D1
:1023DC00366C75487A0020202020253575487A0007
:1023EC00202535754D487A00253575487A202533DA
:0223FC0075006A
:00000001FF
