:100000000C94E7000C947F020C9490020C94040171
:100010000C943E060C9404010C9404010C9404010D
:100020000C9404010C9404010C9404010C9404013C
:100030000C9404010C9404010C9404010C9404012C
:100040000C9404010C9404010C949B020C94040184
:100050000C9404012020202052616E646F6D00001A
:10006000415652205349474E414C00002020202049
:100070002020314D487A2020200000536176696E9F
:10008000672053657474696E677300002020202018
:1000900020202020202020000020202020202020A0
:1000A0002020202020202020200000202020202090
:1000B00020204E412020202020202000004F4646B6
:1000C00000004F4E2000002020202020537765653F
:1000D0007020202020202000002020202050574D7C
:1000E0002028485329202020200000202020486973
:1000F0006768205370656564202020000020202060
:1001000020204E6F697365202020202020000020D1
:1001100020202046726571205374657020202000D5
:100120000020202020202045434720202020202080
:10013000200000202052657620536177546F6F7441
:10014000682020000020202020536177546F6F74B6
:100150006820202020000020202020547269616E39
:10016000676C652020202000002020202020537173
:100170007561726520202020200000202020202092
:100180002053696E652020202020200000001F00E1
:100190000000001F00001F101010101F00001F188B
:1001A0001818181F00001F1C1C1C1C1F00001F1EFD
:1001B0001E1E1E1F00001F1F1F1F1F1F0003070FF3
:1001C0001F0F070300181C1E1F1E1C1800001124FF
:1001D0001FBECFE5D4E0DEBFCDBF10E0A0E6B0E0AB
:1001E000ECE4FDE102C005900D92A23BB107D9F706
:1001F00010E0A2EBB0E001C01D92AE3CB107E1F708
:100200000E94CB080C94A40E0C9400000E942907B5
:1002100080E090E0089584E6EFE3FCE93197F1F7A0
:1002200000C000008150C1F7089514BC789408956F
:1002300085B5866085BD89B7806489BF089583B719
:10024000897F83BF89B78F7B89BF0895CF93C82FDC
:100250000E947707E091B200F0E0EE0FFF1FE25935
:10026000FF4F40E060E0808191810E94AA0761E039
:1002700080E00E949C078091B2008630F1F441E05A
:1002800060E089E990E00E94AA0761E080E00E94B6
:100290009C074091C1005091C2006091C3007091D1
:1002A000C4005F934F9386E990E09F938F930E94E1
:1002B000A50B0F900F900F900F908091B200873098
:1002C00061F441E060E089E990E00E94AA0741E022
:1002D00060E084E590E00E94AA078091B200883037
:1002E000C1F441E060E089E990E00E94AA0761E082
:1002F00080E00E949C078091C0001F928F9380EA4B
:1003000090E09F938F930E94A50B0F900F900F90FA
:100310000F908091B2008930D1F461E080E00E94BA
:100320009C078091C7002091C5003091C6001F92A4
:100330008F933F932F9328EA30E03F932F930E94AF
:10034000A50B0F900F900F900F900F900F90809132
:10035000B2008091B200863020F08091B2008A30E5
:10036000F1F441E060E089E990E00E94AA0761E0D1
:1003700080E00E949C074091B6005091B7006091C8
:10038000B8007091B9005F934F9329E930E03F9333
:100390002F930E94A50B0F900F900F900F908091BC
:1003A000B200863059F041E06DE0C13019F482ECC2
:1003B00090E002C08DEB90E00E94AA072FEF81EE43
:1003C00094E0215080409040E1F700C00000CF91C0
:1003D00008958091B2008630C1F461E080E00E940F
:1003E0009C078091C1009091C200A091C300B09180
:1003F000C4009F938F9386E990E09F938F930E9410
:10040000A50B0F900F900F900F908091B200883045
:1004100091F461E080E00E949C078091C0001F92EF
:100420008F9380EA90E09F938F930E94A50B0F908B
:100430000F900F900F908091B2008930A1F461E08D
:1004400080E00E949C078091C5009091C6009F9318
:100450008F938AE990E09F938F930E94A50B0F9052
:100460000F900F900F908091B2008091B200863073
:1004700020F08091B2008A30C1F461E080E00E94F7
:100480009C078091B6009091B700A091B800B09100
:10049000B9009F938F9389E990E09F938F930E9477
:1004A000A50B0F900F900F900F902FEF81EE94E01F
:1004B000215080409040E1F700C0000008958091F5
:1004C000B200893091F461E088E00E949C0780913D
:1004D000C7001F928F938EEA90E09F938F930E94A4
:1004E000A50B0F900F900F900F902FEF81EE94E0DF
:1004F000215080409040E1F700C0000008951F9215
:100500000F920FB60F9211241092BA006A9A1092AD
:10051000BF00829BFECF0F900FBE0F901F901895CB
:100520001F920F920FB60F9211246A9A0F900FBE6E
:100530000F901F9018951F920F920FB60F921124D3
:100540006A9A0F900FBE0F901F901895823041F05D
:1005500068F0843041F0883049F41BBC1ABC0AC0F2
:1005600083E090E005C081E090E002C087E090E089
:100570009BBD8ABD80E48FBD89E08EBD0895CF927A
:10058000DF92EF92FF920F931F938091BA0088231E
:1005900029F08091BA008823A9F016C08499F9CF78
:1005A0008091B200811102C08AE003C08091B20044
:1005B00081508093B2008091BF000E942601849BED
:1005C000FECFE7CF809B03C0839B14C02DC08091DA
:1005D000B2008A3030F48091B2008F5F8093B20015
:1005E00002C01092B2008091BF000E942601809B41
:1005F000FECFEACF8091BA008823C9F08091B20083
:10060000883009F44BC08091B200893009F460C091
:100610008091B2008091B200863008F4BEC0809113
:10062000B2008A3009F4B9C0819B44C15DC1809198
:10063000B200863019F78091C1009091C200A0915C
:10064000C300B091C40080319742A105B10569F49F
:1006500081E090E0A0E0B0E08093C1009093C20000
:10066000A093C300B093C40014C02091C100309186
:10067000C2004091C3005091C400AAE0B0E00E94C3
:10068000E30A6093C1007093C2008093C30090930B
:10069000C4000E94E901839BFECFB0CF8091C000CF
:1006A000883011F481E003C08091C000880F8093EE
:1006B000C0000E94E901839BFECF8091BA0088238D
:1006C00009F4A1CF1EBC8091C0000E94A6029BCF5E
:1006D0008091BA0081112DC08091C5009091C60013
:1006E000803D13E09107B9F048F48D33910581F016
:1006F000843F9105C9F480ED93E012C085383EE156
:10070000930761F08432944F79F48DE390E008C050
:1007100084EF90E005C085E89EE102C084E294EF9A
:100720009093C6008093C5000E94E901839BFECF91
:100730006FCF8091C7008F3F29F08091C7008F5FF6
:100740008093C7008091C70090E09BBD8ABD0E9446
:100750005F0280E0EFE3FFE13197F1F700C00000B6
:100760008F5F83990CC08B3FA9F78091C7008F3FA3
:1007700051F08091C7008F5F8093C70004C08A3F0B
:1007800008F446CFF2CF8091C70090E09BBD8ABDB0
:100790000E945F02839BE9CF3BCFC090B600D09010
:1007A000B700E090B800F090B9004091C1005091BE
:1007B000C2006091C3007091C4008FEF9FEFA0E072
:1007C000B0E08C199D09AE09BF0984179507A607EB
:1007D000B707E0F04091B6005091B7006091B800C3
:1007E0007091B9008091C1009091C200A091C300A6
:1007F000B091C400840F951FA61FB71F8093B60049
:100800009093B700A093B800B093B9000E94E9019B
:1008100080E0EFE3FFE13197F1F700C000008F5F68
:1008200083993FC08B3FA9F7CC24CA94DC2CE12CE0
:10083000F12C4091B6005091B7006091B8007091D2
:10084000B9008091C1009091C200A091C300B09105
:10085000C40097018601041B150B260B370B0817E4
:1008600019072A073B0708F14091B6005091B700DD
:100870006091B8007091B9008091C1009091C20060
:10088000A091C300B091C400840F951FA61FB71F8D
:100890008093B6009093B700A093B800B093B900CE
:1008A00004C08A3F08F4C0CEBFCF0E94E901839BF9
:1008B000C0CFBACE8091BA008823E1F08091B20017
:1008C000883009F44FC08091B200893009F462C0C9
:1008D0008091B2008091B200863008F4C0C080914F
:1008E000B2008A3009F4BBC08091BA00882309F4B1
:1008F00030C1BDC18091B200863001F78091C10046
:100900009091C200A091C300B091C4000197A105CD
:10091000B10569F480E197E2A0E0B0E08093C10006
:100920009093C200A093C300B093C40016C060911E
:10093000C1007091C2008091C3009091C4002AE070
:1009400030E040E050E00E94160B2093C10030934D
:10095000C2004093C3005093C4000E94E901819BF0
:10096000FECFACCF9091C000913019F08091C000C3
:1009700086958093C0000E94E901819BFECF809103
:10098000BA00882309F49FCF1EBC8091C0000E944A
:10099000A60299CF8091BA0081112DC08091C50027
:1009A0009091C600803D13E09107B9F048F48D3373
:1009B000910581F0843F9105C9F48DE390E012C068
:1009C00085383EE1930761F08432944F79F485E8ED
:1009D0009EE108C084E294EF05C084EF90E002C07D
:1009E00080ED93E09093C6008093C5000E94E901DA
:1009F000819BFECF6DCF8091C700882329F0809125
:100A0000C70081508093C7008091C70090E09BBDD4
:100A10008ABD0E945F0280E0EFE3FFE13197F1F7CA
:100A200000C000008F5F81990CC08B3FA9F78091B7
:100A3000C700882351F08091C70081508093C70080
:100A400004C08A3F08F444CFF2CF8091C70090E001
:100A50009BBD8ABD0E945F02819BE9CF39CF409147
:100A6000B6005091B7006091B8007091B9008091C4
:100A7000C1009091C200A091C300B091C40048177A
:100A800059076A077B07E0F08091B6009091B700A4
:100A9000A091B800B091B9004091C1005091C2003E
:100AA0006091C3007091C400841B950BA60BB70B1B
:100AB0008093B6009093B700A093B800B093B900AC
:100AC0000E94E90180E0EFE3FFE13197F1F700C018
:100AD00000008F5F819934C08B3FA9F74091B60029
:100AE0005091B7006091B8007091B9008091C10039
:100AF0009091C200A091C300B091C400481759075B
:100B00006A077B0708F18091B6009091B700A09129
:100B1000B800B091B9004091C1005091C2006091FD
:100B2000C3007091C400841B950BA60BB70B809378
:100B3000B6009093B700A093B800B093B90004C07A
:100B40008A3F08F4D1CECACF0E94E901819BC6CF6B
:100B5000CBCE82998CC08091B200863009F485C0DA
:100B60008091B6009091B700A091B800B091B90003
:100B70008093B3008091B6009091B700A091B80027
:100B8000B091B900892F9A2FAB2FBB278093B40067
:100B90008091B6009091B700A091B800B091B900D3
:100BA000CD01AA27BB278093B50080E090E00E948A
:100BB0008B0D9091B200891731F06091B20080E006
:100BC00090E00E94930D81E090E00E948B0D909147
:100BD000B300891731F06091B30081E090E00E948A
:100BE000930D82E090E00E948B0D9091B4008917E4
:100BF00031F06091B40082E090E00E94930D83E0B8
:100C000090E00E948B0D2091B50090E0332727FDE6
:100C100030958217930731F06091B50083E090E042
:100C20000E94930D8091B5003091B4002091B300E3
:100C3000992787FD9095A92FB92FDC01992788273F
:100C4000932B822B8093B6009093B700A093B800AB
:100C5000B093B90081E08093BA008093BF000E94F6
:100C60001F018091BF000E942601829BFECF1F9131
:100C70000F91FF90EF90DF90CF9008951F920F9209
:100C80000FB60F9211242F933F934F935F936F935F
:100C90007F938F939F93AF93BF93EF93FF930E94A4
:100CA000BF02FF91EF91BF91AF919F918F917F9183
:100CB0006F915F914F913F912F910F900FBE0F90C9
:100CC0001F9018958091C5009091C600843F9105B2
:100CD00091F020F4CD9769F485E00EC0803D23E0CB
:100CE000920729F085389E4121F482E005C083E017
:100CF00003C081E001C084E091E89FBD88608EBDA3
:100D000008951EBC089584E890E09093CB008093F2
:100D1000CA000E94E7070E9477070E9461088FEFD0
:100D200091E00E948B0D8435C9F060E080E090E096
:100D30000E94930D68EE81E090E00E94930D63E0C5
:100D400082E090E00E94930D60E083E090E00E94DA
:100D5000930D64E58FEF91E00E94930D80E090E0A9
:100D60000E948B0D8093B20081E090E00E948B0D79
:100D70008093B30082E090E00E948B0D8093B400DA
:100D800083E090E00E948B0D8093B5008091B500C8
:100D90003091B4002091B300992787FD9095A92F39
:100DA000B92FDC0199278827932B822B8093B600DB
:100DB0009093B700A093B800B093B9006091B600CB
:100DC0007091B7008091B8009091B9000E94550AC7
:100DD00020E030E543EC5DE30E94C1090E94290A4E
:100DE0006093BB007093BC008093BD009093BE00E5
:100DF0001092BA0081E08093C00084E690E0A0E009
:100E0000B0E08093C1009093C200A093C300B09360
:100E1000C40084E294EF9093C6008093C50080E8FC
:100E20008093C7008BBB8FEF8ABB81B3807E81BB71
:100E300082B38F6182BBBA9884E088BB8D9A10928E
:100E4000BF008091BF000E9426010E9415010C94F2
:100E50001801982F907F95BBA89AAA9AEFE9FFE016
:100E60003197F1F700C00000AA98A898EFE9FFE0D9
:100E70003197F1F700C00000F0E18F9FC00111240D
:100E800085BBA89AAA9A8FE99FE00197F1F700C065
:100E90000000AA98A898EFE9FFE03197F1F700C0A9
:100EA00000000895982F907F95BBAA9AEFE9FFE084
:100EB0003197F1F700C00000AA98EFE9FFE0319701
:100EC000F1F700C00000F0E18F9FC001112485BB45
:100ED000AA9A8FE99FE00197F1F700C00000AA9855
:100EE000EFE9FFE03197F1F700C00000089581E0DD
:100EF0000C94520782E00C945207EF92FF921F93DA
:100F0000CF93DF931F92CDB7DEB7009771F0182F04
:100F10007C018E2D811B861740F4F70181917F01A2
:100F200069830E9429076981F4CF0F90DF91CF91E7
:100F30001F91FF90EF900895623031F0633031F0EF
:100F4000613029F4805C03C08C5E01C08C5A8068DB
:100F50000C9452071F93CF93DF93EC01862F642FDD
:100F60000E949C0710E0FE01E10FF11D849188238F
:100F700021F00E9429071F5FF6CFDF91CF911F91CB
:100F80000895EF92FF920F931F93CF93DF938C01FD
:100F900088E0689FB0011124862F8064E82EC0E0AD
:100FA000D0E0F801EC0FFD1FF4908C2F8E0D0E9405
:100FB00052078F2D0E9429072196C830D10589F745
:100FC000DF91CF911F910F91FF90EF9008951F93A4
:100FD000CF93DF938FE59AEE0197F1F700C0000001
:100FE00015BA15BA84B3806F84BB84B3876084BBA1
:100FF00080E385BBAA9A8FE99FE00197F1F700C0D3
:101000000000AA988FE99FE00197F1F700C0000067
:1010100080E385BBAA9A8FE99FE00197F1F700C0B2
:101020000000AA988FE99FE00197F1F700C0000047
:1010300080E285BBAA9A8FE99FE00197F1F700C093
:101040000000AA988FE99FE00197F1F700C0000027
:1010500088E20E9452078CE00E945207CDE8D1E05E
:1010600060E011E0160FCE010E94C10728961830EB
:1010700011F0612FF6CFDF91CF911F910895CF939B
:10108000DF93D82FC0E0CD1729F08EE10E945207E0
:10109000CF5FF9CFDF91CF910895CF93DF93D82F12
:1010A000C0E0CD1729F088E10E945207CF5FF9CF49
:1010B000DF91CF9108958EE00C9452078FE00C944D
:1010C00052078CE00C94520788E00C9452078CE095
:1010D0000C945207CF93DF93D82FC0E0CD1729F09F
:1010E00080E10E945207CF5FF9CFDF91CF91089541
:1010F000CF93DF93D82FC0E0CD1729F084E10E9471
:101100005207CF5FF9CFDF91CF910895CF92DF9251
:10111000EF92FF920F931F93CF93DF931F92CDB760
:10112000DEB756E0459F90011124E82FE29FC001F1
:10113000E39F900D112470E00E94020B8B01CB0104
:1011400066E070E00E94EE0AE82EC12CD12CF12C52
:10115000F416B9F096012B5F3F4F0217130728F4DE
:101160000C151D0520F08E2D03C085E001C080E028
:1011700049830E942907F394F6E0CF0ED11C4981E0
:10118000E7CF0F90DF91CF911F910F91FF90EF90DC
:10119000DF90CF9008950E948306FF24F394D0E05F
:1011A000C0E88091BA008823E1F38BB7806E8BBFD3
:1011B0008091B200873049F48091BA00882309F405
:1011C000D3C00E94950B8BBBF7CF8091B2008830C3
:1011D00059F40E9418018091C0000E94A6028091DB
:1011E000BA008111FCCFC0C08091B200893091F467
:1011F0000E9418018091C70090E09BBD8ABD80913C
:10120000C5009091C6000E9462068091BA008111CB
:10121000FCCFAAC08091B2008A3009F050C0609122
:10122000B6007091B7008091B8009091B9000E940B
:10123000550A20E030E543EC5DE30E94C1090E94BD
:10124000290A6093BB007093BC008093BD0090930B
:10125000BE006A988091BB009091BC00A091BD0037
:10126000B091BE004091BB005091BC006091BD00A8
:101270007091BE008090BB009090BC00A090BD001B
:10128000B090BE00E0916000F0916100222733270A
:101290000BE010E0280F351FEA1D19F0C8950BBAB6
:1012A000F9CF8F0D5D1FAD1EA11609F4E395A016B1
:1012B0006A9B81F71092BA001092BF0055C08091CE
:1012C000BA00882309F450C06091B6007091B7004D
:1012D0008091B8009091B9000E94550A20E030E555
:1012E00043EC5DE30E94C1090E94290A6093BB00A0
:1012F0007093BC008093BD009093BE006A9880916B
:10130000BB009091BC00A091BD00B091BE00409187
:10131000BB005091BC006091BD007091BE008090F8
:10132000BB009090BC00A090BD00B090BE00E091CA
:10133000B200F0E0EE0FFF1FEE59FF4F0190F08179
:10134000E02D22273327280F351FEA1DC8950BBA39
:101350006A9BF9CF8BB78F718BBFCBBB0E94BF024B
:101360008BB7806E8BBFABCF1EBCCBBB8091BF0059
:101370000E9426018BB78F718BBF95980E94180130
:1013800010CF0CD0E6C0DED040F0D5D030F021F444
:101390005F3F19F0C7C0511110C1CAC0EBD098F31C
:1013A0009923C9F35523B1F3951B550BBB27AA27E6
:1013B00062177307840738F09F5F5F4F220F331F58
:1013C000441FAA1FA9F333D00E2E3AF0E0E830D024
:1013D00091505040E695001CCAF729D0FE2F27D027
:1013E000660F771F881FBB1F261737074807AB07F5
:1013F000B0E809F0BB0B802DBF01FF2793585F4F6A
:101400002AF09E3F510568F08DC0D7C05F3FECF3D6
:10141000983EDCF3869577956795B795F7959F5F2E
:10142000C9F7880F911D9695879597F90895E1E082
:10143000660F771F881FBB1F621773078407BA07E1
:1014400020F0621B730B840BBA0BEE1F88F7E0953C
:10145000089598D088F09F5790F0B92F9927B751E9
:10146000A0F0D1F0660F771F881F991F1AF0BA9568
:10147000C9F712C0B13081F09FD0B1E008959CC08F
:10148000672F782F8827B85F39F0B93FCCF386955E
:1014900077956795B395D9F73EF4909580957095BB
:1014A00061957F4F8F4F9F4F0895E89409C097FB38
:1014B0003EF490958095709561957F4F8F4F9F4F2B
:1014C0009923A9F0F92F96E9BB279395F69587956F
:1014D00077956795B795F111F8CFFAF4BB0F11F432
:1014E00060FF1BC06F5F7F4F8F4F9F4F16C08823D9
:1014F00011F096E911C0772321F09EE8872F762F0F
:1015000005C0662371F096E8862F70E060E02AF04F
:101510009A95660F771F881FDAF7880F969587953B
:1015200097F9089597F99F6780E870E060E0089563
:101530009FEF80EC089500240A94161617061806EB
:101540000906089500240A941216130614060506C7
:101550000895092E0394000C11F4882352F0BB0F58
:1015600040F4BF2B11F460FF04C06F5F7F4F8F4FBB
:101570009F4F089557FD9058440F551F59F05F3FF6
:1015800071F04795880F97FB991F61F09F3F79F0A5
:1015900087950895121613061406551FF2CF469527
:1015A000F1DF08C0161617061806991FF1CF8695A9
:1015B0007105610508940895E894BB27662777278D
:1015C000CB0197F908950E94380BA59F900DB49F09
:1015D000900DA49F800D911D11240895AA1BBB1B83
:1015E00051E107C0AA1FBB1FA617B70710F0A61B23
:1015F000B70B881F991F5A95A9F780959095BC0144
:10160000CD01089597FB072E16F4009407D077FDBF
:1016100009D00E94EE0A07FC05D03EF49095819512
:101620009F4F0895709561957F4F0895A1E21A2EFE
:10163000AA1BBB1BFD010DC0AA1FBB1FEE1FFF1F76
:10164000A217B307E407F50720F0A21BB30BE40BC6
:10165000F50B661F771F881F991F1A9469F760950D
:101660007095809590959B01AC01BD01CF010895C7
:10167000A29FB001B39FC001A39F700D811D1124D3
:10168000911DB29F700D811D1124911D08958F929F
:101690009F92AF92BF92CF92DF92EF92FF92CF9341
:1016A000DF93EC01688179818A819B8161157105E5
:1016B0008105910521F464E279ED8BE597E02DE158
:1016C00033EF41E050E00E944E0E49015A019B0168
:1016D000AC01A7EAB1E40E94E30A6B017C01ACEE25
:1016E000B4EFA50194010E94490EC60ED71EE81E54
:1016F000F91EF7FE06C081E0C81AD108E10880E8AB
:10170000F80AC882D982EA82FB82C6019F77DF91FC
:10171000CF91FF90EF90DF90CF90BF90AF909F90D0
:101720008F9008950E94470B089582E990E00E94EF
:10173000470B0895A0E0B0E080939200909393004F
:10174000A0939400B09395000895A0E0B0E0EBEA78
:10175000FBE00C947D0EFE01359661917191AF0115
:101760008091CA009091CB000E94B90BE2E00C94EA
:10177000990EACE0B0E0EFEBFBE00C946D0E7C0159
:101780006B018A01FC0117821682838181FFBDC132
:10179000CE0101964C01F7019381F60193FD8591ED
:1017A00093FF81916F01882309F4ABC1853239F42D
:1017B00093FD859193FF81916F01853229F4B701E3
:1017C00090E00E94B60DE7CF512C312C20E0203262
:1017D000A0F48B3269F030F4803259F0833269F42E
:1017E00020612CC08D3239F0803339F4216026C05D
:1017F0002260246023C0286021C027FD27C030ED6F
:10180000380F3A3078F426FF06C0FAE05F9E300DBC
:101810001124532E13C08AE0389E300D1124332E2C
:1018200020620CC08E3221F426FD6BC1206406C0FC
:101830008C3611F4206802C0883641F4F60193FD1D
:10184000859193FF81916F018111C1CF982F9F7D69
:101850009554933028F40C5F1F4FFFE3F9830DC0BC
:10186000833631F0833771F0833509F05BC022C0D5
:10187000F801808189830E5F1F4F44244394512CCB
:10188000540115C03801F2E06F0E711CF801A08000
:10189000B18026FF03C0652D70E002C06FEF7FEFBF
:1018A000C5012C870E94AB0D2C0183012C852F775D
:1018B000222E17C03801F2E06F0E711CF801A080D3
:1018C000B18026FF03C0652D70E002C06FEF7FEF8F
:1018D000C5012C870E94A00D2C012C852068222E8A
:1018E000830123FC1BC0832D90E048165906B0F4F9
:1018F000B70180E290E00E94B60D3A94F4CFF50172
:1019000027FC859127FE81915F01B70190E00E943D
:10191000B60D31103A94F1E04F1A510841145104B8
:1019200071F7E5C0843611F0893639F5F80127FFE3
:1019300007C060817181828193810C5F1F4F08C055
:1019400060817181882777FD8095982F0E5F1F4FEA
:101950002F76B22E97FF09C090958095709561956E
:101960007F4F8F4F9F4F2068B22E2AE030E0A401B6
:101970000E94E80DA82EA81844C0853729F42F7EB0
:10198000B22E2AE030E025C0F22FF97FBF2E8F362D
:10199000C1F018F4883579F0B4C0803719F0883771
:1019A00021F0AFC02F2F2061B22EB4FE0DC08B2DC1
:1019B0008460B82E09C024FF0AC09F2F9660B92EFC
:1019C00006C028E030E005C020E130E002C020E1A0
:1019D00032E0F801B7FE07C0608171818281938196
:1019E0000C5F1F4F06C06081718180E090E00E5F48
:1019F0001F4FA4010E94E80DA82EA818FB2DFF7709
:101A0000BF2EB6FE0BC02B2D2E7FA51450F4B4FEB6
:101A10000AC0B2FC08C02B2D2E7E05C07A2C2B2DBF
:101A200003C07A2C01C0752C24FF0DC0FE01EA0D05
:101A3000F11D8081803311F4297E09C022FF06C088
:101A40007394739404C0822F867809F0739423FDF5
:101A500013C020FF06C05A2C731418F4530C5718E7
:101A6000732C731468F4B70180E290E02C870E9415
:101A7000B60D73942C85F5CF731410F4371801C08C
:101A8000312C24FF12C0B70180E390E02C870E9424
:101A9000B60D2C8522FF17C021FF03C088E590E01A
:101AA00002C088E790E0B7010CC0822F867859F019
:101AB00021FD02C080E201C08BE227FD8DE2B7016B
:101AC00090E00E94B60DA51438F4B70180E390E0D1
:101AD0000E94B60D5A94F7CFAA94F401EA0DF11DB5
:101AE0008081B70190E00E94B60DA110F5CF3320A0
:101AF00009F451CEB70180E290E00E94B60D3A940D
:101B0000F6CFF7018681978102C08FEF9FEF2C9669
:101B1000E2E10C94890EE199FECF9FBB8EBBE09A67
:101B200099278DB30895262FE199FECF9FBB8EBBD9
:101B30002DBB0FB6F894E29AE19A0FBE0196089574
:101B4000FC010590615070400110D8F78095909588
:101B50008E0F9F1F0895FC0161507040019001108D
:101B6000D8F7809590958E0F9F1F08950F931F9320
:101B7000CF93DF93182F092FEB018B8181FD03C0D9
:101B80008FEF9FEF20C082FF10C04E815F812C81BC
:101B90003D81421753077CF4E881F9819F012F5F53
:101BA0003F4F39832883108306C0E885F985812F4C
:101BB0000995892B29F72E813F812F5F3F4F3F8366
:101BC0002E83812F902FDF91CF911F910F91089538
:101BD000FA01AA27283051F1203181F1E8946F935E
:101BE0006E7F6E5F7F4F8F4F9F4FAF4FB1E03ED004
:101BF000B4E03CD0670F781F891F9A1FA11D680FA2
:101C0000791F8A1F911DA11D6A0F711D811D911DD4
:101C1000A11D20D009F468943F912AE0269F112449
:101C20003019305D3193DEF6CF010895462F4770AD
:101C3000405D4193B3E00FD0C9F7F6CF462F4F7008
:101C4000405D4A3318F0495D31FD4052419302D066
:101C5000A9F7EACFB4E0A69597958795779567950C
:101C6000BA95C9F700976105710508959B01AC010C
:101C70000A2E06945795479537952795BA95C9F733
:101C8000620F731F841F951FA01D0895B7FF0C944A
:101C9000E30A0E94E30A821B930B0895052E97FB2B
:101CA0001EF400940E94650E57FD07D00E94160B8B
:101CB00007FC03D04EF40C94650E5095409530957A
:101CC00021953F4F4F4F5F4F0895909580957095A8
:101CD00061957F4F8F4F9F4F08952F923F924F9264
:101CE0005F926F927F928F929F92AF92BF92CF92AC
:101CF000DF92EF92FF920F931F93CF93DF93CDB7B5
:101D0000DEB7CA1BDB0B0FB6F894DEBF0FBECDBF2C
:101D100009942A88398848885F846E847D848C84FD
:101D20009B84AA84B984C884DF80EE80FD800C8106
:101D30001B81AA81B981CE0FD11D0FB6F894DEBFE9
:0C1D40000FBECDBFED010895F894FFCF59
:101D4C00003F0039003A003D003B003C003E7B0167
:101D5C00690157014501330121010F01FD00EB0021
:101D6C00D900C700000000020000000006010000BE
:101D7C0000000100000020202020253575487A0045
:101D8C00202535754D487A00253575487A20253340
:021D9C007500D0
:10390000808386898C8F9295989C9FA2A5A8ABAE48
:10391000B0B3B6B9BCBFC1C4C7C9CCCED1D3D5D85A
:10392000DADCDEE0E2E4E6E8EAECEDEFF0F2F3F513
:10393000F6F7F8F9FAFBFCFCFDFEFEFFFFFFFFFFC8
:10394000FFFFFFFFFFFFFEFEFDFCFCFBFAF9F8F7AF
:10395000F6F5F3F2F0EFEDECEAE8E6E4E2E0DEDCC7
:10396000DAD8D5D3D1CECCC9C7C4C1BFBCB9B6B3E0
:10397000B0AEABA8A5A29F9C9895928F8C898683A8
:10398000807C797673706D6A6763605D5A575451B5
:103990004F4C494643403E3B383633312E2C2A2784
:1039A0002523211F1D1B1917151312100F0D0C0AAB
:1039B00009080706050403030201010000000000D6
:1039C00000000000000001010203030405060708CF
:1039D000090A0C0D0F1012131517191B1D1F212397
:1039E00025272A2C2E313336383B3E404346494C5E
:1039F0004F5154575A5D6063676A6D707376797C76
:103A000000000000000000000000000000000000B6
:103A100000000000000000000000000000000000A6
:103A20000000000000000000000000000000000096
:103A30000000000000000000000000000000000086
:103A40000000000000000000000000000000000076
:103A50000000000000000000000000000000000066
:103A60000000000000000000000000000000000056
:103A70000000000000000000000000000000000046
:103A8000FFFFFFFFFFFFFFFFFFFFFFFFFFFFFFFF46
:103A9000FFFFFFFFFFFFFFFFFFFFFFFFFFFFFFFF36
:103AA000FFFFFFFFFFFFFFFFFFFFFFFFFFFFFFFF26
:103AB000FFFFFFFFFFFFFFFFFFFFFFFFFFFFFFFF16
:103AC000FFFFFFFFFFFFFFFFFFFFFFFFFFFFFFFF06
:103AD000FFFFFFFFFFFFFFFFFFFFFFFFFFFFFFFFF6
:103AE000FFFFFFFFFFFFFFFFFFFFFFFFFFFFFFFFE6
:103AF000FFFFFFFFFFFFFFFFFFFFFFFFFFFFFFFFD6
:103B0000000102030405060708090A0B0C0D0E0F3D
:103B1000101112131415161718191A1B1C1D1E1F2D
:103B2000202122232425262728292A2B2C2D2E2F1D
:103B3000303132333435363738393A3B3C3D3E3F0D
:103B4000404142434445464748494A4B4C4D4E4FFD
:103B5000505152535455565758595A5B5C5D5E5FED
:103B6000606162636465666768696A6B6C6D6E6FDD
:103B7000707172737475767778797A7B7C7D7E7FCD
:103B8000808182838485868788898A8B8C8D8E8FBD
:103B9000909192939495969798999A9B9C9D9E9FAD
:103BA000A0A1A2A3A4A5A6A7A8A9AAABACADAEAF9D
:103BB000B0B1B2B3B4B5B6B7B8B9BABBBCBDBEBF8D
:103BC000C0C1C2C3C4C5C6C7C8C9CACBCCCDCECF7D
:103BD000D0D1D2D3D4D5D6D7D8D9DADBDCDDDEDF6D
:103BE000E0E1E2E3E4E5E6E7E8E9EAEBECEDEEEF5D
:103BF000F0F1F2F3F4F5F6F7F8F9FAFBFCFDFEFF4D
:103C0000FFFEFDFCFBFAF9F8F7F6F5F4F3F2F1F03C
:103C1000EFEEEDECEBEAE9E8E7E6E5E4E3E2E1E02C
:103C2000DFDEDDDCDBDAD9D8D7D6D5D4D3D2D1D01C
:103C3000CFCECDCCCBCAC9C8C7C6C5C4C3C2C1C00C
:103C4000BFBEBDBCBBBAB9B8B7B6B5B4B3B2B1B0FC
:103C5000AFAEADACABAAA9A8A7A6A5A4A3A2A1A0EC
:103C60009F9E9D9C9B9A99989796959493929190DC
:103C70008F8E8D8C8B8A89888786858483828180CC
:103C80007F7E7D7C7B7A79787776757473727170BC
:103C90006F6E6D6C6B6A69686766656463626160AC
:103CA0005F5E5D5C5B5A595857565554535251509C
:103CB0004F4E4D4C4B4A494847464544434241408C
:103CC0003F3E3D3C3B3A393837363534333231307C
:103CD0002F2E2D2C2B2A292827262524232221206C
:103CE0001F1E1D1C1B1A191817161514131211105C
:103CF0000F0E0D0C0B0A090807060504030201004C
:103D000000020406080A0C0E10121416181A1C1EC3
:103D100020222426282A2C2E30323436383A3C3EB3
:103D200040424446484A4C4E50525456585A5C5EA3
:103D300060626466686A6C6E70727476787A7C7E93
:103D400080828486888A8C8E90929496989A9C9E83
:103D5000A0A2A4A6A8AAACAEB0B2B4B6B8BABCBE73
:103D6000C0C2C4C6C8CACCCED0D2D4D6D8DADCDE63
:103D7000E0E2E4E6E8EAECEEF0F2F4F6F8FAFCFE53
:103D8000FFFDFBF9F7F5F3F1EFEFEBE9E7E5E3E131
:103D9000DFDDDBD9D7D5D3D1CFCFCBC9C7C5C3C121
:103DA000BFBDBBB9B7B5B3B1AFAFABA9A7A5A3A111
:103DB0009F9D9B99979593918F8F8B898785838101
:103DC0007F7D7B79777573716F6F6B6967656361F1
:103DD0005F5D5B59575553514F4F4B4947454341E1
:103DE0003F3D3B39373533312F2F2B2927252321D1
:103DF0001F1D1B19171513110F0F0B0907050301C1
:103E0000494A4B4B4A49494949484745444343433A
:103E1000444443413E3D3B393837373636363737F1
:103E200037373737363533323131343D4D6584A934
:103E3000CFEEFFFEEAC69A6D442511050001060D7E
:103E4000141C242D34393D404142434444454647E7
:103E50004747474747474748484849494A4B4B4CDB
:103E60004D4E4F505152535456585B5D60626466DC
:103E7000686B6D707376797B7D7E7F7F7F7F7F7EC1
:103E80007D7C797774716D6966625F5C59575451B6
:103E90004F4D4C4B4A4948464544434343444444B0
:103EA0004545454545454546474849494A4A4B4B9E
:103EB0004B4B4B4B4A4A4949494948484847474771
:103EC0004747474746464645454545454646464594
:103ED00044444343434342424241414141414141C1
:103EE0004140403F3F4040414141414141414040CC
:103EF0004040404040404141414243444547484999
:103F000000000000000000000000000101020303A7
:103F10000405060708090A0C0D0F101213151719CE
:103F20001B1D1F212325272A2C2E313336383B3EDB
:103F3000404346494C4F5154575A5D6063676A6D20
:103F4000707376797C808386898C8F9295989C9FFC
:103F5000A2A5A8ABAEB0B3B6B9BCBFC1C4C7C9CCEB
:103F6000CED1D3D5D8DADCDEE0E2E4E6E8EAECED67
:103F7000EFF0F2F3F5F6F7F8F9FAFBFCFCFDFEFEC4
:103F8000FFFFFFFFFFFFFFFFFFFFFFFEFEFDFCFC4B
:103F9000FBFAF9F8F7F6F5F3F2F0EFEDECEAE8E604
:103FA000E4E2E0DEDCDAD8D5D3D1CECCC9C7C4C1D7
:103FB000BFBCB9B6B3B0AEABA8A5A29F9C98959272
:103FC0008F8C898683807C797673706D6A67636075
:103FD0005D5A5754514F4C494643403E3B38363367
:103FE000312E2C2A272523211F1D1B1917151312CB
:103FF000100F0D0C0A09080706050403030201014E
:00000001FF
