:100000000C9419060C94E5070C94F0070C94360632
:100010000C94050F0C9436060C9436060C94360698
:100020000C9436060C9436060C9436060C94360660
:100030000C9436060C9436060C9436060C94360650
:100040000C9436060C9436060C94FB070C9436067A
:100050000C9436062020202052616E646F6D00548F
:10006000524700444953004F4646004F4E20006D12
:100070000200003906FE080E0954068B06C408C4A7
:1000800008D4010000C206FE080E09D506E106C428
:1000900008C408C3010000ED06FE080E090D07168E
:1000A00007C908C908B20100002507FE080E094F5C
:1000B000079107C408C408A1010000870CFE080EC0
:1000C00009A30CDA0CAE10C408D302F00935099B61
:1000D00008AF08510987098A10F508C202F00835EF
:1000E000099B08AF08510987098A10F508B102F089
:1000F0000535099B08AF08510987098A10F508A042
:1001000002F00735099B08AF08510987098A10F5E5
:10011000088F02F00635099B08AF08510987098A44
:1001200010F5087E02F00435099B08AF08510987D5
:10013000098A10F5085C020000C2099B08AF083864
:10014000063806730DF5084B020000CE099B08AF78
:1001500008290A9F0AD910F5083A020000D80D9B19
:1001600008AF084A0F550F9411F508290200001A2C
:100170000E1E0E2D0E51098709A110F50818020058
:10018000003C0E850E990EAD0ED10EBB11F5080781
:10019000020000150BAB08C0086D0B040CF212F541
:1001A000082043616C6962726174652046726571F2
:1001B000200020547269676765722044656C61791C
:1001C000202000202053796E63204F757470757461
:1001D000202020002020204F6666204C6576656C2C
:1001E00020202020002020202020537765657020CB
:1001F000205374657000202020202053776565709F
:10020000202020456E640020202020205377656543
:1002100070202020202020002050574D20284853B7
:1002200029202020202020200020202020202050B5
:10023000574D2020202020202000202020486967C2
:100240006820537065656420202000202020202035
:1002500050756C7365202020202020002020202055
:10026000204E6F6973652020202020200020202050
:100270002046726571205374657020202000202074
:10028000202020204543472020202020202000201F
:100290002052657620536177546F6F746820200078
:1002A00020202020536177546F6F74682020202015
:1002B0000020202020547269616E676C6520202028
:1002C000200020202020205371756172652020209D
:1002D00020200020202020202053696E652020202F
:1002E00020202000F009F008F005F007F006F004E7
:1002F0000A0E2D73C440AA8FDDF36B97B98D775723
:10030000E352933F2507995F8B37307B3A89C6AE1E
:100310004E58E44B4805D6F25C44EFF869F6925625
:100320001D96AB2F8835F53683FC8E60E0DAA85B2E
:10033000DF7E4D3B38912BFA21C2230D2ECE3CB6E9
:100340000332ED86E60F556A34B87045499B76BC9A
:10035000185A414628FD2CB0EAB2DE65BB1059F1AF
:100360009DB729D4EB42856F39D526907FA7E8D970
:1003700098C18C1162AD81660C5D19011EC887E1C0
:100380002AD224D143E74F68C0AF5E9E84E250CBAF
:100390001AC3B47404AC64A013D331009CFE4AB3F6
:1003A00078153EEE947C1C72A1209F95CF3D82B5BE
:1003B000BD54A6476E75C71BD70916F01202B106C9
:1003C0004CCDA9A26CA561CA7D1F221714C5D86D9A
:1003D0008AF751A3FBF463BF79C927EC7A9ABE80F0
:1003E000FFE5BACC0BDBDCF967E9A408D071335325
:1003F00000000000000000000000000101020303F3
:100400000405060708090A0C0D0F10121315171919
:100410001B1D1F212325272A2C2E313336383B3E26
:10042000404346494C4F5154575A5D6063676A6D6B
:10043000707376797C808386898C8F9295989C9F47
:10044000A2A5A8ABAEB0B3B6B9BCBFC1C4C7C9CC36
:10045000CED1D3D5D8DADCDEE0E2E4E6E8EAECEDB2
:10046000EFF0F2F3F5F6F7F8F9FAFBFCFCFDFEFE0F
:10047000FFFFFFFFFFFFFFFFFFFFFFFEFEFDFCFC96
:10048000FBFAF9F8F7F6F5F3F2F0EFEDECEAE8E64F
:10049000E4E2E0DEDCDAD8D5D3D1CECCC9C7C4C122
:1004A000BFBCB9B6B3B0AEABA8A5A29F9C989592BD
:1004B0008F8C898683807C797673706D6A676360C0
:1004C0005D5A5754514F4C494643403E3B383633B2
:1004D000312E2C2A272523211F1D1B191715131216
:1004E000100F0D0C0A090807060504030302010199
:1004F000494A4B4B4A494949494847454443434384
:10050000444443413E3D3B3938373736363637373A
:1005100037373737363533323131343D4D6584A97D
:10052000CFEEFFFEEAC69A6D442511050001060DC7
:10053000141C242D34393D40414243444445464730
:100540004747474747474748484849494A4B4B4C24
:100550004D4E4F505152535456585B5D6062646625
:10056000686B6D707376797B7D7E7F7F7F7F7F7E0A
:100570007D7C797774716D6966625F5C59575451FF
:100580004F4D4C4B4A4948464544434343444444F9
:100590004545454545454546474849494A4A4B4BE7
:1005A0004B4B4B4B4A4A49494949484848474747BA
:1005B00047474747464646454545454546464645DD
:1005C000444443434343424242414141414141410A
:1005D0004140403F3F404041414141414141404015
:1005E00040404040404041414142434445474849E2
:1005F00000020406080A0C0E10121416181A1C1E0B
:1006000020222426282A2C2E30323436383A3C3EFA
:1006100040424446484A4C4E50525456585A5C5EEA
:1006200060626466686A6C6E70727476787A7C7EDA
:1006300080828486888A8C8E90929496989A9C9ECA
:10064000A0A2A4A6A8AAACAEB0B2B4B6B8BABCBEBA
:10065000C0C2C4C6C8CACCCED0D2D4D6D8DADCDEAA
:10066000E0E2E4E6E8EAECEEF0F2F4F6F8FAFCFE9A
:10067000FFFDFBF9F7F5F3F1EFEFEBE9E7E5E3E178
:10068000DFDDDBD9D7D5D3D1CFCFCBC9C7C5C3C168
:10069000BFBDBBB9B7B5B3B1AFAFABA9A7A5A3A158
:1006A0009F9D9B99979593918F8F8B898785838148
:1006B0007F7D7B79777573716F6F6B696765636138
:1006C0005F5D5B59575553514F4F4B494745434128
:1006D0003F3D3B39373533312F2F2B292725232118
:1006E0001F1D1B19171513110F0F0B090705030108
:1006F000FFFEFDFCFBFAF9F8F7F6F5F4F3F2F1F082
:10070000EFEEEDECEBEAE9E8E7E6E5E4E3E2E1E071
:10071000DFDEDDDCDBDAD9D8D7D6D5D4D3D2D1D061
:10072000CFCECDCCCBCAC9C8C7C6C5C4C3C2C1C051
:10073000BFBEBDBCBBBAB9B8B7B6B5B4B3B2B1B041
:10074000AFAEADACABAAA9A8A7A6A5A4A3A2A1A031
:100750009F9E9D9C9B9A9998979695949392919021
:100760008F8E8D8C8B8A8988878685848382818011
:100770007F7E7D7C7B7A7978777675747372717001
:100780006F6E6D6C6B6A69686766656463626160F1
:100790005F5E5D5C5B5A59585756555453525150E1
:1007A0004F4E4D4C4B4A49484746454443424140D1
:1007B0003F3E3D3C3B3A39383736353433323130C1
:1007C0002F2E2D2C2B2A29282726252423222120B1
:1007D0001F1E1D1C1B1A19181716151413121110A1
:1007E0000F0E0D0C0B0A0908070605040302010091
:1007F000000102030405060708090A0B0C0D0E0F81
:10080000101112131415161718191A1B1C1D1E1F70
:10081000202122232425262728292A2B2C2D2E2F60
:10082000303132333435363738393A3B3C3D3E3F50
:10083000404142434445464748494A4B4C4D4E4F40
:10084000505152535455565758595A5B5C5D5E5F30
:10085000606162636465666768696A6B6C6D6E6F20
:10086000707172737475767778797A7B7C7D7E7F10
:10087000808182838485868788898A8B8C8D8E8F00
:10088000909192939495969798999A9B9C9D9E9FF0
:10089000A0A1A2A3A4A5A6A7A8A9AAABACADAEAFE0
:1008A000B0B1B2B3B4B5B6B7B8B9BABBBCBDBEBFD0
:1008B000C0C1C2C3C4C5C6C7C8C9CACBCCCDCECFC0
:1008C000D0D1D2D3D4D5D6D7D8D9DADBDCDDDEDFB0
:1008D000E0E1E2E3E4E5E6E7E8E9EAEBECEDEEEFA0
:1008E000F0F1F2F3F4F5F6F7F8F9FAFBFCFDFEFF90
:1008F00000000000000000000000000000000000F8
:1009000000000000000000000000000000000000E7
:1009100000000000000000000000000000000000D7
:1009200000000000000000000000000000000000C7
:1009300000000000000000000000000000000000B7
:1009400000000000000000000000000000000000A7
:100950000000000000000000000000000000000097
:100960000000000000000000000000000000000087
:10097000FFFFFFFFFFFFFFFFFFFFFFFFFFFFFFFF87
:10098000FFFFFFFFFFFFFFFFFFFFFFFFFFFFFFFF77
:10099000FFFFFFFFFFFFFFFFFFFFFFFFFFFFFFFF67
:1009A000FFFFFFFFFFFFFFFFFFFFFFFFFFFFFFFF57
:1009B000FFFFFFFFFFFFFFFFFFFFFFFFFFFFFFFF47
:1009C000FFFFFFFFFFFFFFFFFFFFFFFFFFFFFFFF37
:1009D000FFFFFFFFFFFFFFFFFFFFFFFFFFFFFFFF27
:1009E000FFFFFFFFFFFFFFFFFFFFFFFFFFFFFFFF17
:1009F000808386898C8F9295989C9FA2A5A8ABAE88
:100A0000B0B3B6B9BCBFC1C4C7C9CCCED1D3D5D899
:100A1000DADCDEE0E2E4E6E8EAECEDEFF0F2F3F552
:100A2000F6F7F8F9FAFBFCFCFDFEFEFFFFFFFFFF07
:100A3000FFFFFFFFFFFFFEFEFDFCFCFBFAF9F8F7EE
:100A4000F6F5F3F2F0EFEDECEAE8E6E4E2E0DEDC06
:100A5000DAD8D5D3D1CECCC9C7C4C1BFBCB9B6B31F
:100A6000B0AEABA8A5A29F9C9895928F8C898683E7
:100A7000807C797673706D6A6763605D5A575451F4
:100A80004F4C494643403E3B383633312E2C2A27C3
:100A90002523211F1D1B1917151312100F0D0C0AEA
:100AA0000908070605040303020101000000000015
:100AB000000000000000010102030304050607080E
:100AC000090A0C0D0F1012131517191B1D1F2123D6
:100AD00025272A2C2E313336383B3E404346494C9D
:100AE0004F5154575A5D6063676A6D707376797CB5
:100AF000001F000000001F00001F101010101F003A
:100B0000001F181818181F00001F1C1C1C1C1F0099
:100B1000001F1E1E1E1E1F00001F1F1F1F1F1F0065
:100B200003070F1F0F070300181C1E1F1E1C1800B1
:100B30006E616E00696E660000407A10F35A00A084
:100B4000724E18090010A5D4E80000E87648170096
:100B500000E40B54020000CA9A3B000000E1F505D6
:100B6000000080969800000040420F000000A08620
:100B700001000000102700000000E8030000000052
:100B80006400000000000A000000000001000000F6
:100B900000002C76D888DC674F0823DFC1DFAE5910
:100BA000E1B1B796E5E3E453C63AE651997696E8A3
:100BB000E6C28426EB898C9B62ED407C6FFCEFBC27
:100BC0009C9F40F2BAA56FA5F490055A2AF75C9352
:100BD0006B6CF9676DC11BFCE0E40D47FEF520E688
:100BE000B500D0ED902E0300943577050080841E6B
:100BF000080000204E0A000000C80C333333330FC6
:100C0000986E12831141EF8D2114893BE65516CF62
:100C1000FEE6DB18D1844B381BF77C1D901DA4BB6E
:100C2000E424203284725E228100C9F124ECA1E523
:100C30003D2711241FBECFE5D4E0DEBFCDBF11E0BC
:100C4000A0E6B0E0E6E4F9E302C005900D92A4311D
:100C5000B107D9F711E0A4E1B1E001C01D92A833BA
:100C6000B107E1F70E94CB140C94A11C0C94000076
:100C7000089561E080E00E949C13E3E7F0E0838147
:100C80008F9382818F9381818F9380818F9382E96B
:100C900090E09F938F930E94E91B0F900F900F900D
:100CA0000F900F900F900895CF92DF92EF92FF92E6
:100CB00020E030E040E251E46091730070917400F4
:100CC00080917500909176000E94B4186B017C01B0
:100CD0002DEC3CEC4CEC5DE30E94B01887FD09C0A4
:100CE000C0927300D0927400E0927500F09276008A
:100CF0000CC08DEC9CECACECBDE380937300909346
:100D00007400A0937500B0937600FF90EF90DF9091
:100D1000CF900C943906CF92DF92EF92FF9220E0B1
:100D200030E040E251E46091730070917400809172
:100D30007500909176000E94FE196B017C0120E005
:100D400030E44CE156E40E94FA1918164CF0C092B7
:100D50007300D0927400E0927500F09276000CC09F
:100D600080E090E4ACE1B6E480937300909374006B
:100D7000A0937500B0937600FF90EF90DF90CF9036
:100D80000C94390661E080E00E949C1380917A0007
:100D90001F928F938AE990E09F938F930E94E91BA3
:100DA0000F900F900F900F90089580917A008823F4
:100DB00019F0815080937A0080917A008BBB0C945B
:100DC000C20680917A008F3F19F08F5F80937A007E
:100DD00080917A008BBB0C94C20661E080E00E9497
:100DE0009C1380917F00813049F028F0823049F0D7
:100DF000833051F008958EE990E008C087EA90E0D2
:100E000005C080EB90E002C089EB90E09F938F9348
:100E10000E94E91B0F900F90089580917F00882316
:100E200019F0815080937F000C94ED0680917F0033
:100E30008F5F843009F483E080937F000C94ED068B
:100E40000E94291380E090E0089561E080E00E9414
:100E50009C1380917F008330C9F4809183008F932D
:100E6000809182008F93809181008F938091800088
:100E70008F9382EC90E09F938F930E94E91B0F90D9
:100E80000F900F900F900F900F9008958AEC90E0C4
:100E90009F938F930E94E91B0F900F900895CF921C
:100EA000DF92EF92FF9283E080937F0020E030E0BA
:100EB00048EC52E460917300709174008091750069
:100EC000909176000E94B4189B01AC016091800063
:100ED0007091810080918200909183000E944B1854
:100EE0006B017C012FE632E143E85AE30E94B0181F
:100EF00087FD09C0C0928000D0928100E0928200FC
:100F0000F092830008C0109280001092810010922D
:100F1000820010928300FF90EF90DF90CF900C94AE
:100F20002507CF92DF92EF92FF9283E080937F00BC
:100F300020E030E048EC52E460917300709174005E
:100F400080917500909176000E94B41820918000E5
:100F50003091810040918200509183000E944C1892
:100F60006B017C0120E030E04AE754E40E94FA196A
:100F700018164CF0C0928000D0928100E09282005E
:100F8000F09283000CC080E090E0AAE7B4E4809384
:100F9000800090938100A0938200B0938300FF9023
:100FA000EF90DF90CF900C94250714BC089585B581
:100FB000866085BD89B7806489BF089583B7897FBE
:100FC00083BF89B78F7B89BF08951F920F920FB699
:100FD0000F9211246A9A0F900FBE0F901F901895D0
:100FE0001F920F920FB60F9211246A9A0F900FBEA4
:100FF0000F901F9018951F920F920FB60F92112409
:101000006A9A0F900FBE0F901F901895809115014E
:1010100090911601AC014F5F5F4F509316014093C2
:101020001501849B0CC0839B0CC0809B0CC0819BD2
:101030000CC0829B0CC086990CC066E00BC061E0BE
:1010400009C062E007C063E005C064E003C065E07A
:1010500001C060E020911B01261759F0611119C0F1
:101060002091170130911801241B350B37FF22C046
:1010700010C020911B012223E9F020911901309129
:101080001A01241B350B37FF15C010921C0109965D
:101090000DC09C012B5E3F4F309318012093170128
:1010A00060931B0110921C018B599F4F90931A0162
:1010B00080931901089543E250E060E070E081E61A
:1010C00090E00C94731C8FEF91E00E946B1C8435B0
:1010D00039F00E945B0864E58FEF91E00E94941C58
:1010E00043E250E060E070E081E690E00C945B1C2D
:1010F0006091610082E1689FB001112467537F4FC6
:1011000042E150E08EE191E00E94981B84E291E080
:1011100090933101809330010E94771340E060E0AA
:1011200080911E0190911F010E94AA13E09122015B
:10113000F0912301099480911D0181110BC08091D0
:101140006100811102C08BE001C081508093610079
:101150000C9478080895109214010C949B088091C7
:101160001D0181110CC0809161008F5F8C3019F0DE
:101170008093610002C0109261000C947808089579
:10118000109214010C94AF088FEF809360000C94C0
:10119000780880917F00833011F08D9A01C08D987E
:1011A0000C94C4086091600082E1689FB001112432
:1011B00061597F4F42E150E08EE191E00E94981B1F
:1011C00084E291E090933101809330010E94771383
:1011D00040E060E080911E0190911F010E94AA13DF
:1011E000E0912201F0912301099480911D01811168
:1011F00004C0109260000C94D208089580911D01E3
:1012000081110BC080916000811102C084E001C097
:101210008150809360000C94D208089580911D0144
:1012200081110CC0809160008F5F853019F0809330
:10123000600002C0109260000C94D2080895809162
:101240001D01882361F080917F00833019F48FE5C0
:1012500090E002C08BE690E041E06DE004C041E028
:101260006DE087E690E00C94AA1361E080E00E94B4
:101270009C13E2E6F0E083818F9382818F938181DA
:101280008F9380818F9382E990E09F938F930E9448
:10129000E91B0F900F900F900F900F900F900C94F0
:1012A0001F09CF92DF92EF92FF922091730030914D
:1012B00074004091750050917600609162007091C9
:1012C000630080916400909165000E944B186B014F
:1012D0007C0120E030E0A9010E94B01887FD09C020
:1012E000C0926200D0926300E0926400F0926500C8
:1012F00008C0109262001092630010926400109275
:101300006500FF90EF90DF90CF900C943509CF925D
:10131000DF92EF92FF922091730030917400409120
:101320007500509176006091620070916300809129
:101330006400909165000E944C186B017C0120E0D4
:1013400034E244E758E40E94FA1918164CF0C092AF
:101350006200D0926300E0926400F09265000CC0DD
:1013600080E094E2A4E7B8E4809362009093630085
:10137000A0936400B0936500FF90EF90DF90CF9052
:101380000C94350961E080E00E949C1341E060E02C
:1013900084E590E00E94AA130C941F090F931F93F9
:1013A000CF93DF9361E080E00E949C13C0917B00AB
:1013B000D0917C0010917D0000917E002FEF3FEFD7
:1013C0004FE75FEFF8016C2F7D2F8F2F9E2F0E942C
:1013D000B01887FF03C085ED90E00EC020E030E03C
:1013E000A901F8016C2F7D2F8F2F9E2F0E94B0181E
:1013F000811109C080EE90E09F938F930E94E91BBA
:101400000F900F9020C02FEF3FEF4FE75FE7F801FD
:101410006C2F7D2F8F2F9E2F0E94FA1918161CF407
:101420008BEE90E0E9CF0F931F93DF93CF9382EC85
:1014300090E09F938F930E94E91B0F900F900F9065
:101440000F900F900F90DF91CF911F910F910C94FF
:101450001F09CF92DF92EF92FF9280911D018111BF
:1014600069C0C0907B00D0907C00E0907D00F0903F
:101470007E002FEF3FEF4FE75FEFC701B6010E94FD
:10148000B01887FD51C020E030E0A901C701B601C6
:101490000E94B018811105C080E090E0A0E8BFEF85
:1014A0000EC02FEF3FEF4FE75FE7C701B6010E9485
:1014B000FA1918166CF480E090E0AAE7B4E480937F
:1014C0007B0090937C00A0937D00B0937E002CC0A5
:1014D00020E030E048EC52E46091730070917400B9
:1014E00080917500909176000E94B4189B01AC0128
:1014F000C701B6010E944B1860937B0070937C007B
:1015000080937D0090937E002FE632E143E85AE31A
:101510000E94B01887FF08C010927B0010927C00D8
:1015200010927D0010927E00FF90EF90DF90CF90A0
:101530000C94CE09FF90EF90DF90CF900895CF925A
:10154000DF92EF92FF9280911D01811169C0C090DE
:101550007B00D0907C00E0907D00F0907E002FEF2B
:101560003FEF4FE75FEFC701B6010E94B01887FF5A
:1015700009C010927B0010927C0010927D001092A6
:101580007E0048C020E030E0A901C701B6010E94FA
:10159000B018811105C08FE692E1A3E8BAE332C02A
:1015A0002FEF3FEF4FE75FE7C701B6010E94FA193F
:1015B000181684F120E030E048EC52E460917300AA
:1015C0007091740080917500909176000E94B4181B
:1015D0009B01AC01C701B6010E944C1860937B00CF
:1015E00070937C0080937D0090937E0020E030E03B
:1015F0004AE754E40E94FA19181664F480E090E077
:10160000A0E8BFE780937B0090937C00A0937D00CF
:10161000B0937E00FF90EF90DF90CF900C94CE09B6
:10162000FF90EF90DF90CF9008958091140181306A
:1016300081F1C8F0823009F04EC040E060E085EEF4
:1016400091E00E94AA1361E080E00E949C138091C7
:1016500071008F93809170008F9380916F008F93B2
:1016600080916E002BC040E060E087E092E00E9435
:10167000AA1361E080E00E949C13809165008F9323
:10168000809164008F93809163008F9380916200BA
:1016900015C040E060E086EF91E00E94AA1361E08F
:1016A00080E00E949C1380916D008F9380916C006C
:1016B0008F9380916B008F9380916A008F9382E962
:1016C00090E09F938F930E94E91B0F900F900F90D3
:1016D0000F900F900F900C941F09CF92DF92EF9212
:1016E000FF9280911401813079F120F0823009F469
:1016F0005CC084C0209173003091740040917500EB
:101700005091760060916200709163008091640056
:10171000909165000E944B18609362007093630083
:10172000809364009093650020E030E0A9010E945E
:10173000B01887FF63C0109262001092630010928D
:101740006400109265005AC02091730030917400BB
:10175000409175005091760060916A0070916B0025
:1017600080916C0090916D000E944B1860936A000C
:1017700070936B0080936C0090936D00C09062003A
:10178000D0906300E0906400F0906500A70196019E
:101790000E94B01887FF32C0C0926A00D0926B00DE
:1017A000E0926C00F0926D0029C02091730030919E
:1017B0007400409175005091760060916E007091B8
:1017C0006F0080917000909171000E944B1860939F
:1017D0006E0070936F00809370009093710020E012
:1017E00030E0A9010E94B01887FF08C010926E0077
:1017F00010926F001092700010927100FF90EF90A5
:10180000DF90CF900C94150B80911401813001F181
:1018100020F0823009F44BC078C0209173003091E1
:101820007400409175005091760060916200709153
:10183000630080916400909165000E944C18609351
:1018400062007093630080936400909365001AC0F7
:101850002091730030917400409175005091760092
:1018600060916A0070916B0080916C0090916D00A6
:101870000E944C1860936A0070936B0080936C0018
:1018800090936D0020E034E244E758E40E94FA1996
:101890001816DCF580E094E2A4E7B8E480936200D7
:1018A00090936300A0936400B09365002EC02091D4
:1018B00073003091740040917500509176006091F2
:1018C0006E0070916F0080917000909171000E9485
:1018D0004C1860936E0070936F008093700090932B
:1018E000710020E030E048EC52E40E94FA1918162A
:1018F00064F480E090E0A8ECB2E480936E009093F2
:101900006F00A0937000B09371000C94150B61E010
:1019100080E00E949C13E6E6F0E083818F93828151
:101920008F9381818F9380818F9386EF90E09F9337
:101930008F930E94E91B0F900F900F900F900F90C4
:101940000F900C941F09CF92DF92EF92FF922CEA36
:1019500035EC47E257E36091660070916700809133
:101960006800909169000E944B186B017C012CEE7D
:1019700031E548EB5DE30E94B01887FD09C0C092D5
:101980006600D0926700E0926800F09269000CC097
:101990008CEE91E5A8EBBDE3809366009093670021
:1019A000A0936800B0936900FF90EF90DF90CF9014
:1019B0000C94870CCF92DF92EF92FF922CEA35ECD9
:1019C00047E257E36091660070916700809168007C
:1019D000909169000E944C186B017C012EEA37E45B
:1019E00041E85FE30E94FA1918164CF0C0926600B5
:1019F000D0926700E0926800F09269000CC08EEA15
:101A000097E4A1E8BFE38093660090936700A093FA
:101A10006800B0936900FF90EF90DF90CF900C9436
:101A2000870C80911B018111FCCF8BB7806E8BBF1F
:101A30000C94DE078BB78F718BBF0C94D7070E9475
:101A40005B0881E080931D01E0912201F091230168
:101A500009950C94110DCF92DF92EF92FF926B01DA
:101A60007C01642F70E080E090E00E944A199B01A5
:101A7000AC0160E074E284E79BE40E94B41820E0CB
:101A800030E040E857E30E94FE1920E030E040E8F3
:101A90005BE30E94FE19209166003091670040913F
:101AA0006800509169000E94B4189B01AC01C70105
:101AB000B6010E94B4180E941C19FF90EF90DF90AD
:101AC000CF9008950E941A0D10921D0180917A0006
:101AD0008BBBE0912201F0912301099580911B01BC
:101AE0008111FCCF08950E941F0D6A9840E051E0DB
:101AF00060EF72E080E092E00E94981B80917F008E
:101B00009FEF980F923010F4959A9598833059F57D
:101B10008D986A9820E030E04AE756E460918000B2
:101B20007091810080918200909183000E94FE1943
:101B300020E030E040EC50E40E94B4180E941C19F0
:101B4000611571058105910539F485990CC06A9B71
:101B5000FCCF16C06A9914C0859BFCCF61507040C1
:101B600080409040D9F7E0E0F2E02CEF322F008087
:101B70000BBAE3953A9511F4322FE02D6A9BF7CF1B
:101B80000C94620D80917F00833061F080911D0183
:101B9000882319F08BE690E002C087E690E041E0F0
:101BA0006DE004C041E06DE083E690E00C94AA1380
:101BB00061E080E00E949C13809172001F928F93DD
:101BC0008CEF90E09F938F930E94E91B0F900F90F2
:101BD0000F900F900C94C20D60E08AE00E949C135D
:101BE0006091790070E080E090E00E94481920E068
:101BF00030E040E85FE30E944C1820E030E040E82D
:101C00005BE30E94FE1920E030E048EC52E40E94C1
:101C1000FE199F938F937F936F9384E091E09F933E
:101C20008F930E94E91B0F900F900F900F900F90D1
:101C30000F9008950E9435090C94EC0D80911D01C0
:101C4000811102C00C949B08809179008F3F19F09C
:101C50008F5F809379000C941A0E80911D01811181
:101C600002C00C94AF0880917900882319F081504C
:101C7000809379000C941A0E0F931F93CF93DF93E8
:101C80008091770090917800843F9105F1F038F4CD
:101C9000CD97B1F4C6EFD8E214E702E41AC0803D54
:101CA00023E0920741F085389E4151F4C0E0D4E230
:101CB00014EF05E40EC0C7EDD3E214E704E409C055
:101CC000C0E0D4E214E707E404C0C7EDD3E214E7B0
:101CD00003E40E94EC0D61E080E00E949C130F93EE
:101CE0001F93DF93CF938CE091E09F938F930E949B
:101CF000E91B0F900F900F900F900F900F90DF91B6
:101D0000CF911F910F910C94C20D80911D018111F3
:101D100002C00C949B08809179008F3F19F08F5F6F
:101D2000809379008091790090E09BBD8ABD0C94EE
:101D30003C0E80911D01811102C00C94AF0880916E
:101D40007900882319F0815080937900809179007F
:101D500090E09BBD8ABD0C943C0E809177009091E1
:101D60007800803D23E0920789F030F4843F9105AC
:101D7000B1F48DE390E00FC085382EE1920749F071
:101D80008432944F61F485E89EE105C084EF90E0D1
:101D900002C080ED93E090937800809377000C94DC
:101DA0003C0E8091770090917800843F910581F0FE
:101DB00028F4CD97B1F484EF90E00FC0803D23E08C
:101DC000920749F085389E4161F484E294EF05C0A2
:101DD00080ED93E002C085E89EE1909378008093C7
:101DE00077000C943C0E2091790080E0E82FF0E021
:101DF000E050FE4F91E0281708F490E09195908311
:101E00008F3F11F08F5FF2CF08951F920F920FB6A0
:101E10000F9211242F933F934F935F936F937F9370
:101E20008F939F93AF93BF93EF93FF930E94060806
:101E3000FF91EF91BF91AF919F918F917F916F91A2
:101E40005F914F913F912F910F900FBE0F901F9078
:101E50001895843039F0883041F0823049F483E0BD
:101E600090E008C081E090E005C01BBC1ABC04C033
:101E700087E090E09BBD8ABD80E48FBD89E08EBD88
:101E8000089580911D01882321F0809172000C94A7
:101E9000290F089580917200813019F08695809302
:101EA00072000E94D80D0C94410F8091720088300E
:101EB00019F0880F809372000E94D80D0C94410F86
:101EC000843F910591F020F4CD9769F485E00EC030
:101ED000803D23E0920729F085389E4121F482E07D
:101EE00005C083E003C081E001C084E091E89FBDAC
:101EF00088608EBD08951FBC1EBC089584E890E0E4
:101F000090933501809334010E94E7130E94771368
:101F10000E9461140E94630810921D0180917A0052
:101F20008BBB8FEF8ABB81B3807A81BB82B38F6515
:101F300082BBBA9884E088BB80917F00833011F027
:101F40008D9A01C08D9814BC0E941A0D0E947808C9
:101F50007894089580911C01811143C080911B01E8
:101F600091E090931C018330E1F028F4813049F036
:101F7000823079F00895853021F1D8F0863049F12A
:101F80000895E0913001F09131010190F081E02D50
:101F900027C0E0913001F09131010680F781E02DFA
:101FA0001FC0E0913001F09131010280F381E02DFA
:101FB00017C0E0913001F09131010480F581E02DEE
:101FC0000FC0E0913001F09131010084F185E02DE6
:101FD00007C0E0913001F09131010284F385E02DDA
:101FE000099408950E941A0D80911B01882319F00D
:101FF0000E94AA0FF9CF0C94110DCF92DF92EF92AD
:10200000FF92CF93C0917F00C23011F44EE001C027
:1020100049E060916200709163008091640090914A
:1020200065000E942B0D6B017C0161157105810516
:10203000910521F4C12CD12C7601C3946A98C23049
:1020400081F4E0E0F2E0222733272C0D3D1DEE1D48
:1020500000800BBAE7FD9598E7FF959A6A9BF5CF4C
:102060003DC0C13019F4959A95982DC0C33059F5EB
:102070008D986A9820E030E04AE756E4609180004D
:102080007091810080918200909183000E94FE19DE
:1020900020E030E040EC50E40E94B4180E941C198B
:1020A000611571058105910539F485990CC06A9B0C
:1020B000FCCF14C06A9912C0859BFCCF6150704060
:1020C00080409040D9F7E0E0F2E0222733272C0D42
:1020D0003D1DEE1D00800BBA6A9BF9CF80917A00FE
:1020E0008BBBCF91FF90EF90DF90CF900C94F20FCD
:1020F000609120017091210140E051E080E092E088
:102100000E94981B80911D01882319F00E94FD0FE9
:10211000F9CF089580911D01811106C00E941F0D05
:102120000E9478100C94620D10921D010895809108
:102130001D01882329F00E94F30E0E94FD0FF7CFA6
:10214000089580911D01811106C00E941F0D0E94FB
:1021500097100C94620D10921D01089580911D013D
:10216000811124C081E080931D010E94870C0E9490
:10217000110D40E051E060EF73E080E092E00E94DA
:10218000981B80911D01882319F00E94FD0FF9CF43
:102190000E941A0D10921D0180917A008BBB0E9443
:1021A000870C80911B018111FCCF089510921D01B5
:1021B0000895CF92DF92EF92FF92CF93DF938091B9
:1021C0001D01811147C081E080931D010E94CE094D
:1021D000C1E080917F00833009F045C0C0E08D9858
:1021E0006A9820E030E04AE756E460918000709100
:1021F000810080918200909183000E94FE1920E06E
:1022000030E040EC50E40E94B4180E941C196115A3
:1022100071058105910539F4859925C06A9BFCCF2C
:102220000FC06A990DC0859BFCCF61507040804003
:102230009040D9F718C0C111959880917A008BBB56
:1022400010921D01DF91CF91FF90EF90DF90CF9022
:102250000C94CE0910921D01DF91CF91FF90EF9069
:10226000DF90CF900895C0907B00D0907C00E090EC
:102270007D00F0907E002FEF3FEF4FE75FEFC7014B
:10228000B6010E94B01887FF0BC0C111959A8FEF5D
:102290008BBB80911B01882371F20E94AA0FF9CF9A
:1022A0002FEF3FEF4FE75FE7C701B6010E94FA1932
:1022B000181664F4C111959A8FEF8BBB80911D01A4
:1022C000882309F4B8CF0E94AA0FF8CF20E030E0AD
:1022D000A901C701B6010E94B018D0917A008111FE
:1022E00006C08FEF8BBBCC23E9F0959A1AC020E093
:1022F00030E04AE756E4C701B6010E94FE1920E02B
:1023000030E040EC50E40E94B4180E941C192FEFFA
:102310002BBBC111959A6150704080409040D9F715
:10232000C1119598DBBB8CCF80911D01882319F0DA
:1023300010921D01089580917F008330D9F00E9492
:102340005B0881E080931D01E0912201F09123015F
:1023500009950E94410F80911D01882319F00E9468
:10236000AA0FF9CF0E947B0F9598E0912201F0917E
:1023700023010994089580911D01882319F010927A
:102380001D01089580917F00833021F10E945B0838
:1023900081E080931D01E0912201F09123010995D4
:1023A00080911D01882371F08091790090E09BBDA0
:1023B0008ABD80917700909178000E94600F0E9402
:1023C000AA0FEECF0E947B0F9598E0912201F09129
:1023D0002301099408954F925F926F927F928F929A
:1023E0009F92AF92BF92CF92DF92EF92FF920F93A4
:1023F0001F93CF93DF9380906E0090906F00A0901A
:102400007000B0907100209166003091670040919B
:102410006800509169006EE873E089ED9DE30E94C9
:10242000B4182B013C019B01AC01609162007091DA
:10243000630080916400909165000E94B4180E942E
:102440001C196B017C01611571058105910521F451
:10245000C12CD12C7601C394A3019201C501B40112
:102460000E94B4180E941C194B015C016115710592
:102470008105910521F4812C912C54018394A301B1
:10248000920160916A0070916B0080916C00909154
:102490006D000E94B4180E941C19E6011E2DC6167C
:1024A000D706E806F90610F4EB01182F80917A00A0
:1024B000E0E8F2E000E89191891718F40F5F0F3F10
:1024C000D1F76A9880917F009FEF980F923010F4B7
:1024D000959A9598833059F58D986A9820E030E068
:1024E0004AE756E4609180007091810080918200FB
:1024F000909183000E94FE1920E030E040EC50E40F
:102500000E94B4180E941C1961157105810591057E
:1025100039F485990CC06A9BFCCF46C06A9944C0C7
:10252000859BFCCF6150704080409040D9F7E02FF0
:10253000F0E0E050FE4F222733272C0D3D1DEE1D0D
:1025400019F000800BBAF9CF00800BBAC80CD91C67
:10255000EA1C1E1548F131F4DD1530F131F4CC15CB
:1025600018F116C00000000000000000000000008C
:102570002C0D3D1DEE1D2C0D3D1DEE1D2C0D3D1D8C
:10258000EE1D2C0D3D1DEE1D2C0D3D1DEE1D000004
:1025900049F42C0D3D1DEE1D000000000000F8CF99
:1025A00000800BBA6A9BC9CF80917A008BBB0E94D6
:1025B0001A0D80911B01882319F00E94AA0FF9CFF0
:1025C000DF91CF911F910F91FF90EF90DF90CF900F
:1025D000BF90AF909F908F907F906F905F904F9043
:1025E0000C94110D80911D01811130C08091140156
:1025F000813031F018F0823041F0089581E001C05F
:1026000082E0809314010C94150B0E945B0881E01A
:1026100080931D01E0912201F091230109950E9410
:10262000110D40E051E060EF73E080E092E00E9425
:10263000981B80911D01882319F00E94EB11F9CF9E
:102640000E94620D109214010C94780810921D01E2
:102650000895982F907F95BBA89AAA9AEFE9FFE07A
:102660003197F1F700C00000AA98A898EFE9FFE0C1
:102670003197F1F700C00000F0E18F9FC0011124F5
:1026800085BBA89AAA9A8FE99FE00197F1F700C04D
:102690000000AA98A898EFE9FFE03197F1F700C091
:1026A00000000895982F907F95BBAA9AEFE9FFE06C
:1026B0003197F1F700C00000AA98EFE9FFE03197E9
:1026C000F1F700C00000F0E18F9FC001112485BB2D
:1026D000AA9A8FE99FE00197F1F700C00000AA983D
:1026E000EFE9FFE03197F1F700C00000089581E0C5
:1026F0000C94521382E00C945213EF92FF921F93AA
:10270000CF93DF931F92CDB7DEB7009771F0182FEC
:102710007C018E2D811B861740F4F70181917F018A
:1027200069830E9429136981F4CF0F90DF91CF91C3
:102730001F91FF90EF900895623031F0633031F0D7
:10274000613029F4805C03C08C5E01C08C5A8068C3
:102750000C9452131F93CF93DF93EC01862F642FB9
:102760000E949C1310E0FE01E10FF11D849188236B
:1027700021F00E9429131F5FF6CFDF91CF911F91A7
:102780000895EF92FF920F931F93CF93DF938C01E5
:1027900088E0689FB0011124862F8064E82EC0E095
:1027A000D0E0F801EC0FFD1FF4908C2F8E0D0E94ED
:1027B00052138F2D0E9429132196C830D10589F715
:1027C000DF91CF911F910F91FF90EF9008951F938C
:1027D000CF93DF938FE59AEE0197F1F700C00000E9
:1027E00015BA15BA84B3806F84BB84B3876084BB89
:1027F00080E385BBAA9A8FE99FE00197F1F700C0BB
:102800000000AA988FE99FE00197F1F700C000004F
:1028100080E385BBAA9A8FE99FE00197F1F700C09A
:102820000000AA988FE99FE00197F1F700C000002F
:1028300080E285BBAA9A8FE99FE00197F1F700C07B
:102840000000AA988FE99FE00197F1F700C000000F
:1028500088E20E9452138CE00E945213C0EFDAE02B
:1028600060E011E0160FCE010E94C11328961830C7
:1028700011F0612FF6CFDF91CF911F910895CF9383
:10288000DF93D82FC0E0CD1729F08EE10E945213BC
:10289000CF5FF9CFDF91CF910895CF93DF93D82FFA
:1028A000C0E0CD1729F088E10E945213CF5FF9CF25
:1028B000DF91CF9108958EE00C9452138FE00C9429
:1028C00052138CE00C94521388E00C9452138CE059
:1028D0000C945213CF93DF93D82FC0E0CD1729F07B
:1028E00080E10E945213CF5FF9CFDF91CF9108951D
:1028F000CF93DF93D82FC0E0CD1729F084E10E9459
:102900005213CF5FF9CFDF91CF910895CF92DF922D
:10291000EF92FF920F931F93CF93DF931F92CDB748
:10292000DEB756E0459F90011124E82FE29FC001D9
:10293000E39F900D112470E00E94751A8B01CB016A
:1029400066E070E00E94611AE82EC12CD12CF12CB7
:10295000F416B9F096012B5F3F4F0217130728F4C6
:102960000C151D0520F08E2D03C085E001C080E010
:1029700049830E942913F394F6E0CF0ED11C4981BC
:10298000E7CF0F90DF91CF911F910F91FF90EF90C4
:10299000DF90CF9008950E947E0F0E94AA0FFDCF76
:1029A000A3E1B0E0E6EDF4E10C94891A7C011B018F
:1029B0006A01FC0117821682838181FF66C3BE0112
:1029C0006F5F7F4F4B01F7019381F10193FD85917B
:1029D00093FF81911F01882309F453C3853239F491
:1029E00093FD859193FF81911F01853239F4B701E1
:1029F00090E00E94B71B56016501E5CF10E0512C15
:102A000020E02032A0F48B3269F030F4803259F0AB
:102A1000833269F420612CC08D3239F0803339F46F
:102A2000216026C02260246023C0286021C027FDC9
:102A300027C030ED380F3A3078F426FF06C0FAE0B0
:102A40001F9F300D1124132F13C06AE0569E300DC6
:102A50001124532E20620CC08E3221F426FD11C3A6
:102A6000206406C08C3611F4206802C0883641F418
:102A7000F10193FD859193FF81911F018111C1CFD8
:102A80009BEB980F933018F42061805E06C09BE9A1
:102A9000980F933008F0AAC12F7E26FF16E02F73FF
:102AA000722E853621F4F22FF0647F2E08C0863610
:102AB00021F4622F6068762E02C01111115077FE4A
:102AC00007C01C3348F444244394410E27E00BC054
:102AD000183030F4212F06C027E04CE3442E03C009
:102AE00027E017E0412C560174E0A70EB11CF60157
:102AF0006081718182819381042DA4010E94C01A9A
:102B00006C01098100FF02C003FF06C071FC07C011
:102B100072FC08C0612C08C03DE2632E05C02BE2A8
:102B2000622E02C090E2692E802F8C7099F166208F
:102B300011F084E001C083E0851510F0512C0BC02A
:102B4000581A73FC08C0B70180E290E00E94B71BDE
:102B50005A94C9F7F3CF662029F0B701862D90E08B
:102B60000E94B71B03FD03C004E31BE002C000E3A7
:102B70001BE0F72DF0717F2EF8018491882309F472
:102B800076C271108052B70190E00E94B71B0F5FB0
:102B90001F4FF2CF77FE0FC04C0C04FF04C08A8198
:102BA000813309F44A94141474F5F8E0F41578F5B7
:102BB00088E0482E2CC076FC2AC0812F90E08C152E
:102BC0009D059CF06CEFC6166FEFD60674F0772D5E
:102BD0007068772E0AC0E2E0F0E0EC0FFD1FE10F15
:102BE000F11D8081803319F411501111F4CF77FE5B
:102BF0000EC044244394410E812F90E0C816D9069C
:102C00002CF41C1904C04424439401C010E077FE46
:102C100007C01C141D043CF496012F5F3F4F05C0F4
:102C200025E030E002C021E030E0662011F02F5FA7
:102C30003F4F112331F0412F50E04F5F5F4F240F82
:102C4000351F452D50E02417350714F4521A01C0E2
:102C5000512C872D897049F4552039F0B70180E255
:102C600090E00E94B71B5A94F7CF662029F0B70175
:102C7000862D90E00E94B71B73FC09C0552039F0E7
:102C8000B70180E390E00E94B71B5A94F7CF77FE1C
:102C90005FC09C2D8D2DD7FE02C090E080E0692E94
:102CA000782E40E050E0C601841991099D878C87F9
:102CB000960126193709280D391D812F90E0EE273E
:102CC000FF27E81BF90BFF87EE87FFEF6F167F06E4
:102CD00069F4B7018EE290E02B8B3A8B488B598BCD
:102CE0000E94B71B598948893A892B89C614D70491
:102CF00054F06C857D85661577052CF4F901E40F99
:102D0000F51F818101C080E371E0671A71084F5F90
:102D10005F4FEE85FF856E167F066CF0B70190E081
:102D20002B8B3A8B488B598B0E94B71B2B893A8986
:102D300048895989CACF6C147D0439F49A81963335
:102D400018F4953311F404FF81E3B70190E04BC010
:102D50008A81813309F00F7EB70190E00E94B71B92
:102D6000111105C074FE18C085E490E017C0B701CA
:102D70008EE290E00E94B71B82E066246394680EA6
:102D8000F401E80FF11D8081B70190E00E94B71BAC
:102D9000115041F3862DF1CF85E690E0B7010E94F6
:102DA000B71BD7FC05C0C114D10439F404FF05C01A
:102DB000D194C194D1088DE201C08BE2B70190E0BB
:102DC0000E94B71B80E36AE0C616D1042CF08F5F27
:102DD000FAE0CF1AD108F7CFB70190E00E94B71BF5
:102DE000B701C601C0960E94B71B41C1833631F0BE
:102DF000833779F0833509F058C021C0560172E05D
:102E0000A70EB11CF6018081898301E010E0640106
:102E100014C05601F2E0AF0EB11CF601C080D180A3
:102E200026FF03C0612F70E002C06FEF7FEFC60185
:102E30002B8B0E94AC1B8C012B892F7715C0560160
:102E4000F2E0AF0EB11CF601C080D18026FF03C0B6
:102E5000612F70E002C06FEF7FEFC6012B8B0E94E5
:102E6000A11B8C012B892068722E23FD1AC0852D91
:102E700090E008171907A8F4B70180E290E00E94DB
:102E8000B71B5A94F4CFF60177FC859177FE8191B8
:102E90006F01B70190E00E94B71B51105A94015086
:102EA00011090115110579F7E2C0843611F0893650
:102EB00051F5560127FF09C0F4E0AF0EB11CF60131
:102EC00060817181828193810AC0F2E0AF0EB11CF2
:102ED000F60160817181882777FD8095982F022FF8
:102EE0000F7697FF08C090958095709561957F4FFC
:102EF0008F4F9F4F00682AE030E0A4010E94FD1B25
:102F0000C82EC8183EC0022F853721F40F7E2AE054
:102F100030E01DC0097F8F3691F018F4883559F0E4
:102F2000B0C0803719F0883711F0ABC0006104FFE2
:102F300009C0046007C024FF08C0066006C028E07E
:102F400030E005C020E130E002C020E132E056016F
:102F500007FF09C0F4E0AF0EB11CF601608171817A
:102F60008281938108C0F2E0AF0EB11CF60160814E
:102F7000718180E090E0A4010E94FD1BC82EC8185A
:102F80000F7706FF0BC0202F2E7FC11650F404FFD1
:102F90000AC002FD08C0202F2E7E05C0DC2C202F89
:102FA00003C0DC2C01C0D12E24FF0DC0FE01EC0DAE
:102FB000F11D8081803311F4297E09C022FF06C0F3
:102FC000D394D39404C0822F867809F0D39423FD40
:102FD00013C020FF06C01C2DD51418F4150D1D19A3
:102FE000D52CD51468F4B70180E290E02B8B0E94B9
:102FF000B71BD3942B89F5CFD51410F45D1801C0FD
:10300000512C24FF12C0B70180E390E02B8B0E946B
:10301000B71B2B8922FF17C021FF03C088E590E072
:1030200002C088E790E0B7010CC0822F867859F083
:1030300021FD02C080E201C08BE227FD8DE2B701D5
:1030400090E00E94B71BC11638F4B70180E390E00E
:103050000E94B71B1150F7CFCA94F401EC0DF11D7B
:103060008081B70190E00E94B71BC110F5CF5520B9
:1030700009F4C2CCB70180E290E00E94B71B5A94D9
:10308000F6CFF7018681978102C08FEF9FEF63969D
:10309000E2E10C94A51A5058BB27AA270ED070C1A4
:1030A00061D130F066D120F031F49F3F11F41EF46D
:1030B00056C10EF4E095E7FB4CC1E92F72D180F3C5
:1030C000BA17620773078407950718F071F49EF525
:1030D0008AC10EF4E0950B2EBA2FA02D0B01B90179
:1030E00090010C01CA01A0011124FF27591B99F07E
:1030F000593F50F4503E68F11A16F040A22F232F8A
:10310000342F4427585FF3CF469537952795A795D9
:10311000F0405395C9F77EF41F16BA0B620B730B80
:10312000840BBAF09150A1F0FF0FBB1F661F771FF1
:10313000881FC2F70EC0BA0F621F731F841F48F4A6
:10314000879577956795B795F7959E3F08F0B3CF2C
:103150009395880F08F09927EE0F97958795089516
:10316000D4D008F481E008950CD00AC102D140F017
:10317000F9D030F021F45F3F19F0EBC0511134C1A8
:10318000EEC00FD198F39923C9F35523B1F3951BE2
:10319000550BBB27AA2762177307840738F09F5F78
:1031A0005F4F220F331F441FAA1FA9F333D00E2EE7
:1031B0003AF0E0E830D091505040E695001CCAF754
:1031C00029D0FE2F27D0660F771F881FBB1F261719
:1031D00037074807AB07B0E809F0BB0B802DBF01EC
:1031E000FF2793585F4F2AF09E3F510568F0B1C00A
:1031F000FBC05F3FECF3983EDCF3869577956795CF
:10320000B795F7959F5FC9F7880F911D969587959C
:1032100097F90895E1E0660F771F881FBB1F6217BB
:1032200073078407BA0720F0621B730B840BBA0B79
:10323000EE1F88F7E0950895BCD088F09F5790F076
:10324000B92F9927B751A0F0D1F0660F771F881FCB
:10325000991F1AF0BA95C9F712C0B13081F0C3D0E6
:10326000B1E00895C0C0672F782F8827B85F39F084
:10327000B93FCCF3869577956795B395D9F73EF42A
:1032800090958095709561957F4F8F4F9F4F0895D2
:10329000E89409C097FB3EF49095809570956195F0
:1032A0007F4F8F4F9F4F9923A9F0F92F96E9BB27A6
:1032B0009395F695879577956795B795F111F8CF22
:1032C000FAF4BB0F11F460FF1BC06F5F7F4F8F4F8D
:1032D0009F4F16C0882311F096E911C0772321F083
:1032E0009EE8872F762F05C0662371F096E8862F1B
:1032F00070E060E02AF09A95660F771F881FDAF772
:10330000880F9695879597F90895990F0008550F9E
:10331000AA0BE0E8FEEF16161706E807F907C0F05B
:1033200012161306E407F50798F0621B730B840B63
:10333000950B39F40A2661F0232B242B252B21F43D
:1033400008950A2609F4A140A6958FEF811D811DDD
:10335000089597F99F6780E870E060E008959FEF17
:1033600080EC089500240A9416161706180609061C
:10337000089500240A9412161306140605060895EB
:10338000092E0394000C11F4882352F0BB0F40F473
:10339000BF2B11F460FF04C06F5F7F4F8F4F9F4FB3
:1033A000089557FD9058440F551F59F05F3F71F035
:1033B0004795880F97FB991F61F09F3F79F087959C
:1033C0000895121613061406551FF2CF4695F1DF25
:1033D00008C0161617061806991FF1CF86957105B5
:1033E000610508940895E894BB2766277727CB01E9
:1033F00097F908958ADF08F48FEF08950BD0C0CFB6
:10340000B1DF28F0B6DF18F0952309F0A2CFA7CFDF
:103410001124EACFC6DFA0F3959FD1F3950F50E0BA
:10342000551F629FF001729FBB27F00DB11D639F76
:10343000AA27F00DB11DAA1F649F6627B00DA11D1C
:10344000661F829F2227B00DA11D621F739FB00DC2
:10345000A11D621F839FA00D611D221F749F332732
:10346000A00D611D231F849F600D211D822F762FCB
:103470006A2F11249F5750408AF0E1F088234AF0C8
:10348000EE0FFF1FBB1F661F771F881F9150504014
:10349000A9F79E3F510570F05CCFA6CF5F3FECF3DC
:1034A000983EDCF3869577956795B795F795E79500
:1034B0009F5FC1F7FE2B880F911D9695879597F911
:1034C0000895AA1BBB1B51E107C0AA1FBB1FA6176B
:1034D000B70710F0A61BB70B881F991F5A95A9F7BD
:1034E00080959095BC01CD01089597FB072E16F4A9
:1034F000009407D077FD09D00E94611A07FC05D01F
:103500003EF4909581959F4F0895709561957F4FFA
:1035100008952F923F924F925F926F927F928F9277
:103520009F92AF92BF92CF92DF92EF92FF920F9352
:103530001F93CF93DF93CDB7DEB7CA1BDB0B0FB65C
:10354000F894DEBF0FBECDBF09942A883988488819
:103550005F846E847D848C849B84AA84B984C884AF
:10356000DF80EE80FD800C811B81AA81B981CE0FA6
:10357000D11D0FB6F894DEBF0FBECDBFED0108958B
:10358000283008F027E03327DA01990F311D87FD35
:10359000916000966105710539F432602E5F3D93AC
:1035A00030E32A95E1F708959F3F30F080387105A8
:1035B000610509F03C5F3C5F3D93913008F0806805
:1035C000911DDF93CF931F930F93FF92EF92192FCB
:1035D000987F9695E92F96959695E90FFF27EE56D9
:1035E000F44F99273327EE24FF24A701E701059024
:1035F0000894079428F4360FE71EF81E491F511D42
:10360000660F771F881F991F0694A1F705900794EE
:1036100028F4E70EF81E491F561FC11D770F881F9B
:10362000991F661F0694A1F70590079428F4F80ED9
:10363000491F561FC71FD11D880F991F661F771F6F
:103640000694A1F70590079420F4490F561FC71F51
:10365000D81F990F661F771F881F0694A9F78491BA
:103660001095177041F0D695C79557954795F794E3
:10367000E7941A95C1F7E8E3FBE06894159015917B
:1036800035916591959105907FE27395E118F10A66
:10369000430B560BC90BD009C0F7E10CF11E431FB9
:1036A000561FC91FD01D7EF4703311F48A95E6CFE2
:1036B000E894015030F0080F0AF40027021708F4CC
:1036C000202F2395022F7A3328F079E37D932A95D2
:1036D000E9F710C07D932A9589F60694979567952A
:1036E000379517951794E118F10A430B560BC90B40
:1036F000D00998F023957E9173957A3308F070E3A2
:103700007C932013B8F77E9170617D9330F08395A0
:1037100071E37D9370E32A95E1F71124EF90FF9018
:103720000F911F91CF91DF91992787FD9095089573
:10373000FB01DC0102C005900D9241505040D8F7CA
:103740000895FC010590615070400110D8F78095F4
:1037500090958E0F9F1F0895FC016150704001905D
:103760000110D8F7809590958E0F9F1F08950F93A5
:103770001F93CF93DF93182F092FEB018B8181FDCE
:1037800003C08FEF9FEF20C082FF10C04E815F818A
:103790002C813D81421753077CF4E881F9819F0118
:1037A0002F5F3F4F39832883108306C0E885F98552
:1037B000812F0995892B29F72E813F812F5F3F4F5C
:1037C0003F832E83812F902FDF91CF911F910F91F7
:1037D0000895A0E0B0E0EFEEFBE10C94991AFE0131
:1037E000359661917191AF018091340190913501CD
:1037F0000E94D014E2E00C94B51AFA01AA272830EE
:1038000051F1203181F1E8946F936E7F6E5F7F4FAD
:103810008F4F9F4FAF4FB1E03ED0B4E03CD0670F29
:10382000781F891F9A1FA11D680F791F8A1F911D7C
:10383000A11D6A0F711D811D911DA11D20D009F4CC
:1038400068943F912AE0269F11243019305D31930E
:10385000DEF6CF010895462F4770405D4193B3E0F7
:103860000FD0C9F7F6CF462F4F70405D4A3318F09E
:10387000495D31FD4052419302D0A9F7EACFB4E04F
:10388000A6959795879577956795BA95C9F7009707
:103890006105710508959B01AC010A2E06945795A8
:1038A000479537952795BA95C9F7620F731F841FFF
:1038B000951FA01D0895DC01CB01FC01E199FECF0D
:1038C00006C0FFBBEEBBE09A31960DB20D9241509F
:1038D0005040B8F70895E199FECF9FBB8EBBE09AA8
:1038E00099278DB30895DC01A40FB51F41505040B6
:1038F00048F0CB01840F951F2E910E94841C4150EB
:103900005040D0F70895262FE199FECF9FBB8EBB84
:10391000E09A01970DB2021631F02DBB0FB6F89464
:10392000E29AE19A0FBE0895262FE199FECF9FBB40
:103930008EBB2DBB0FB6F894E29AE19A0FBE0196AA
:063940000895F894FFCF8A
:10394600FF0000007A440000803F00409C46CDCC3A
:10395600CC3D010000C84224F47F800000803F0077
:103966000000000000000002000000002007000028
:10397600000025382E3166487A00253375004F66DB
:103986006620202020200053696E676C6520200089
:103996004D756C7469706C65005472696767657201
:1039A600200025382E33666D73004F666620202072
:1039B6002020202000756E74696C2072656C2000D2
:1039C6006D696E2020202020202000756E74696CA1
:1039D6002073746F700025372E35660020253575E7
:1039E6004D487A0025352E316625250025382E329C
:0439F60066487A00A5
:00000001FF
